{
    "contractName": "BlockBanana",
    "abi": [
        {
            "inputs": [],
            "stateMutability": "nonpayable",
            "type": "constructor"
        },
        {
            "anonymous": false,
            "inputs": [
                {
                    "indexed": true,
                    "internalType": "address",
                    "name": "account",
                    "type": "address"
                },
                {
                    "indexed": true,
                    "internalType": "address",
                    "name": "operator",
                    "type": "address"
                },
                {
                    "indexed": false,
                    "internalType": "bool",
                    "name": "approved",
                    "type": "bool"
                }
            ],
            "name": "ApprovalForAll",
            "type": "event"
        },
        {
            "anonymous": false,
            "inputs": [
                {
                    "indexed": true,
                    "internalType": "address",
                    "name": "previousOwner",
                    "type": "address"
                },
                {
                    "indexed": true,
                    "internalType": "address",
                    "name": "newOwner",
                    "type": "address"
                }
            ],
            "name": "OwnershipTransferred",
            "type": "event"
        },
        {
            "anonymous": false,
            "inputs": [
                {
                    "indexed": true,
                    "internalType": "address",
                    "name": "operator",
                    "type": "address"
                },
                {
                    "indexed": true,
                    "internalType": "address",
                    "name": "from",
                    "type": "address"
                },
                {
                    "indexed": true,
                    "internalType": "address",
                    "name": "to",
                    "type": "address"
                },
                {
                    "indexed": false,
                    "internalType": "uint256[]",
                    "name": "ids",
                    "type": "uint256[]"
                },
                {
                    "indexed": false,
                    "internalType": "uint256[]",
                    "name": "values",
                    "type": "uint256[]"
                }
            ],
            "name": "TransferBatch",
            "type": "event"
        },
        {
            "anonymous": false,
            "inputs": [
                {
                    "indexed": true,
                    "internalType": "address",
                    "name": "operator",
                    "type": "address"
                },
                {
                    "indexed": true,
                    "internalType": "address",
                    "name": "from",
                    "type": "address"
                },
                {
                    "indexed": true,
                    "internalType": "address",
                    "name": "to",
                    "type": "address"
                },
                {
                    "indexed": false,
                    "internalType": "uint256",
                    "name": "id",
                    "type": "uint256"
                },
                {
                    "indexed": false,
                    "internalType": "uint256",
                    "name": "value",
                    "type": "uint256"
                }
            ],
            "name": "TransferSingle",
            "type": "event"
        },
        {
            "anonymous": false,
            "inputs": [
                {
                    "indexed": false,
                    "internalType": "string",
                    "name": "value",
                    "type": "string"
                },
                {
                    "indexed": true,
                    "internalType": "uint256",
                    "name": "id",
                    "type": "uint256"
                }
            ],
            "name": "URI",
            "type": "event"
        },
        {
            "anonymous": false,
            "inputs": [
                {
                    "indexed": false,
                    "internalType": "address",
                    "name": "owner",
                    "type": "address"
                },
                {
                    "indexed": false,
                    "internalType": "uint256",
                    "name": "quantity",
                    "type": "uint256"
                },
                {
                    "indexed": false,
                    "internalType": "uint256",
                    "name": "totalSupply",
                    "type": "uint256"
                }
            ],
            "name": "mintEvent",
            "type": "event"
        },
        {
            "inputs": [],
            "name": "HOLDER_MAX",
            "outputs": [
                {
                    "internalType": "uint256",
                    "name": "",
                    "type": "uint256"
                }
            ],
            "stateMutability": "view",
            "type": "function"
        },
        {
            "inputs": [],
            "name": "MAX_TOKEN",
            "outputs": [
                {
                    "internalType": "uint256",
                    "name": "",
                    "type": "uint256"
                }
            ],
            "stateMutability": "view",
            "type": "function"
        },
        {
            "inputs": [],
            "name": "PRICE",
            "outputs": [
                {
                    "internalType": "uint256",
                    "name": "",
                    "type": "uint256"
                }
            ],
            "stateMutability": "view",
            "type": "function"
        },
        {
            "inputs": [
                {
                    "internalType": "address",
                    "name": "account",
                    "type": "address"
                },
                {
                    "internalType": "uint256",
                    "name": "id",
                    "type": "uint256"
                }
            ],
            "name": "balanceOf",
            "outputs": [
                {
                    "internalType": "uint256",
                    "name": "",
                    "type": "uint256"
                }
            ],
            "stateMutability": "view",
            "type": "function"
        },
        {
            "inputs": [
                {
                    "internalType": "address[]",
                    "name": "accounts",
                    "type": "address[]"
                },
                {
                    "internalType": "uint256[]",
                    "name": "ids",
                    "type": "uint256[]"
                }
            ],
            "name": "balanceOfBatch",
            "outputs": [
                {
                    "internalType": "uint256[]",
                    "name": "",
                    "type": "uint256[]"
                }
            ],
            "stateMutability": "view",
            "type": "function"
        },
        {
            "inputs": [
                {
                    "internalType": "address",
                    "name": "account",
                    "type": "address"
                },
                {
                    "internalType": "uint256",
                    "name": "quantity",
                    "type": "uint256"
                }
            ],
            "name": "burn",
            "outputs": [],
            "stateMutability": "nonpayable",
            "type": "function"
        },
        {
            "inputs": [],
            "name": "burnStarted",
            "outputs": [
                {
                    "internalType": "bool",
                    "name": "",
                    "type": "bool"
                }
            ],
            "stateMutability": "view",
            "type": "function"
        },
        {
            "inputs": [
                {
                    "internalType": "address",
                    "name": "to",
                    "type": "address"
                },
                {
                    "internalType": "uint256",
                    "name": "quantity",
                    "type": "uint256"
                }
            ],
            "name": "giveaway",
            "outputs": [],
            "stateMutability": "nonpayable",
            "type": "function"
        },
        {
            "inputs": [
                {
                    "internalType": "address",
                    "name": "",
                    "type": "address"
                }
            ],
            "name": "hasMint",
            "outputs": [
                {
                    "internalType": "uint256",
                    "name": "",
                    "type": "uint256"
                }
            ],
            "stateMutability": "view",
            "type": "function"
        },
        {
            "inputs": [],
            "name": "hasSaleStarted",
            "outputs": [
                {
                    "internalType": "bool",
                    "name": "",
                    "type": "bool"
                }
            ],
            "stateMutability": "view",
            "type": "function"
        },
        {
            "inputs": [
                {
                    "internalType": "address",
                    "name": "account",
                    "type": "address"
                },
                {
                    "internalType": "address",
                    "name": "operator",
                    "type": "address"
                }
            ],
            "name": "isApprovedForAll",
            "outputs": [
                {
                    "internalType": "bool",
                    "name": "",
                    "type": "bool"
                }
            ],
            "stateMutability": "view",
            "type": "function"
        },
        {
            "inputs": [
                {
                    "internalType": "uint256",
                    "name": "quantity",
                    "type": "uint256"
                },
                {
                    "internalType": "uint256",
                    "name": "maxQuantity",
                    "type": "uint256"
                },
                {
                    "internalType": "bytes",
                    "name": "SIGNATURE",
                    "type": "bytes"
                }
            ],
            "name": "mintNFT",
            "outputs": [],
            "stateMutability": "payable",
            "type": "function"
        },
        {
            "inputs": [],
            "name": "name",
            "outputs": [
                {
                    "internalType": "string",
                    "name": "",
                    "type": "string"
                }
            ],
            "stateMutability": "view",
            "type": "function"
        },
        {
            "inputs": [],
            "name": "owner",
            "outputs": [
                {
                    "internalType": "address",
                    "name": "",
                    "type": "address"
                }
            ],
            "stateMutability": "view",
            "type": "function"
        },
        {
            "inputs": [],
            "name": "renounceOwnership",
            "outputs": [],
            "stateMutability": "nonpayable",
            "type": "function"
        },
        {
            "inputs": [
                {
                    "internalType": "address",
                    "name": "from",
                    "type": "address"
                },
                {
                    "internalType": "address",
                    "name": "to",
                    "type": "address"
                },
                {
                    "internalType": "uint256[]",
                    "name": "ids",
                    "type": "uint256[]"
                },
                {
                    "internalType": "uint256[]",
                    "name": "amounts",
                    "type": "uint256[]"
                },
                {
                    "internalType": "bytes",
                    "name": "data",
                    "type": "bytes"
                }
            ],
            "name": "safeBatchTransferFrom",
            "outputs": [],
            "stateMutability": "nonpayable",
            "type": "function"
        },
        {
            "inputs": [
                {
                    "internalType": "address",
                    "name": "from",
                    "type": "address"
                },
                {
                    "internalType": "address",
                    "name": "to",
                    "type": "address"
                },
                {
                    "internalType": "uint256",
                    "name": "id",
                    "type": "uint256"
                },
                {
                    "internalType": "uint256",
                    "name": "amount",
                    "type": "uint256"
                },
                {
                    "internalType": "bytes",
                    "name": "data",
                    "type": "bytes"
                }
            ],
            "name": "safeTransferFrom",
            "outputs": [],
            "stateMutability": "nonpayable",
            "type": "function"
        },
        {
            "inputs": [],
            "name": "saleTimestamp",
            "outputs": [
                {
                    "internalType": "uint256",
                    "name": "",
                    "type": "uint256"
                }
            ],
            "stateMutability": "view",
            "type": "function"
        },
        {
            "inputs": [
                {
                    "internalType": "address",
                    "name": "operator",
                    "type": "address"
                },
                {
                    "internalType": "bool",
                    "name": "approved",
                    "type": "bool"
                }
            ],
            "name": "setApprovalForAll",
            "outputs": [],
            "stateMutability": "nonpayable",
            "type": "function"
        },
        {
            "inputs": [
                {
                    "internalType": "string",
                    "name": "baseURI",
                    "type": "string"
                }
            ],
            "name": "setBaseURI",
            "outputs": [],
            "stateMutability": "nonpayable",
            "type": "function"
        },
        {
            "inputs": [
                {
                    "internalType": "bool",
                    "name": "_burnStarted",
                    "type": "bool"
                }
            ],
            "name": "setBurn",
            "outputs": [],
            "stateMutability": "nonpayable",
            "type": "function"
        },
        {
            "inputs": [
                {
                    "internalType": "uint256",
                    "name": "_MAX_TOKEN",
                    "type": "uint256"
                },
                {
                    "internalType": "uint256",
                    "name": "_HOLDER_MAX",
                    "type": "uint256"
                }
            ],
            "name": "setMAX_TOKEN",
            "outputs": [],
            "stateMutability": "nonpayable",
            "type": "function"
        },
        {
            "inputs": [
                {
                    "internalType": "bool",
                    "name": "_hasSaleStarted",
                    "type": "bool"
                },
                {
                    "internalType": "uint256",
                    "name": "_saleTimestamp",
                    "type": "uint256"
                },
                {
                    "internalType": "bool",
                    "name": "_whitelistSwitch",
                    "type": "bool"
                }
            ],
            "name": "setSaleTime",
            "outputs": [],
            "stateMutability": "nonpayable",
            "type": "function"
        },
        {
            "inputs": [
                {
                    "internalType": "address",
                    "name": "_treasury",
                    "type": "address"
                }
            ],
            "name": "setTreasury",
            "outputs": [],
            "stateMutability": "nonpayable",
            "type": "function"
        },
        {
            "inputs": [
                {
                    "internalType": "uint256",
                    "name": "_price",
                    "type": "uint256"
                }
            ],
            "name": "set_PRICE",
            "outputs": [],
            "stateMutability": "nonpayable",
            "type": "function"
        },
        {
            "inputs": [
                {
                    "internalType": "bytes4",
                    "name": "interfaceId",
                    "type": "bytes4"
                }
            ],
            "name": "supportsInterface",
            "outputs": [
                {
                    "internalType": "bool",
                    "name": "",
                    "type": "bool"
                }
            ],
            "stateMutability": "view",
            "type": "function"
        },
        {
            "inputs": [],
            "name": "symbol",
            "outputs": [
                {
                    "internalType": "string",
                    "name": "",
                    "type": "string"
                }
            ],
            "stateMutability": "view",
            "type": "function"
        },
        {
            "inputs": [],
            "name": "totalSupply",
            "outputs": [
                {
                    "internalType": "uint256",
                    "name": "",
                    "type": "uint256"
                }
            ],
            "stateMutability": "view",
            "type": "function"
        },
        {
            "inputs": [
                {
                    "internalType": "address",
                    "name": "newOwner",
                    "type": "address"
                }
            ],
            "name": "transferOwnership",
            "outputs": [],
            "stateMutability": "nonpayable",
            "type": "function"
        },
        {
            "inputs": [],
            "name": "treasury",
            "outputs": [
                {
                    "internalType": "address",
                    "name": "",
                    "type": "address"
                }
            ],
            "stateMutability": "view",
            "type": "function"
        },
        {
            "inputs": [
                {
                    "internalType": "uint256",
                    "name": "",
                    "type": "uint256"
                }
            ],
            "name": "uri",
            "outputs": [
                {
                    "internalType": "string",
                    "name": "",
                    "type": "string"
                }
            ],
            "stateMutability": "view",
            "type": "function"
        },
        {
            "inputs": [
                {
                    "internalType": "uint256",
                    "name": "maxQuantity",
                    "type": "uint256"
                },
                {
                    "internalType": "bytes",
                    "name": "SIGNATURE",
                    "type": "bytes"
                }
            ],
            "name": "verify",
            "outputs": [
                {
                    "internalType": "bool",
                    "name": "",
                    "type": "bool"
                }
            ],
            "stateMutability": "view",
            "type": "function"
        },
        {
            "inputs": [],
            "name": "whitelistSwitch",
            "outputs": [
                {
                    "internalType": "bool",
                    "name": "",
                    "type": "bool"
                }
            ],
            "stateMutability": "view",
            "type": "function"
        },
        {
            "inputs": [],
            "name": "withdrawAll",
            "outputs": [],
            "stateMutability": "payable",
            "type": "function"
        }
    ],
    "bytecode": "610160604052600261012081905261212160f11b6101409081526200002891600491906200022f565b5060408051808201909152600280825261212160f11b602090920191825262000054916005916200022f565b5061271060065560026007556702c68af0bb1400006008556361e530106009556000600a55600b80546001600160b81b031916765279246e3626cebe71a4c181382a50a71d2a4156000101179055348015620000af57600080fd5b5060405180608001604052806050815260200162002f87605091396040518060400160405280600c81526020016b426c6f636b2042616e616e6160a01b815250604051806040016040528060058152602001640312e302e360dc1b8152506200012762000121620001c260201b60201c565b620001c6565b815160209283012081519183019190912060c082815260e08290524660a0818152604080517f8b73c3c69bb8fe3d512ecc4cf759cc79239f7b179b0ffacaa9a75d522b39400f81890181905281830197909752606081019590955260808086019390935230858301528051808603909201825293909201909252805193019290922090915261010052620001bb8162000216565b5062000312565b3390565b600080546001600160a01b038381166001600160a01b0319831681178455604051919092169283917f8be0079c531659141344cd1fd0a4f28419497f9722a3daafe3b4186f6b6457e09190a35050565b80516200022b9060039060208401906200022f565b5050565b8280546200023d90620002d5565b90600052602060002090601f016020900481019282620002615760008555620002ac565b82601f106200027c57805160ff1916838001178555620002ac565b82800160010185558215620002ac579182015b82811115620002ac5782518255916020019190600101906200028f565b50620002ba929150620002be565b5090565b5b80821115620002ba5760008155600101620002bf565b600181811c90821680620002ea57607f821691505b602082108114156200030c57634e487b7160e01b600052602260045260246000fd5b50919050565b60805160a05160c05160e05161010051612c30620003576000396000611dbd01526000611e0c01526000611de701526000611d6b01526000611d940152612c306000f3fe6080604052600436106101f85760003560e01c806385852ce41161010d578063c1c25bc5116100a0578063e985e9c51161006f578063e985e9c514610587578063f0f44260146105d0578063f242432a146105f0578063f2fde38b14610610578063fbf76eb21461063057600080fd5b8063c1c25bc514610511578063c78225981461053e578063d46c281114610554578063dfadaed71461056757600080fd5b80639dc29fac116100dc5780639dc29fac14610492578063a22cb465146104b2578063bcd25ee5146104d2578063bd55cf0d146104f157600080fd5b806385852ce4146104295780638d859f3e146104495780638da5cb5b1461045f57806395d89b411461047d57600080fd5b80632eb2c2d61161019057806361d027b31161015f57806361d027b3146103975780636456c205146103d65780636e1bd323146103f6578063715018a61461040c578063853828b61461042157600080fd5b80632eb2c2d61461030a57806339cce68e1461032a5780634e1273f41461034a57806355f804b31461037757600080fd5b80630e89341c116101cc5780630e89341c146102a4578063155d27dc146102c457806318160ddd146102da5780631c8b232d146102f057600080fd5b8062fdd58e146101fd57806301ffc9a714610230578063050225ea1461026057806306fdde0314610282575b600080fd5b34801561020957600080fd5b5061021d610218366004612259565b610650565b6040519081526020015b60405180910390f35b34801561023c57600080fd5b5061025061024b366004612299565b6106e9565b6040519015158152602001610227565b34801561026c57600080fd5b5061028061027b366004612259565b61073b565b005b34801561028e57600080fd5b506102976108e7565b6040516102279190612303565b3480156102b057600080fd5b506102976102bf366004612316565b610979565b3480156102d057600080fd5b5061021d60075481565b3480156102e657600080fd5b5061021d600a5481565b3480156102fc57600080fd5b50600b546102509060ff1681565b34801561031657600080fd5b50610280610325366004612485565b610a0d565b34801561033657600080fd5b5061028061034536600461253f565b610aa4565b34801561035657600080fd5b5061036a61036536600461257b565b610afd565b6040516102279190612681565b34801561038357600080fd5b50610280610392366004612694565b610c27565b3480156103a357600080fd5b50600b546103be90630100000090046001600160a01b031681565b6040516001600160a01b039091168152602001610227565b3480156103e257600080fd5b506102806103f1366004612316565b610c5d565b34801561040257600080fd5b5061021d60065481565b34801561041857600080fd5b50610280610c8c565b610280610cc2565b34801561043557600080fd5b506102506104443660046126e5565b610d26565b34801561045557600080fd5b5061021d60085481565b34801561046b57600080fd5b506000546001600160a01b03166103be565b34801561048957600080fd5b50610297610dc7565b34801561049e57600080fd5b506102806104ad366004612259565b610dd6565b3480156104be57600080fd5b506102806104cd366004612722565b610eac565b3480156104de57600080fd5b50600b5461025090610100900460ff1681565b3480156104fd57600080fd5b5061028061050c366004612755565b610f83565b34801561051d57600080fd5b5061021d61052c366004612770565b600c6020526000908152604090205481565b34801561054a57600080fd5b5061021d60095481565b61028061056236600461278b565b610fc9565b34801561057357600080fd5b506102806105823660046127db565b61128e565b34801561059357600080fd5b506102506105a23660046127fd565b6001600160a01b03918216600090815260026020908152604080832093909416825291909152205460ff1690565b3480156105dc57600080fd5b506102806105eb366004612770565b6112c3565b3480156105fc57600080fd5b5061028061060b366004612827565b61136f565b34801561061c57600080fd5b5061028061062b366004612770565b6113f6565b34801561063c57600080fd5b50600b546102509062010000900460ff1681565b60006001600160a01b0383166106c15760405162461bcd60e51b815260206004820152602b60248201527f455243313135353a2062616c616e636520717565727920666f7220746865207a60448201526a65726f206164647265737360a81b60648201526084015b60405180910390fd5b5060009081526001602090815260408083206001600160a01b03949094168352929052205490565b60006001600160e01b03198216636cdb3d1360e11b148061071a57506001600160e01b031982166303a24d0760e21b145b8061073557506301ffc9a760e01b6001600160e01b03198316145b92915050565b6000546001600160a01b031633146107655760405162461bcd60e51b81526004016106b89061288c565b600654600a54610775908361148e565b11156107b85760405162461bcd60e51b815260206004820152601260248201527122bc31b2b2b2399026a0ac2faa27a5a2a71760711b60448201526064016106b8565b6000811180156107ec57506007546001600160a01b0383166000908152600c60205260409020546107e9908361148e565b11155b6108305760405162461bcd60e51b815260206004820152601560248201527422bc31b2b2b2399036b0bc1038bab0b73a34ba3c9760591b60448201526064016106b8565b61084c82600183604051806020016040528060008152506114a1565b6001600160a01b0382166000908152600c602052604090205461086f908261148e565b6001600160a01b0383166000908152600c6020526040902055600a54610895908261148e565b600a819055604080516001600160a01b03851681526020810184905280820192909252517f9670c8b300c38cd3db8d3f9429dd902e67f418c4dd193e2497f06d20efc795609181900360600190a15050565b6060600480546108f6906128c1565b80601f0160208091040260200160405190810160405280929190818152602001828054610922906128c1565b801561096f5780601f106109445761010080835404028352916020019161096f565b820191906000526020600020905b81548152906001019060200180831161095257829003601f168201915b5050505050905090565b606060038054610988906128c1565b80601f01602080910402602001604051908101604052809291908181526020018280546109b4906128c1565b8015610a015780601f106109d657610100808354040283529160200191610a01565b820191906000526020600020905b8154815290600101906020018083116109e457829003601f168201915b50505050509050919050565b6001600160a01b038516331480610a295750610a2985336105a2565b610a905760405162461bcd60e51b815260206004820152603260248201527f455243313135353a207472616e736665722063616c6c6572206973206e6f74206044820152711bdddb995c881b9bdc88185c1c1c9bdd995960721b60648201526084016106b8565b610a9d85858585856115ad565b5050505050565b6000546001600160a01b03163314610ace5760405162461bcd60e51b81526004016106b89061288c565b600b80546009939093559015156101000261ff00199315159390931661ffff1990921691909117919091179055565b60608151835114610b625760405162461bcd60e51b815260206004820152602960248201527f455243313135353a206163636f756e747320616e6420696473206c656e677468604482015268040dad2e6dac2e8c6d60bb1b60648201526084016106b8565b6000835167ffffffffffffffff811115610b7e57610b7e61232f565b604051908082528060200260200182016040528015610ba7578160200160208202803683370190505b50905060005b8451811015610c1f57610bf2858281518110610bcb57610bcb6128fc565b6020026020010151858381518110610be557610be56128fc565b6020026020010151610650565b828281518110610c0457610c046128fc565b6020908102919091010152610c1881612928565b9050610bad565b509392505050565b6000546001600160a01b03163314610c515760405162461bcd60e51b81526004016106b89061288c565b610c5a8161178d565b50565b6000546001600160a01b03163314610c875760405162461bcd60e51b81526004016106b89061288c565b600855565b6000546001600160a01b03163314610cb65760405162461bcd60e51b81526004016106b89061288c565b610cc060006117a0565b565b6000546001600160a01b03163314610cec5760405162461bcd60e51b81526004016106b89061288c565b600b546040516001600160a01b03630100000090920491909116904780156108fc02916000818181858888f19350505050610cc057600080fd5b600080610d97610d917f182854de6a51f3818344a7eb784b9d55c1e6d2d20c9f9aea309f5daaaaddfec1336040805160208101939093526001600160a01b039091169082015260608101879052608001604051602081830303815290604052805190602001206117f0565b8461183e565b9050806001600160a01b0316610db56000546001600160a01b031690565b6001600160a01b031614949350505050565b6060600580546108f6906128c1565b600b5462010000900460ff161515600114610e2a5760405162461bcd60e51b8152602060048201526014602482015273213ab937103430b9b713ba1039ba30b93a32b21760611b60448201526064016106b8565b6001600160a01b038216331480610e465750610e4682336105a2565b610e9c5760405162461bcd60e51b815260206004820152602160248201527f43616c6c6572206973206e6f74206f776e6572206e6f7220617070726f7665646044820152601760f91b60648201526084016106b8565b610ea88260018361185a565b5050565b336001600160a01b0383161415610f175760405162461bcd60e51b815260206004820152602960248201527f455243313135353a2073657474696e6720617070726f76616c20737461747573604482015268103337b91039b2b63360b91b60648201526084016106b8565b3360008181526002602090815260408083206001600160a01b03871680855290835292819020805460ff191686151590811790915590519081529192917f17307eab39ab6107e8899845ad3d59bd9653f200f220920489ca2b5937696c31910160405180910390a35050565b6000546001600160a01b03163314610fad5760405162461bcd60e51b81526004016106b89061288c565b600b8054911515620100000262ff000019909216919091179055565b600b5460ff1615156001146110125760405162461bcd60e51b815260206004820152600f60248201526e53414c455f4e4f545f41435449564560881b60448201526064016106b8565b6009544210156110575760405162461bcd60e51b815260206004820152601060248201526f4e4f545f494e5f53414c455f54494d4560801b60448201526064016106b8565b600b5460ff610100909104161515600114156110c3576110778282610d26565b6110c35760405162461bcd60e51b815260206004820152601b60248201527f4e6f7420656c696769626c6520666f722077686974656c6973742e000000000060448201526064016106b8565b600654600a546110d3908561148e565b11156111165760405162461bcd60e51b815260206004820152601260248201527122bc31b2b2b2399026a0ac2faa27a5a2a71760711b60448201526064016106b8565b6000831180156111415750600754336000908152600c602052604090205461113e908561148e565b11155b6111855760405162461bcd60e51b815260206004820152601560248201527422bc31b2b2b2399036b0bc1038bab0b73a34ba3c9760591b60448201526064016106b8565b60085461119290846119d8565b34146111f15760405162461bcd60e51b815260206004820152602860248201527f45746865722076616c75652073656e74206973206e6f7420657175616c2074686044820152673290383934b1b29760c11b60648201526084016106b8565b61120d33600185604051806020016040528060008152506114a1565b336000908152600c6020526040902054611227908461148e565b336000908152600c6020526040902055600a54611244908461148e565b600a819055604080513381526020810186905280820192909252517f9670c8b300c38cd3db8d3f9429dd902e67f418c4dd193e2497f06d20efc795609181900360600190a1505050565b6000546001600160a01b031633146112b85760405162461bcd60e51b81526004016106b89061288c565b600691909155600755565b6000546001600160a01b031633146112ed5760405162461bcd60e51b81526004016106b89061288c565b600b54630100000090046001600160a01b03166113435760405162461bcd60e51b815260206004820152601460248201527353455454494e475f5a45524f5f4144445245535360601b60448201526064016106b8565b600b80546001600160a01b039092166301000000026301000000600160b81b0319909216919091179055565b6001600160a01b03851633148061138b575061138b85336105a2565b6113e95760405162461bcd60e51b815260206004820152602960248201527f455243313135353a2063616c6c6572206973206e6f74206f776e6572206e6f7260448201526808185c1c1c9bdd995960ba1b60648201526084016106b8565b610a9d85858585856119e4565b6000546001600160a01b031633146114205760405162461bcd60e51b81526004016106b89061288c565b6001600160a01b0381166114855760405162461bcd60e51b815260206004820152602660248201527f4f776e61626c653a206e6577206f776e657220697320746865207a65726f206160448201526564647265737360d01b60648201526084016106b8565b610c5a816117a0565b600061149a8284612943565b9392505050565b6001600160a01b0384166115015760405162461bcd60e51b815260206004820152602160248201527f455243313135353a206d696e7420746f20746865207a65726f206164647265736044820152607360f81b60648201526084016106b8565b3361151b8160008761151288611b05565b610a9d88611b05565b60008481526001602090815260408083206001600160a01b03891684529091528120805485929061154d908490612943565b909155505060408051858152602081018590526001600160a01b0380881692600092918516917fc3d58168c5ae7397731d063d5bbf3d657854427343f4c083240f7aacaa2d0f62910160405180910390a4610a9d81600087878787611b50565b815183511461160f5760405162461bcd60e51b815260206004820152602860248201527f455243313135353a2069647320616e6420616d6f756e7473206c656e677468206044820152670dad2e6dac2e8c6d60c31b60648201526084016106b8565b6001600160a01b0384166116355760405162461bcd60e51b81526004016106b89061295b565b3360005b845181101561171f576000858281518110611656576116566128fc565b602002602001015190506000858381518110611674576116746128fc565b60209081029190910181015160008481526001835260408082206001600160a01b038e1683529093529190912054909150818110156116c55760405162461bcd60e51b81526004016106b8906129a0565b60008381526001602090815260408083206001600160a01b038e8116855292528083208585039055908b16825281208054849290611704908490612943565b925050819055505050508061171890612928565b9050611639565b50846001600160a01b0316866001600160a01b0316826001600160a01b03167f4a39dc06d4c0dbc64b70af90fd698a233a518aa5d07e595d983b8c0526c8f7fb878760405161176f9291906129ea565b60405180910390a4611785818787878787611cac565b505050505050565b8051610ea89060039060208401906121a4565b600080546001600160a01b038381166001600160a01b0319831681178455604051919092169283917f8be0079c531659141344cd1fd0a4f28419497f9722a3daafe3b4186f6b6457e09190a35050565b60006107356117fd611d67565b8360405161190160f01b6020820152602281018390526042810182905260009060620160405160208183030381529060405280519060200120905092915050565b600080600061184d8585611e5d565b91509150610c1f81611ecd565b6001600160a01b0383166118bc5760405162461bcd60e51b815260206004820152602360248201527f455243313135353a206275726e2066726f6d20746865207a65726f206164647260448201526265737360e81b60648201526084016106b8565b336118ec818560006118cd87611b05565b6118d687611b05565b5050604080516020810190915260009052505050565b60008381526001602090815260408083206001600160a01b03881684529091529020548281101561196b5760405162461bcd60e51b8152602060048201526024808201527f455243313135353a206275726e20616d6f756e7420657863656564732062616c604482015263616e636560e01b60648201526084016106b8565b60008481526001602090815260408083206001600160a01b03898116808652918452828520888703905582518981529384018890529092908616917fc3d58168c5ae7397731d063d5bbf3d657854427343f4c083240f7aacaa2d0f62910160405180910390a45050505050565b600061149a8284612a18565b6001600160a01b038416611a0a5760405162461bcd60e51b81526004016106b89061295b565b33611a1a81878761151288611b05565b60008481526001602090815260408083206001600160a01b038a16845290915290205483811015611a5d5760405162461bcd60e51b81526004016106b8906129a0565b60008581526001602090815260408083206001600160a01b038b8116855292528083208785039055908816825281208054869290611a9c908490612943565b909155505060408051868152602081018690526001600160a01b03808916928a821692918616917fc3d58168c5ae7397731d063d5bbf3d657854427343f4c083240f7aacaa2d0f62910160405180910390a4611afc828888888888611b50565b50505050505050565b60408051600180825281830190925260609160009190602080830190803683370190505090508281600081518110611b3f57611b3f6128fc565b602090810291909101015292915050565b6001600160a01b0384163b156117855760405163f23a6e6160e01b81526001600160a01b0385169063f23a6e6190611b949089908990889088908890600401612a37565b6020604051808303816000875af1925050508015611bcf575060408051601f3d908101601f19168201909252611bcc91810190612a7c565b60015b611c7c57611bdb612a99565b806308c379a01415611c155750611bf0612ab4565b80611bfb5750611c17565b8060405162461bcd60e51b81526004016106b89190612303565b505b60405162461bcd60e51b815260206004820152603460248201527f455243313135353a207472616e7366657220746f206e6f6e20455243313135356044820152732932b1b2b4bb32b91034b6b83632b6b2b73a32b960611b60648201526084016106b8565b6001600160e01b0319811663f23a6e6160e01b14611afc5760405162461bcd60e51b81526004016106b890612b3e565b6001600160a01b0384163b156117855760405163bc197c8160e01b81526001600160a01b0385169063bc197c8190611cf09089908990889088908890600401612b86565b6020604051808303816000875af1925050508015611d2b575060408051601f3d908101601f19168201909252611d2891810190612a7c565b60015b611d3757611bdb612a99565b6001600160e01b0319811663bc197c8160e01b14611afc5760405162461bcd60e51b81526004016106b890612b3e565b60007f0000000000000000000000000000000000000000000000000000000000000000461415611db657507f000000000000000000000000000000000000000000000000000000000000000090565b50604080517f00000000000000000000000000000000000000000000000000000000000000006020808301919091527f0000000000000000000000000000000000000000000000000000000000000000828401527f000000000000000000000000000000000000000000000000000000000000000060608301524660808301523060a0808401919091528351808403909101815260c0909201909252805191012090565b90565b600080825160411415611e945760208301516040840151606085015160001a611e8887828585612088565b94509450505050611ec6565b825160401415611ebe5760208301516040840151611eb3868383612175565b935093505050611ec6565b506000905060025b9250929050565b6000816004811115611ee157611ee1612be4565b1415611eea5750565b6001816004811115611efe57611efe612be4565b1415611f4c5760405162461bcd60e51b815260206004820152601860248201527f45434453413a20696e76616c6964207369676e6174757265000000000000000060448201526064016106b8565b6002816004811115611f6057611f60612be4565b1415611fae5760405162461bcd60e51b815260206004820152601f60248201527f45434453413a20696e76616c6964207369676e6174757265206c656e6774680060448201526064016106b8565b6003816004811115611fc257611fc2612be4565b141561201b5760405162461bcd60e51b815260206004820152602260248201527f45434453413a20696e76616c6964207369676e6174757265202773272076616c604482015261756560f01b60648201526084016106b8565b600481600481111561202f5761202f612be4565b1415610c5a5760405162461bcd60e51b815260206004820152602260248201527f45434453413a20696e76616c6964207369676e6174757265202776272076616c604482015261756560f01b60648201526084016106b8565b6000807f7fffffffffffffffffffffffffffffff5d576e7357a4501ddfe92f46681b20a08311156120bf575060009050600361216c565b8460ff16601b141580156120d757508460ff16601c14155b156120e8575060009050600461216c565b6040805160008082526020820180845289905260ff881692820192909252606081018690526080810185905260019060a0016020604051602081039080840390855afa15801561213c573d6000803e3d6000fd5b5050604051601f1901519150506001600160a01b0381166121655760006001925092505061216c565b9150600090505b94509492505050565b6000806001600160ff1b03831660ff84901c601b0161219687828885612088565b935093505050935093915050565b8280546121b0906128c1565b90600052602060002090601f0160209004810192826121d25760008555612218565b82601f106121eb57805160ff1916838001178555612218565b82800160010185558215612218579182015b828111156122185782518255916020019190600101906121fd565b50612224929150612228565b5090565b5b808211156122245760008155600101612229565b80356001600160a01b038116811461225457600080fd5b919050565b6000806040838503121561226c57600080fd5b6122758361223d565b946020939093013593505050565b6001600160e01b031981168114610c5a57600080fd5b6000602082840312156122ab57600080fd5b813561149a81612283565b6000815180845260005b818110156122dc576020818501810151868301820152016122c0565b818111156122ee576000602083870101525b50601f01601f19169290920160200192915050565b60208152600061149a60208301846122b6565b60006020828403121561232857600080fd5b5035919050565b634e487b7160e01b600052604160045260246000fd5b601f8201601f1916810167ffffffffffffffff8111828210171561236b5761236b61232f565b6040525050565b600067ffffffffffffffff82111561238c5761238c61232f565b5060051b60200190565b600082601f8301126123a757600080fd5b813560206123b482612372565b6040516123c18282612345565b83815260059390931b85018201928281019150868411156123e157600080fd5b8286015b848110156123fc57803583529183019183016123e5565b509695505050505050565b600067ffffffffffffffff8311156124215761242161232f565b604051612438601f8501601f191660200182612345565b80915083815284848401111561244d57600080fd5b83836020830137600060208583010152509392505050565b600082601f83011261247657600080fd5b61149a83833560208501612407565b600080600080600060a0868803121561249d57600080fd5b6124a68661223d565b94506124b46020870161223d565b9350604086013567ffffffffffffffff808211156124d157600080fd5b6124dd89838a01612396565b945060608801359150808211156124f357600080fd5b6124ff89838a01612396565b9350608088013591508082111561251557600080fd5b5061252288828901612465565b9150509295509295909350565b8035801515811461225457600080fd5b60008060006060848603121561255457600080fd5b61255d8461252f565b9250602084013591506125726040850161252f565b90509250925092565b6000806040838503121561258e57600080fd5b823567ffffffffffffffff808211156125a657600080fd5b818501915085601f8301126125ba57600080fd5b813560206125c782612372565b6040516125d48282612345565b83815260059390931b85018201928281019150898411156125f457600080fd5b948201945b838610156126195761260a8661223d565b825294820194908201906125f9565b9650508601359250508082111561262f57600080fd5b5061263c85828601612396565b9150509250929050565b600081518084526020808501945080840160005b838110156126765781518752958201959082019060010161265a565b509495945050505050565b60208152600061149a6020830184612646565b6000602082840312156126a657600080fd5b813567ffffffffffffffff8111156126bd57600080fd5b8201601f810184136126ce57600080fd5b6126dd84823560208401612407565b949350505050565b600080604083850312156126f857600080fd5b82359150602083013567ffffffffffffffff81111561271657600080fd5b61263c85828601612465565b6000806040838503121561273557600080fd5b61273e8361223d565b915061274c6020840161252f565b90509250929050565b60006020828403121561276757600080fd5b61149a8261252f565b60006020828403121561278257600080fd5b61149a8261223d565b6000806000606084860312156127a057600080fd5b8335925060208401359150604084013567ffffffffffffffff8111156127c557600080fd5b6127d186828701612465565b9150509250925092565b600080604083850312156127ee57600080fd5b50508035926020909101359150565b6000806040838503121561281057600080fd5b6128198361223d565b915061274c6020840161223d565b600080600080600060a0868803121561283f57600080fd5b6128488661223d565b94506128566020870161223d565b93506040860135925060608601359150608086013567ffffffffffffffff81111561288057600080fd5b61252288828901612465565b6020808252818101527f4f776e61626c653a2063616c6c6572206973206e6f7420746865206f776e6572604082015260600190565b600181811c908216806128d557607f821691505b602082108114156128f657634e487b7160e01b600052602260045260246000fd5b50919050565b634e487b7160e01b600052603260045260246000fd5b634e487b7160e01b600052601160045260246000fd5b600060001982141561293c5761293c612912565b5060010190565b6000821982111561295657612956612912565b500190565b60208082526025908201527f455243313135353a207472616e7366657220746f20746865207a65726f206164604082015264647265737360d81b606082015260800190565b6020808252602a908201527f455243313135353a20696e73756666696369656e742062616c616e636520666f60408201526939103a3930b739b332b960b11b606082015260800190565b6040815260006129fd6040830185612646565b8281036020840152612a0f8185612646565b95945050505050565b6000816000190483118215151615612a3257612a32612912565b500290565b6001600160a01b03868116825285166020820152604081018490526060810183905260a060808201819052600090612a71908301846122b6565b979650505050505050565b600060208284031215612a8e57600080fd5b815161149a81612283565b600060033d1115611e5a5760046000803e5060005160e01c90565b600060443d1015612ac25790565b6040516003193d81016004833e81513d67ffffffffffffffff8160248401118184111715612af257505050505090565b8285019150815181811115612b0a5750505050505090565b843d8701016020828501011115612b245750505050505090565b612b3360208286010187612345565b509095945050505050565b60208082526028908201527f455243313135353a204552433131353552656365697665722072656a656374656040820152676420746f6b656e7360c01b606082015260800190565b6001600160a01b0386811682528516602082015260a060408201819052600090612bb290830186612646565b8281036060840152612bc48186612646565b90508281036080840152612bd881856122b6565b98975050505050505050565b634e487b7160e01b600052602160045260246000fdfea26469706673582212201c1f75ec38bb097e9a2a0ceedaf0f0a8b30390e514f8a247c6765484761592cc64736f6c634300080c003368747470733a2f2f676174657761792e70696e6174612e636c6f75642f697066732f516d616b3753516d55726839756a63424c753644644a77595537577479703167783637697548465234776f4a376f",
    "sourcePath": "/home/alex/Blockchain/BlockBanana/contracts/BlockBanana.sol",
    "compiler": {
        "name": "solc",
        "version": "0.8.12+commit.f00d7308"
    },
    "functionHashes": {
        "HOLDER_MAX()": "155d27dc",
        "MAX_TOKEN()": "6e1bd323",
        "PRICE()": "8d859f3e",
        "balanceOf(address,uint256)": "00fdd58e",
        "balanceOfBatch(address[],uint256[])": "4e1273f4",
        "burn(address,uint256)": "9dc29fac",
        "burnStarted()": "fbf76eb2",
        "giveaway(address,uint256)": "050225ea",
        "hasMint(address)": "c1c25bc5",
        "hasSaleStarted()": "1c8b232d",
        "isApprovedForAll(address,address)": "e985e9c5",
        "mintNFT(uint256,uint256,bytes)": "d46c2811",
        "name()": "06fdde03",
        "owner()": "8da5cb5b",
        "renounceOwnership()": "715018a6",
        "safeBatchTransferFrom(address,address,uint256[],uint256[],bytes)": "2eb2c2d6",
        "safeTransferFrom(address,address,uint256,uint256,bytes)": "f242432a",
        "saleTimestamp()": "c7822598",
        "setApprovalForAll(address,bool)": "a22cb465",
        "setBaseURI(string)": "55f804b3",
        "setBurn(bool)": "bd55cf0d",
        "setMAX_TOKEN(uint256,uint256)": "dfadaed7",
        "setSaleTime(bool,uint256,bool)": "39cce68e",
        "setTreasury(address)": "f0f44260",
        "set_PRICE(uint256)": "6456c205",
        "supportsInterface(bytes4)": "01ffc9a7",
        "symbol()": "95d89b41",
        "totalSupply()": "18160ddd",
        "transferOwnership(address)": "f2fde38b",
        "treasury()": "61d027b3",
        "uri(uint256)": "0e89341c",
        "verify(uint256,bytes)": "85852ce4",
        "whitelistSwitch()": "bcd25ee5",
        "withdrawAll()": "853828b6"
    },
    "gasEstimates": {
        "creation": {
            "codeDepositCost": "2262400",
            "executionCost": "infinite",
            "totalCost": "infinite"
        },
        "external": {
            "HOLDER_MAX()": "2352",
            "MAX_TOKEN()": "2373",
            "PRICE()": "2352",
            "balanceOf(address,uint256)": "2721",
            "balanceOfBatch(address[],uint256[])": "infinite",
            "burn(address,uint256)": "infinite",
            "burnStarted()": "2453",
            "giveaway(address,uint256)": "infinite",
            "hasMint(address)": "2553",
            "hasSaleStarted()": "2422",
            "isApprovedForAll(address,address)": "infinite",
            "mintNFT(uint256,uint256,bytes)": "infinite",
            "name()": "infinite",
            "owner()": "2421",
            "renounceOwnership()": "28225",
            "safeBatchTransferFrom(address,address,uint256[],uint256[],bytes)": "infinite",
            "safeTransferFrom(address,address,uint256,uint256,bytes)": "infinite",
            "saleTimestamp()": "2351",
            "setApprovalForAll(address,bool)": "infinite",
            "setBaseURI(string)": "infinite",
            "setBurn(bool)": "26794",
            "setMAX_TOKEN(uint256,uint256)": "46710",
            "setSaleTime(bool,uint256,bool)": "infinite",
            "setTreasury(address)": "28934",
            "set_PRICE(uint256)": "24531",
            "supportsInterface(bytes4)": "590",
            "symbol()": "infinite",
            "totalSupply()": "2374",
            "transferOwnership(address)": "28419",
            "treasury()": "2393",
            "uri(uint256)": "infinite",
            "verify(uint256,bytes)": "infinite",
            "whitelistSwitch()": "2410",
            "withdrawAll()": "infinite"
        }
    }
}