{
  "address": "0x0B23118668235C07022271964c3Fbd8D8A16b30B",
  "abi": [
    {
      "inputs": [],
      "stateMutability": "nonpayable",
      "type": "constructor"
    },
    {
      "anonymous": false,
      "inputs": [
        {
          "indexed": true,
          "internalType": "address",
          "name": "account",
          "type": "address"
        },
        {
          "indexed": true,
          "internalType": "address",
          "name": "operator",
          "type": "address"
        },
        {
          "indexed": false,
          "internalType": "bool",
          "name": "approved",
          "type": "bool"
        }
      ],
      "name": "ApprovalForAll",
      "type": "event"
    },
    {
      "anonymous": false,
      "inputs": [
        {
          "indexed": true,
          "internalType": "address",
          "name": "previousOwner",
          "type": "address"
        },
        {
          "indexed": true,
          "internalType": "address",
          "name": "newOwner",
          "type": "address"
        }
      ],
      "name": "OwnershipTransferred",
      "type": "event"
    },
    {
      "anonymous": false,
      "inputs": [
        {
          "indexed": true,
          "internalType": "address",
          "name": "operator",
          "type": "address"
        },
        {
          "indexed": true,
          "internalType": "address",
          "name": "from",
          "type": "address"
        },
        {
          "indexed": true,
          "internalType": "address",
          "name": "to",
          "type": "address"
        },
        {
          "indexed": false,
          "internalType": "uint256[]",
          "name": "ids",
          "type": "uint256[]"
        },
        {
          "indexed": false,
          "internalType": "uint256[]",
          "name": "values",
          "type": "uint256[]"
        }
      ],
      "name": "TransferBatch",
      "type": "event"
    },
    {
      "anonymous": false,
      "inputs": [
        {
          "indexed": true,
          "internalType": "address",
          "name": "operator",
          "type": "address"
        },
        {
          "indexed": true,
          "internalType": "address",
          "name": "from",
          "type": "address"
        },
        {
          "indexed": true,
          "internalType": "address",
          "name": "to",
          "type": "address"
        },
        {
          "indexed": false,
          "internalType": "uint256",
          "name": "id",
          "type": "uint256"
        },
        {
          "indexed": false,
          "internalType": "uint256",
          "name": "value",
          "type": "uint256"
        }
      ],
      "name": "TransferSingle",
      "type": "event"
    },
    {
      "anonymous": false,
      "inputs": [
        {
          "indexed": false,
          "internalType": "string",
          "name": "value",
          "type": "string"
        },
        {
          "indexed": true,
          "internalType": "uint256",
          "name": "id",
          "type": "uint256"
        }
      ],
      "name": "URI",
      "type": "event"
    },
    {
      "anonymous": false,
      "inputs": [
        {
          "indexed": false,
          "internalType": "address",
          "name": "owner",
          "type": "address"
        },
        {
          "indexed": false,
          "internalType": "uint256",
          "name": "quantity",
          "type": "uint256"
        },
        {
          "indexed": false,
          "internalType": "uint256",
          "name": "totalSupply",
          "type": "uint256"
        }
      ],
      "name": "mintEvent",
      "type": "event"
    },
    {
      "inputs": [],
      "name": "MAX_TOKEN",
      "outputs": [
        {
          "internalType": "uint256",
          "name": "",
          "type": "uint256"
        }
      ],
      "stateMutability": "view",
      "type": "function"
    },
    {
      "inputs": [],
      "name": "PRICE",
      "outputs": [
        {
          "internalType": "uint256",
          "name": "",
          "type": "uint256"
        }
      ],
      "stateMutability": "view",
      "type": "function"
    },
    {
      "inputs": [
        {
          "internalType": "address",
          "name": "account",
          "type": "address"
        },
        {
          "internalType": "uint256",
          "name": "id",
          "type": "uint256"
        }
      ],
      "name": "balanceOf",
      "outputs": [
        {
          "internalType": "uint256",
          "name": "",
          "type": "uint256"
        }
      ],
      "stateMutability": "view",
      "type": "function"
    },
    {
      "inputs": [
        {
          "internalType": "address[]",
          "name": "accounts",
          "type": "address[]"
        },
        {
          "internalType": "uint256[]",
          "name": "ids",
          "type": "uint256[]"
        }
      ],
      "name": "balanceOfBatch",
      "outputs": [
        {
          "internalType": "uint256[]",
          "name": "",
          "type": "uint256[]"
        }
      ],
      "stateMutability": "view",
      "type": "function"
    },
    {
      "inputs": [
        {
          "internalType": "address",
          "name": "to",
          "type": "address"
        },
        {
          "internalType": "uint256",
          "name": "quantity",
          "type": "uint256"
        }
      ],
      "name": "burn",
      "outputs": [],
      "stateMutability": "nonpayable",
      "type": "function"
    },
    {
      "inputs": [
        {
          "internalType": "address",
          "name": "to",
          "type": "address"
        },
        {
          "internalType": "uint256",
          "name": "quantity",
          "type": "uint256"
        }
      ],
      "name": "giveaway",
      "outputs": [],
      "stateMutability": "nonpayable",
      "type": "function"
    },
    {
      "inputs": [
        {
          "internalType": "address",
          "name": "",
          "type": "address"
        }
      ],
      "name": "hasMint",
      "outputs": [
        {
          "internalType": "uint256",
          "name": "",
          "type": "uint256"
        }
      ],
      "stateMutability": "view",
      "type": "function"
    },
    {
      "inputs": [],
      "name": "hasSaleStarted",
      "outputs": [
        {
          "internalType": "bool",
          "name": "",
          "type": "bool"
        }
      ],
      "stateMutability": "view",
      "type": "function"
    },
    {
      "inputs": [
        {
          "internalType": "uint256",
          "name": "",
          "type": "uint256"
        },
        {
          "internalType": "uint256",
          "name": "",
          "type": "uint256"
        }
      ],
      "name": "idHolder",
      "outputs": [
        {
          "internalType": "address",
          "name": "",
          "type": "address"
        }
      ],
      "stateMutability": "view",
      "type": "function"
    },
    {
      "inputs": [
        {
          "internalType": "address",
          "name": "account",
          "type": "address"
        },
        {
          "internalType": "address",
          "name": "operator",
          "type": "address"
        }
      ],
      "name": "isApprovedForAll",
      "outputs": [
        {
          "internalType": "bool",
          "name": "",
          "type": "bool"
        }
      ],
      "stateMutability": "view",
      "type": "function"
    },
    {
      "inputs": [
        {
          "internalType": "uint256",
          "name": "quantity",
          "type": "uint256"
        },
        {
          "internalType": "uint256",
          "name": "maxQuantity",
          "type": "uint256"
        },
        {
          "internalType": "bytes",
          "name": "SIGNATURE",
          "type": "bytes"
        }
      ],
      "name": "mintNFT",
      "outputs": [],
      "stateMutability": "payable",
      "type": "function"
    },
    {
      "inputs": [],
      "name": "name",
      "outputs": [
        {
          "internalType": "string",
          "name": "",
          "type": "string"
        }
      ],
      "stateMutability": "view",
      "type": "function"
    },
    {
      "inputs": [],
      "name": "owner",
      "outputs": [
        {
          "internalType": "address",
          "name": "",
          "type": "address"
        }
      ],
      "stateMutability": "view",
      "type": "function"
    },
    {
      "inputs": [
        {
          "internalType": "uint256",
          "name": "id",
          "type": "uint256"
        }
      ],
      "name": "ownerOfToken",
      "outputs": [
        {
          "internalType": "address[]",
          "name": "",
          "type": "address[]"
        }
      ],
      "stateMutability": "view",
      "type": "function"
    },
    {
      "inputs": [],
      "name": "renounceOwnership",
      "outputs": [],
      "stateMutability": "nonpayable",
      "type": "function"
    },
    {
      "inputs": [
        {
          "internalType": "address",
          "name": "from",
          "type": "address"
        },
        {
          "internalType": "address",
          "name": "to",
          "type": "address"
        },
        {
          "internalType": "uint256[]",
          "name": "ids",
          "type": "uint256[]"
        },
        {
          "internalType": "uint256[]",
          "name": "amounts",
          "type": "uint256[]"
        },
        {
          "internalType": "bytes",
          "name": "data",
          "type": "bytes"
        }
      ],
      "name": "safeBatchTransferFrom",
      "outputs": [],
      "stateMutability": "nonpayable",
      "type": "function"
    },
    {
      "inputs": [
        {
          "internalType": "address",
          "name": "from",
          "type": "address"
        },
        {
          "internalType": "address",
          "name": "to",
          "type": "address"
        },
        {
          "internalType": "uint256",
          "name": "id",
          "type": "uint256"
        },
        {
          "internalType": "uint256",
          "name": "amount",
          "type": "uint256"
        },
        {
          "internalType": "bytes",
          "name": "data",
          "type": "bytes"
        }
      ],
      "name": "safeTransferFrom",
      "outputs": [],
      "stateMutability": "nonpayable",
      "type": "function"
    },
    {
      "inputs": [],
      "name": "saleTimestamp",
      "outputs": [
        {
          "internalType": "uint256",
          "name": "",
          "type": "uint256"
        }
      ],
      "stateMutability": "view",
      "type": "function"
    },
    {
      "inputs": [
        {
          "internalType": "address",
          "name": "operator",
          "type": "address"
        },
        {
          "internalType": "bool",
          "name": "approved",
          "type": "bool"
        }
      ],
      "name": "setApprovalForAll",
      "outputs": [],
      "stateMutability": "nonpayable",
      "type": "function"
    },
    {
      "inputs": [
        {
          "internalType": "string",
          "name": "baseURI",
          "type": "string"
        }
      ],
      "name": "setBaseURI",
      "outputs": [],
      "stateMutability": "nonpayable",
      "type": "function"
    },
    {
      "inputs": [
        {
          "internalType": "uint256",
          "name": "_MAX_TOKEN",
          "type": "uint256"
        }
      ],
      "name": "setMAX_TOKEN",
      "outputs": [],
      "stateMutability": "nonpayable",
      "type": "function"
    },
    {
      "inputs": [
        {
          "internalType": "bool",
          "name": "_hasSaleStarted",
          "type": "bool"
        },
        {
          "internalType": "uint256",
          "name": "_saleTimestamp",
          "type": "uint256"
        },
        {
          "internalType": "bool",
          "name": "_whitelistSwitch",
          "type": "bool"
        }
      ],
      "name": "setSaleTime",
      "outputs": [],
      "stateMutability": "nonpayable",
      "type": "function"
    },
    {
      "inputs": [
        {
          "internalType": "address",
          "name": "_treasury",
          "type": "address"
        }
      ],
      "name": "setTreasury",
      "outputs": [],
      "stateMutability": "nonpayable",
      "type": "function"
    },
    {
      "inputs": [
        {
          "internalType": "uint256",
          "name": "_price",
          "type": "uint256"
        }
      ],
      "name": "set_PRICE",
      "outputs": [],
      "stateMutability": "nonpayable",
      "type": "function"
    },
    {
      "inputs": [
        {
          "internalType": "bytes4",
          "name": "interfaceId",
          "type": "bytes4"
        }
      ],
      "name": "supportsInterface",
      "outputs": [
        {
          "internalType": "bool",
          "name": "",
          "type": "bool"
        }
      ],
      "stateMutability": "view",
      "type": "function"
    },
    {
      "inputs": [],
      "name": "symbol",
      "outputs": [
        {
          "internalType": "string",
          "name": "",
          "type": "string"
        }
      ],
      "stateMutability": "view",
      "type": "function"
    },
    {
      "inputs": [],
      "name": "totalSupply",
      "outputs": [
        {
          "internalType": "uint256",
          "name": "",
          "type": "uint256"
        }
      ],
      "stateMutability": "view",
      "type": "function"
    },
    {
      "inputs": [
        {
          "internalType": "address",
          "name": "newOwner",
          "type": "address"
        }
      ],
      "name": "transferOwnership",
      "outputs": [],
      "stateMutability": "nonpayable",
      "type": "function"
    },
    {
      "inputs": [],
      "name": "treasury",
      "outputs": [
        {
          "internalType": "address",
          "name": "",
          "type": "address"
        }
      ],
      "stateMutability": "view",
      "type": "function"
    },
    {
      "inputs": [
        {
          "internalType": "uint256",
          "name": "",
          "type": "uint256"
        }
      ],
      "name": "uri",
      "outputs": [
        {
          "internalType": "string",
          "name": "",
          "type": "string"
        }
      ],
      "stateMutability": "view",
      "type": "function"
    },
    {
      "inputs": [
        {
          "internalType": "uint256",
          "name": "maxQuantity",
          "type": "uint256"
        },
        {
          "internalType": "bytes",
          "name": "SIGNATURE",
          "type": "bytes"
        }
      ],
      "name": "verify",
      "outputs": [
        {
          "internalType": "bool",
          "name": "",
          "type": "bool"
        }
      ],
      "stateMutability": "view",
      "type": "function"
    },
    {
      "inputs": [],
      "name": "whitelistSwitch",
      "outputs": [
        {
          "internalType": "bool",
          "name": "",
          "type": "bool"
        }
      ],
      "stateMutability": "view",
      "type": "function"
    },
    {
      "inputs": [],
      "name": "withdrawAll",
      "outputs": [],
      "stateMutability": "payable",
      "type": "function"
    }
  ],
  "transactionHash": "0xf4fd25c34f763f084c3a81402be063917c578af07bf0a221d1ca8daa0519fc5e",
  "args": [],
  "numDeployments": 1,
  "solcInputHash": "eb85b809bee489302b5c045a38d376c2",
  "bytecode": "0x6101206040526040518060400160405280600281526020017f42420000000000000000000000000000000000000000000000000000000000008152506004908051906020019062000052929190620003b8565b506040518060400160405280600281526020017f424200000000000000000000000000000000000000000000000000000000000081525060059080519060200190620000a0929190620003b8565b506127106006556702c68af0bb1400006007556361e5301060085560006009556001600a60006101000a81548160ff0219169083151502179055506001600a60016101000a81548160ff02191690831515021790555073953c08e703978d00d992c920fe9104a4375de893600a60026101000a81548173ffffffffffffffffffffffffffffffffffffffff021916908373ffffffffffffffffffffffffffffffffffffffff1602179055503480156200015857600080fd5b5060405180608001604052806050815260200162005d14605091396040518060400160405280600c81526020017f426c6f636b2042616e616e6100000000000000000000000000000000000000008152506040518060400160405280600581526020017f312e302e30000000000000000000000000000000000000000000000000000000815250620001ff620001f36200029460201b60201c565b6200029c60201b60201c565b60008280519060200120905060008280519060200120905060007f8b73c3c69bb8fe3d512ecc4cf759cc79239f7b179b0ffacaa9a75d522b39400f90508260c081815250508160e081815250504660a08181525050620002678184846200036060201b60201c565b6080818152505080610100818152505050505050506200028d816200039c60201b60201c565b50620005a5565b600033905090565b60008060009054906101000a900473ffffffffffffffffffffffffffffffffffffffff169050816000806101000a81548173ffffffffffffffffffffffffffffffffffffffff021916908373ffffffffffffffffffffffffffffffffffffffff1602179055508173ffffffffffffffffffffffffffffffffffffffff168173ffffffffffffffffffffffffffffffffffffffff167f8be0079c531659141344cd1fd0a4f28419497f9722a3daafe3b4186f6b6457e060405160405180910390a35050565b600083838346306040516020016200037d9594939291906200049b565b6040516020818303038152906040528051906020012090509392505050565b8060039080519060200190620003b4929190620003b8565b5050565b828054620003c69062000540565b90600052602060002090601f016020900481019282620003ea576000855562000436565b82601f106200040557805160ff191683800117855562000436565b8280016001018555821562000436579182015b828111156200043557825182559160200191906001019062000418565b5b50905062000445919062000449565b5090565b5b80821115620004645760008160009055506001016200044a565b5090565b6200047381620004f8565b82525050565b62000484816200050c565b82525050565b620004958162000536565b82525050565b600060a082019050620004b2600083018862000479565b620004c1602083018762000479565b620004d0604083018662000479565b620004df60608301856200048a565b620004ee608083018462000468565b9695505050505050565b6000620005058262000516565b9050919050565b6000819050919050565b600073ffffffffffffffffffffffffffffffffffffffff82169050919050565b6000819050919050565b600060028204905060018216806200055957607f821691505b6020821081141562000570576200056f62000576565b5b50919050565b7f4e487b7100000000000000000000000000000000000000000000000000000000600052602260045260246000fd5b60805160a05160c05160e0516101005161572a620005ea60003960006130f40152600061313601526000613115015260006130a1015260006130c9015261572a6000f3fe6080604052600436106101ed5760003560e01c806385852ce41161010d578063c1c25bc5116100a0578063d46c28111161006f578063d46c2811146106f1578063e985e9c51461070d578063f0f442601461074a578063f242432a14610773578063f2fde38b1461079c576101ed565b8063c1c25bc51461060f578063c57ac5d61461064c578063c6b13e9014610689578063c7822598146106c6576101ed565b80639d23ef03116100dc5780639d23ef03146105695780639dc29fac14610592578063a22cb465146105bb578063bcd25ee5146105e4576101ed565b806385852ce4146104ab5780638d859f3e146104e85780638da5cb5b1461051357806395d89b411461053e576101ed565b806339cce68e116101855780636456c205116101545780636456c205146104365780636e1bd3231461045f578063715018a61461048a578063853828b6146104a1576101ed565b806339cce68e1461037c5780634e1273f4146103a557806355f804b3146103e257806361d027b31461040b576101ed565b80630e89341c116101c15780630e89341c146102c057806318160ddd146102fd5780631c8b232d146103285780632eb2c2d614610353576101ed565b8062fdd58e146101f257806301ffc9a71461022f578063050225ea1461026c57806306fdde0314610295575b600080fd5b3480156101fe57600080fd5b5061021960048036038101906102149190613c06565b6107c5565b6040516102269190614a51565b60405180910390f35b34801561023b57600080fd5b5061025660048036038101906102519190613cfd565b61088f565b6040516102639190614605565b60405180910390f35b34801561027857600080fd5b50610293600480360381019061028e9190613c06565b610971565b005b3480156102a157600080fd5b506102aa610bc8565b6040516102b791906146ef565b60405180910390f35b3480156102cc57600080fd5b506102e760048036038101906102e29190613d90565b610c5a565b6040516102f491906146ef565b60405180910390f35b34801561030957600080fd5b50610312610cee565b60405161031f9190614a51565b60405180910390f35b34801561033457600080fd5b5061033d610cf4565b60405161034a9190614605565b60405180910390f35b34801561035f57600080fd5b5061037a60048036038101906103759190613a7c565b610d07565b005b34801561038857600080fd5b506103a3600480360381019061039e9190613cae565b610da8565b005b3480156103b157600080fd5b506103cc60048036038101906103c79190613c42565b610e64565b6040516103d991906145ac565b60405180910390f35b3480156103ee57600080fd5b5061040960048036038101906104049190613d4f565b611015565b005b34801561041757600080fd5b5061042061109d565b60405161042d9190614476565b60405180910390f35b34801561044257600080fd5b5061045d60048036038101906104589190613d90565b6110c3565b005b34801561046b57600080fd5b50610474611149565b6040516104819190614a51565b60405180910390f35b34801561049657600080fd5b5061049f61114f565b005b6104a96111d7565b005b3480156104b757600080fd5b506104d260048036038101906104cd9190613db9565b6112b5565b6040516104df9190614605565b60405180910390f35b3480156104f457600080fd5b506104fd61135c565b60405161050a9190614a51565b60405180910390f35b34801561051f57600080fd5b50610528611362565b6040516105359190614476565b60405180910390f35b34801561054a57600080fd5b5061055361138b565b60405161056091906146ef565b60405180910390f35b34801561057557600080fd5b50610590600480360381019061058b9190613d90565b61141d565b005b34801561059e57600080fd5b506105b960048036038101906105b49190613c06565b6114a3565b005b3480156105c757600080fd5b506105e260048036038101906105dd9190613bca565b61152f565b005b3480156105f057600080fd5b506105f96116b0565b6040516106069190614605565b60405180910390f35b34801561061b57600080fd5b5061063660048036038101906106319190613a17565b6116c3565b6040516106439190614a51565b60405180910390f35b34801561065857600080fd5b50610673600480360381019061066e9190613d90565b6116db565b604051610680919061458a565b60405180910390f35b34801561069557600080fd5b506106b060048036038101906106ab9190613e0d565b6118ff565b6040516106bd9190614476565b60405180910390f35b3480156106d257600080fd5b506106db61194d565b6040516106e89190614a51565b60405180910390f35b61070b60048036038101906107069190613e49565b611953565b005b34801561071957600080fd5b50610734600480360381019061072f9190613a40565b611d27565b6040516107419190614605565b60405180910390f35b34801561075657600080fd5b50610771600480360381019061076c9190613a17565b611dbb565b005b34801561077f57600080fd5b5061079a60048036038101906107959190613b3b565b611f0d565b005b3480156107a857600080fd5b506107c360048036038101906107be9190613a17565b611fae565b005b60008073ffffffffffffffffffffffffffffffffffffffff168373ffffffffffffffffffffffffffffffffffffffff161415610836576040517f08c379a000000000000000000000000000000000000000000000000000000000815260040161082d90614811565b60405180910390fd5b6001600083815260200190815260200160002060008473ffffffffffffffffffffffffffffffffffffffff1673ffffffffffffffffffffffffffffffffffffffff16815260200190815260200160002054905092915050565b60007fd9b67a26000000000000000000000000000000000000000000000000000000007bffffffffffffffffffffffffffffffffffffffffffffffffffffffff1916827bffffffffffffffffffffffffffffffffffffffffffffffffffffffff1916148061095a57507f0e89341c000000000000000000000000000000000000000000000000000000007bffffffffffffffffffffffffffffffffffffffffffffffffffffffff1916827bffffffffffffffffffffffffffffffffffffffffffffffffffffffff1916145b8061096a5750610969826120a6565b5b9050919050565b610979612110565b73ffffffffffffffffffffffffffffffffffffffff16610997611362565b73ffffffffffffffffffffffffffffffffffffffff16146109ed576040517f08c379a00000000000000000000000000000000000000000000000000000000081526004016109e490614971565b60405180910390fd5b600654610a058260095461211890919063ffffffff16565b1115610a46576040517f08c379a0000000000000000000000000000000000000000000000000000000008152600401610a3d90614791565b60405180910390fd5b610a62826001836040518060200160405280600081525061212e565b610ab481600b60008573ffffffffffffffffffffffffffffffffffffffff1673ffffffffffffffffffffffffffffffffffffffff1681526020019081526020016000205461211890919063ffffffff16565b600b60008473ffffffffffffffffffffffffffffffffffffffff1673ffffffffffffffffffffffffffffffffffffffff16815260200190815260200160002081905550610b0c8160095461211890919063ffffffff16565b600981905550600c600060018152602001908152602001600020829080600181540180825580915050600190039060005260206000200160009091909190916101000a81548173ffffffffffffffffffffffffffffffffffffffff021916908373ffffffffffffffffffffffffffffffffffffffff1602179055507f9670c8b300c38cd3db8d3f9429dd902e67f418c4dd193e2497f06d20efc795608282600954604051610bbc93929190614553565b60405180910390a15050565b606060048054610bd790614da6565b80601f0160208091040260200160405190810160405280929190818152602001828054610c0390614da6565b8015610c505780601f10610c2557610100808354040283529160200191610c50565b820191906000526020600020905b815481529060010190602001808311610c3357829003601f168201915b5050505050905090565b606060038054610c6990614da6565b80601f0160208091040260200160405190810160405280929190818152602001828054610c9590614da6565b8015610ce25780601f10610cb757610100808354040283529160200191610ce2565b820191906000526020600020905b815481529060010190602001808311610cc557829003601f168201915b50505050509050919050565b60095481565b600a60009054906101000a900460ff1681565b610d0f612110565b73ffffffffffffffffffffffffffffffffffffffff168573ffffffffffffffffffffffffffffffffffffffff161480610d555750610d5485610d4f612110565b611d27565b5b610d94576040517f08c379a0000000000000000000000000000000000000000000000000000000008152600401610d8b906148f1565b60405180910390fd5b610da185858585856122c5565b5050505050565b610db0612110565b73ffffffffffffffffffffffffffffffffffffffff16610dce611362565b73ffffffffffffffffffffffffffffffffffffffff1614610e24576040517f08c379a0000000000000000000000000000000000000000000000000000000008152600401610e1b90614971565b60405180910390fd5b82600a60006101000a81548160ff0219169083151502179055508160088190555080600a60016101000a81548160ff021916908315150217905550505050565b60608151835114610eaa576040517f08c379a0000000000000000000000000000000000000000000000000000000008152600401610ea1906149f1565b60405180910390fd5b6000835167ffffffffffffffff811115610eed577f4e487b7100000000000000000000000000000000000000000000000000000000600052604160045260246000fd5b604051908082528060200260200182016040528015610f1b5781602001602082028036833780820191505090505b50905060005b845181101561100a57610fb4858281518110610f66577f4e487b7100000000000000000000000000000000000000000000000000000000600052603260045260246000fd5b6020026020010151858381518110610fa7577f4e487b7100000000000000000000000000000000000000000000000000000000600052603260045260246000fd5b60200260200101516107c5565b828281518110610fed577f4e487b7100000000000000000000000000000000000000000000000000000000600052603260045260246000fd5b6020026020010181815250508061100390614e09565b9050610f21565b508091505092915050565b61101d612110565b73ffffffffffffffffffffffffffffffffffffffff1661103b611362565b73ffffffffffffffffffffffffffffffffffffffff1614611091576040517f08c379a000000000000000000000000000000000000000000000000000000000815260040161108890614971565b60405180910390fd5b61109a81612628565b50565b600a60029054906101000a900473ffffffffffffffffffffffffffffffffffffffff1681565b6110cb612110565b73ffffffffffffffffffffffffffffffffffffffff166110e9611362565b73ffffffffffffffffffffffffffffffffffffffff161461113f576040517f08c379a000000000000000000000000000000000000000000000000000000000815260040161113690614971565b60405180910390fd5b8060078190555050565b60065481565b611157612110565b73ffffffffffffffffffffffffffffffffffffffff16611175611362565b73ffffffffffffffffffffffffffffffffffffffff16146111cb576040517f08c379a00000000000000000000000000000000000000000000000000000000081526004016111c290614971565b60405180910390fd5b6111d56000612642565b565b6111df612110565b73ffffffffffffffffffffffffffffffffffffffff166111fd611362565b73ffffffffffffffffffffffffffffffffffffffff1614611253576040517f08c379a000000000000000000000000000000000000000000000000000000000815260040161124a90614971565b60405180910390fd5b600a60029054906101000a900473ffffffffffffffffffffffffffffffffffffffff1673ffffffffffffffffffffffffffffffffffffffff166108fc479081150290604051600060405180830381858888f193505050506112b357600080fd5b565b60008061131b6113157f182854de6a51f3818344a7eb784b9d55c1e6d2d20c9f9aea309f5daaaaddfec16112e7612110565b876040516020016112fa93929190614620565b60405160208183030381529060405280519060200120612706565b84612720565b90508073ffffffffffffffffffffffffffffffffffffffff1661133c611362565b73ffffffffffffffffffffffffffffffffffffffff161491505092915050565b60075481565b60008060009054906101000a900473ffffffffffffffffffffffffffffffffffffffff16905090565b60606005805461139a90614da6565b80601f01602080910402602001604051908101604052809291908181526020018280546113c690614da6565b80156114135780601f106113e857610100808354040283529160200191611413565b820191906000526020600020905b8154815290600101906020018083116113f657829003601f168201915b5050505050905090565b611425612110565b73ffffffffffffffffffffffffffffffffffffffff16611443611362565b73ffffffffffffffffffffffffffffffffffffffff1614611499576040517f08c379a000000000000000000000000000000000000000000000000000000000815260040161149090614971565b60405180910390fd5b8060068190555050565b6114ab612110565b73ffffffffffffffffffffffffffffffffffffffff166114c9611362565b73ffffffffffffffffffffffffffffffffffffffff161461151f576040517f08c379a000000000000000000000000000000000000000000000000000000000815260040161151690614971565b60405180910390fd5b61152b82600183612747565b5050565b8173ffffffffffffffffffffffffffffffffffffffff1661154e612110565b73ffffffffffffffffffffffffffffffffffffffff1614156115a5576040517f08c379a000000000000000000000000000000000000000000000000000000000815260040161159c906149d1565b60405180910390fd5b80600260006115b2612110565b73ffffffffffffffffffffffffffffffffffffffff1673ffffffffffffffffffffffffffffffffffffffff16815260200190815260200160002060008473ffffffffffffffffffffffffffffffffffffffff1673ffffffffffffffffffffffffffffffffffffffff16815260200190815260200160002060006101000a81548160ff0219169083151502179055508173ffffffffffffffffffffffffffffffffffffffff1661165f612110565b73ffffffffffffffffffffffffffffffffffffffff167f17307eab39ab6107e8899845ad3d59bd9653f200f220920489ca2b5937696c31836040516116a49190614605565b60405180910390a35050565b600a60019054906101000a900460ff1681565b600b6020528060005260406000206000915090505481565b60606000600c6000848152602001908152602001600020805490509050600081141561177957600067ffffffffffffffff811115611742577f4e487b7100000000000000000000000000000000000000000000000000000000600052604160045260246000fd5b6040519080825280602002602001820160405280156117705781602001602082028036833780820191505090505b509150506118fa565b60008167ffffffffffffffff8111156117bb577f4e487b7100000000000000000000000000000000000000000000000000000000600052604160045260246000fd5b6040519080825280602002602001820160405280156117e95781602001602082028036833780820191505090505b50905060005b828110156118f357600c60008681526020019081526020016000208181548110611842577f4e487b7100000000000000000000000000000000000000000000000000000000600052603260045260246000fd5b9060005260206000200160009054906101000a900473ffffffffffffffffffffffffffffffffffffffff168282815181106118a6577f4e487b7100000000000000000000000000000000000000000000000000000000600052603260045260246000fd5b602002602001019073ffffffffffffffffffffffffffffffffffffffff16908173ffffffffffffffffffffffffffffffffffffffff168152505080806118eb90614e09565b9150506117ef565b8193505050505b919050565b600c602052816000526040600020818154811061191b57600080fd5b906000526020600020016000915091509054906101000a900473ffffffffffffffffffffffffffffffffffffffff1681565b60085481565b60011515600a60009054906101000a900460ff161515146119a9576040517f08c379a00000000000000000000000000000000000000000000000000000000081526004016119a090614991565b60405180910390fd5b6008544210156119ee576040517f08c379a00000000000000000000000000000000000000000000000000000000081526004016119e590614751565b60405180910390fd5b60011515600a60019054906101000a900460ff1615151415611a5457611a1482826112b5565b611a53576040517f08c379a0000000000000000000000000000000000000000000000000000000008152600401611a4a906147d1565b60405180910390fd5b5b600654611a6c8460095461211890919063ffffffff16565b1115611aad576040517f08c379a0000000000000000000000000000000000000000000000000000000008152600401611aa490614791565b60405180910390fd5b600083118015611b0f57506002611b0c84600b60003373ffffffffffffffffffffffffffffffffffffffff1673ffffffffffffffffffffffffffffffffffffffff1681526020019081526020016000205461211890919063ffffffff16565b11155b611b4e576040517f08c379a0000000000000000000000000000000000000000000000000000000008152600401611b45906149b1565b60405180910390fd5b611b638360075461296690919063ffffffff16565b3414611ba4576040517f08c379a0000000000000000000000000000000000000000000000000000000008152600401611b9b90614831565b60405180910390fd5b611bc0336001856040518060200160405280600081525061212e565b611c1283600b60003373ffffffffffffffffffffffffffffffffffffffff1673ffffffffffffffffffffffffffffffffffffffff1681526020019081526020016000205461211890919063ffffffff16565b600b60003373ffffffffffffffffffffffffffffffffffffffff1673ffffffffffffffffffffffffffffffffffffffff16815260200190815260200160002081905550600c600060018152602001908152602001600020339080600181540180825580915050600190039060005260206000200160009091909190916101000a81548173ffffffffffffffffffffffffffffffffffffffff021916908373ffffffffffffffffffffffffffffffffffffffff160217905550611cdf8360095461211890919063ffffffff16565b6009819055507f9670c8b300c38cd3db8d3f9429dd902e67f418c4dd193e2497f06d20efc795603384600954604051611d1a93929190614553565b60405180910390a1505050565b6000600260008473ffffffffffffffffffffffffffffffffffffffff1673ffffffffffffffffffffffffffffffffffffffff16815260200190815260200160002060008373ffffffffffffffffffffffffffffffffffffffff1673ffffffffffffffffffffffffffffffffffffffff16815260200190815260200160002060009054906101000a900460ff16905092915050565b611dc3612110565b73ffffffffffffffffffffffffffffffffffffffff16611de1611362565b73ffffffffffffffffffffffffffffffffffffffff1614611e37576040517f08c379a0000000000000000000000000000000000000000000000000000000008152600401611e2e90614971565b60405180910390fd5b600073ffffffffffffffffffffffffffffffffffffffff16600a60029054906101000a900473ffffffffffffffffffffffffffffffffffffffff1673ffffffffffffffffffffffffffffffffffffffff161415611ec9576040517f08c379a0000000000000000000000000000000000000000000000000000000008152600401611ec0906147b1565b60405180910390fd5b80600a60026101000a81548173ffffffffffffffffffffffffffffffffffffffff021916908373ffffffffffffffffffffffffffffffffffffffff16021790555050565b611f15612110565b73ffffffffffffffffffffffffffffffffffffffff168573ffffffffffffffffffffffffffffffffffffffff161480611f5b5750611f5a85611f55612110565b611d27565b5b611f9a576040517f08c379a0000000000000000000000000000000000000000000000000000000008152600401611f9190614891565b60405180910390fd5b611fa7858585858561297c565b5050505050565b611fb6612110565b73ffffffffffffffffffffffffffffffffffffffff16611fd4611362565b73ffffffffffffffffffffffffffffffffffffffff161461202a576040517f08c379a000000000000000000000000000000000000000000000000000000000815260040161202190614971565b60405180910390fd5b600073ffffffffffffffffffffffffffffffffffffffff168173ffffffffffffffffffffffffffffffffffffffff16141561209a576040517f08c379a000000000000000000000000000000000000000000000000000000000815260040161209190614851565b60405180910390fd5b6120a381612642565b50565b60007f01ffc9a7000000000000000000000000000000000000000000000000000000007bffffffffffffffffffffffffffffffffffffffffffffffffffffffff1916827bffffffffffffffffffffffffffffffffffffffffffffffffffffffff1916149050919050565b600033905090565b600081836121269190614c29565b905092915050565b600073ffffffffffffffffffffffffffffffffffffffff168473ffffffffffffffffffffffffffffffffffffffff16141561219e576040517f08c379a000000000000000000000000000000000000000000000000000000000815260040161219590614a31565b60405180910390fd5b60006121a8612110565b90506121c9816000876121ba88612c01565b6121c388612c01565b87612cc7565b826001600086815260200190815260200160002060008773ffffffffffffffffffffffffffffffffffffffff1673ffffffffffffffffffffffffffffffffffffffff16815260200190815260200160002060008282546122299190614c29565b925050819055508473ffffffffffffffffffffffffffffffffffffffff16600073ffffffffffffffffffffffffffffffffffffffff168273ffffffffffffffffffffffffffffffffffffffff167fc3d58168c5ae7397731d063d5bbf3d657854427343f4c083240f7aacaa2d0f6287876040516122a7929190614a6c565b60405180910390a46122be81600087878787612ccf565b5050505050565b8151835114612309576040517f08c379a000000000000000000000000000000000000000000000000000000000815260040161230090614a11565b60405180910390fd5b600073ffffffffffffffffffffffffffffffffffffffff168473ffffffffffffffffffffffffffffffffffffffff161415612379576040517f08c379a0000000000000000000000000000000000000000000000000000000008152600401612370906148d1565b60405180910390fd5b6000612383612110565b9050612393818787878787612cc7565b60005b84518110156125935760008582815181106123da577f4e487b7100000000000000000000000000000000000000000000000000000000600052603260045260246000fd5b60200260200101519050600085838151811061241f577f4e487b7100000000000000000000000000000000000000000000000000000000600052603260045260246000fd5b6020026020010151905060006001600084815260200190815260200160002060008b73ffffffffffffffffffffffffffffffffffffffff1673ffffffffffffffffffffffffffffffffffffffff168152602001908152602001600020549050818110156124c1576040517f08c379a00000000000000000000000000000000000000000000000000000000081526004016124b890614951565b60405180910390fd5b8181036001600085815260200190815260200160002060008c73ffffffffffffffffffffffffffffffffffffffff1673ffffffffffffffffffffffffffffffffffffffff16815260200190815260200160002081905550816001600085815260200190815260200160002060008b73ffffffffffffffffffffffffffffffffffffffff1673ffffffffffffffffffffffffffffffffffffffff16815260200190815260200160002060008282546125789190614c29565b925050819055505050508061258c90614e09565b9050612396565b508473ffffffffffffffffffffffffffffffffffffffff168673ffffffffffffffffffffffffffffffffffffffff168273ffffffffffffffffffffffffffffffffffffffff167f4a39dc06d4c0dbc64b70af90fd698a233a518aa5d07e595d983b8c0526c8f7fb878760405161260a9291906145ce565b60405180910390a4612620818787878787612eb6565b505050505050565b806003908051906020019061263e92919061370f565b5050565b60008060009054906101000a900473ffffffffffffffffffffffffffffffffffffffff169050816000806101000a81548173ffffffffffffffffffffffffffffffffffffffff021916908373ffffffffffffffffffffffffffffffffffffffff1602179055508173ffffffffffffffffffffffffffffffffffffffff168173ffffffffffffffffffffffffffffffffffffffff167f8be0079c531659141344cd1fd0a4f28419497f9722a3daafe3b4186f6b6457e060405160405180910390a35050565b600061271961271361309d565b83613160565b9050919050565b600080600061272f8585613193565b9150915061273c81613216565b819250505092915050565b600073ffffffffffffffffffffffffffffffffffffffff168373ffffffffffffffffffffffffffffffffffffffff1614156127b7576040517f08c379a00000000000000000000000000000000000000000000000000000000081526004016127ae90614931565b60405180910390fd5b60006127c1612110565b90506127f1818560006127d387612c01565b6127dc87612c01565b60405180602001604052806000815250612cc7565b60006001600085815260200190815260200160002060008673ffffffffffffffffffffffffffffffffffffffff1673ffffffffffffffffffffffffffffffffffffffff16815260200190815260200160002054905082811015612889576040517f08c379a000000000000000000000000000000000000000000000000000000000815260040161288090614871565b60405180910390fd5b8281036001600086815260200190815260200160002060008773ffffffffffffffffffffffffffffffffffffffff1673ffffffffffffffffffffffffffffffffffffffff16815260200190815260200160002081905550600073ffffffffffffffffffffffffffffffffffffffff168573ffffffffffffffffffffffffffffffffffffffff168373ffffffffffffffffffffffffffffffffffffffff167fc3d58168c5ae7397731d063d5bbf3d657854427343f4c083240f7aacaa2d0f628787604051612957929190614a6c565b60405180910390a45050505050565b600081836129749190614c7f565b905092915050565b600073ffffffffffffffffffffffffffffffffffffffff168473ffffffffffffffffffffffffffffffffffffffff1614156129ec576040517f08c379a00000000000000000000000000000000000000000000000000000000081526004016129e3906148d1565b60405180910390fd5b60006129f6612110565b9050612a16818787612a0788612c01565b612a1088612c01565b87612cc7565b60006001600086815260200190815260200160002060008873ffffffffffffffffffffffffffffffffffffffff1673ffffffffffffffffffffffffffffffffffffffff16815260200190815260200160002054905083811015612aae576040517f08c379a0000000000000000000000000000000000000000000000000000000008152600401612aa590614951565b60405180910390fd5b8381036001600087815260200190815260200160002060008973ffffffffffffffffffffffffffffffffffffffff1673ffffffffffffffffffffffffffffffffffffffff16815260200190815260200160002081905550836001600087815260200190815260200160002060008873ffffffffffffffffffffffffffffffffffffffff1673ffffffffffffffffffffffffffffffffffffffff1681526020019081526020016000206000828254612b659190614c29565b925050819055508573ffffffffffffffffffffffffffffffffffffffff168773ffffffffffffffffffffffffffffffffffffffff168373ffffffffffffffffffffffffffffffffffffffff167fc3d58168c5ae7397731d063d5bbf3d657854427343f4c083240f7aacaa2d0f628888604051612be2929190614a6c565b60405180910390a4612bf8828888888888612ccf565b50505050505050565b60606000600167ffffffffffffffff811115612c46577f4e487b7100000000000000000000000000000000000000000000000000000000600052604160045260246000fd5b604051908082528060200260200182016040528015612c745781602001602082028036833780820191505090505b5090508281600081518110612cb2577f4e487b7100000000000000000000000000000000000000000000000000000000600052603260045260246000fd5b60200260200101818152505080915050919050565b505050505050565b612cee8473ffffffffffffffffffffffffffffffffffffffff16613567565b15612eae578373ffffffffffffffffffffffffffffffffffffffff1663f23a6e6187878686866040518663ffffffff1660e01b8152600401612d349594939291906144f9565b602060405180830381600087803b158015612d4e57600080fd5b505af1925050508015612d7f57506040513d601f19601f82011682018060405250810190612d7c9190613d26565b60015b612e2557612d8b614ee9565b806308c379a01415612de85750612da0615602565b80612dab5750612dea565b806040517f08c379a0000000000000000000000000000000000000000000000000000000008152600401612ddf91906146ef565b60405180910390fd5b505b6040517f08c379a0000000000000000000000000000000000000000000000000000000008152600401612e1c90614731565b60405180910390fd5b63f23a6e6160e01b7bffffffffffffffffffffffffffffffffffffffffffffffffffffffff1916817bffffffffffffffffffffffffffffffffffffffffffffffffffffffff191614612eac576040517f08c379a0000000000000000000000000000000000000000000000000000000008152600401612ea390614771565b60405180910390fd5b505b505050505050565b612ed58473ffffffffffffffffffffffffffffffffffffffff16613567565b15613095578373ffffffffffffffffffffffffffffffffffffffff1663bc197c8187878686866040518663ffffffff1660e01b8152600401612f1b959493929190614491565b602060405180830381600087803b158015612f3557600080fd5b505af1925050508015612f6657506040513d601f19601f82011682018060405250810190612f639190613d26565b60015b61300c57612f72614ee9565b806308c379a01415612fcf5750612f87615602565b80612f925750612fd1565b806040517f08c379a0000000000000000000000000000000000000000000000000000000008152600401612fc691906146ef565b60405180910390fd5b505b6040517f08c379a000000000000000000000000000000000000000000000000000000000815260040161300390614731565b60405180910390fd5b63bc197c8160e01b7bffffffffffffffffffffffffffffffffffffffffffffffffffffffff1916817bffffffffffffffffffffffffffffffffffffffffffffffffffffffff191614613093576040517f08c379a000000000000000000000000000000000000000000000000000000000815260040161308a90614771565b60405180910390fd5b505b505050505050565b60007f00000000000000000000000000000000000000000000000000000000000000004614156130ef577f0000000000000000000000000000000000000000000000000000000000000000905061315d565b61315a7f00000000000000000000000000000000000000000000000000000000000000007f00000000000000000000000000000000000000000000000000000000000000007f000000000000000000000000000000000000000000000000000000000000000061357a565b90505b90565b6000828260405160200161317592919061443f565b60405160208183030381529060405280519060200120905092915050565b6000806041835114156131d55760008060006020860151925060408601519150606086015160001a90506131c9878285856135b4565b9450945050505061320f565b6040835114156132065760008060208501519150604085015190506131fb8683836136c1565b93509350505061320f565b60006002915091505b9250929050565b60006004811115613250577f4e487b7100000000000000000000000000000000000000000000000000000000600052602160045260246000fd5b816004811115613289577f4e487b7100000000000000000000000000000000000000000000000000000000600052602160045260246000fd5b141561329457613564565b600160048111156132ce577f4e487b7100000000000000000000000000000000000000000000000000000000600052602160045260246000fd5b816004811115613307577f4e487b7100000000000000000000000000000000000000000000000000000000600052602160045260246000fd5b1415613348576040517f08c379a000000000000000000000000000000000000000000000000000000000815260040161333f90614711565b60405180910390fd5b60026004811115613382577f4e487b7100000000000000000000000000000000000000000000000000000000600052602160045260246000fd5b8160048111156133bb577f4e487b7100000000000000000000000000000000000000000000000000000000600052602160045260246000fd5b14156133fc576040517f08c379a00000000000000000000000000000000000000000000000000000000081526004016133f3906147f1565b60405180910390fd5b60036004811115613436577f4e487b7100000000000000000000000000000000000000000000000000000000600052602160045260246000fd5b81600481111561346f577f4e487b7100000000000000000000000000000000000000000000000000000000600052602160045260246000fd5b14156134b0576040517f08c379a00000000000000000000000000000000000000000000000000000000081526004016134a7906148b1565b60405180910390fd5b6004808111156134e9577f4e487b7100000000000000000000000000000000000000000000000000000000600052602160045260246000fd5b816004811115613522577f4e487b7100000000000000000000000000000000000000000000000000000000600052602160045260246000fd5b1415613563576040517f08c379a000000000000000000000000000000000000000000000000000000000815260040161355a90614911565b60405180910390fd5b5b50565b600080823b905060008111915050919050565b60008383834630604051602001613595959493929190614657565b6040516020818303038152906040528051906020012090509392505050565b6000807f7fffffffffffffffffffffffffffffff5d576e7357a4501ddfe92f46681b20a08360001c11156135ef5760006003915091506136b8565b601b8560ff16141580156136075750601c8560ff1614155b156136195760006004915091506136b8565b60006001878787876040516000815260200160405260405161363e94939291906146aa565b6020604051602081039080840390855afa158015613660573d6000803e3d6000fd5b505050602060405103519050600073ffffffffffffffffffffffffffffffffffffffff168173ffffffffffffffffffffffffffffffffffffffff1614156136af576000600192509250506136b8565b80600092509250505b94509492505050565b6000806000807f7fffffffffffffffffffffffffffffffffffffffffffffffffffffffffffffff85169150601b8560ff1c019050613701878288856135b4565b935093505050935093915050565b82805461371b90614da6565b90600052602060002090601f01602090048101928261373d5760008555613784565b82601f1061375657805160ff1916838001178555613784565b82800160010185558215613784579182015b82811115613783578251825591602001919060010190613768565b5b5090506137919190613795565b5090565b5b808211156137ae576000816000905550600101613796565b5090565b60006137c56137c084614aba565b614a95565b905080838252602082019050828560208602820111156137e457600080fd5b60005b8581101561381457816137fa8882613906565b8452602084019350602083019250506001810190506137e7565b5050509392505050565b600061383161382c84614ae6565b614a95565b9050808382526020820190508285602086028201111561385057600080fd5b60005b8581101561388057816138668882613a02565b845260208401935060208301925050600181019050613853565b5050509392505050565b600061389d61389884614b12565b614a95565b9050828152602081018484840111156138b557600080fd5b6138c0848285614d64565b509392505050565b60006138db6138d684614b43565b614a95565b9050828152602081018484840111156138f357600080fd5b6138fe848285614d64565b509392505050565b60008135905061391581615698565b92915050565b600082601f83011261392c57600080fd5b813561393c8482602086016137b2565b91505092915050565b600082601f83011261395657600080fd5b813561396684826020860161381e565b91505092915050565b60008135905061397e816156af565b92915050565b600081359050613993816156c6565b92915050565b6000815190506139a8816156c6565b92915050565b600082601f8301126139bf57600080fd5b81356139cf84826020860161388a565b91505092915050565b600082601f8301126139e957600080fd5b81356139f98482602086016138c8565b91505092915050565b600081359050613a11816156dd565b92915050565b600060208284031215613a2957600080fd5b6000613a3784828501613906565b91505092915050565b60008060408385031215613a5357600080fd5b6000613a6185828601613906565b9250506020613a7285828601613906565b9150509250929050565b600080600080600060a08688031215613a9457600080fd5b6000613aa288828901613906565b9550506020613ab388828901613906565b945050604086013567ffffffffffffffff811115613ad057600080fd5b613adc88828901613945565b935050606086013567ffffffffffffffff811115613af957600080fd5b613b0588828901613945565b925050608086013567ffffffffffffffff811115613b2257600080fd5b613b2e888289016139ae565b9150509295509295909350565b600080600080600060a08688031215613b5357600080fd5b6000613b6188828901613906565b9550506020613b7288828901613906565b9450506040613b8388828901613a02565b9350506060613b9488828901613a02565b925050608086013567ffffffffffffffff811115613bb157600080fd5b613bbd888289016139ae565b9150509295509295909350565b60008060408385031215613bdd57600080fd5b6000613beb85828601613906565b9250506020613bfc8582860161396f565b9150509250929050565b60008060408385031215613c1957600080fd5b6000613c2785828601613906565b9250506020613c3885828601613a02565b9150509250929050565b60008060408385031215613c5557600080fd5b600083013567ffffffffffffffff811115613c6f57600080fd5b613c7b8582860161391b565b925050602083013567ffffffffffffffff811115613c9857600080fd5b613ca485828601613945565b9150509250929050565b600080600060608486031215613cc357600080fd5b6000613cd18682870161396f565b9350506020613ce286828701613a02565b9250506040613cf38682870161396f565b9150509250925092565b600060208284031215613d0f57600080fd5b6000613d1d84828501613984565b91505092915050565b600060208284031215613d3857600080fd5b6000613d4684828501613999565b91505092915050565b600060208284031215613d6157600080fd5b600082013567ffffffffffffffff811115613d7b57600080fd5b613d87848285016139d8565b91505092915050565b600060208284031215613da257600080fd5b6000613db084828501613a02565b91505092915050565b60008060408385031215613dcc57600080fd5b6000613dda85828601613a02565b925050602083013567ffffffffffffffff811115613df757600080fd5b613e03858286016139ae565b9150509250929050565b60008060408385031215613e2057600080fd5b6000613e2e85828601613a02565b9250506020613e3f85828601613a02565b9150509250929050565b600080600060608486031215613e5e57600080fd5b6000613e6c86828701613a02565b9350506020613e7d86828701613a02565b925050604084013567ffffffffffffffff811115613e9a57600080fd5b613ea6868287016139ae565b9150509250925092565b6000613ebc8383613ee0565b60208301905092915050565b6000613ed48383614412565b60208301905092915050565b613ee981614cd9565b82525050565b613ef881614cd9565b82525050565b6000613f0982614b94565b613f138185614bda565b9350613f1e83614b74565b8060005b83811015613f4f578151613f368882613eb0565b9750613f4183614bc0565b925050600181019050613f22565b5085935050505092915050565b6000613f6782614b9f565b613f718185614beb565b9350613f7c83614b84565b8060005b83811015613fad578151613f948882613ec8565b9750613f9f83614bcd565b925050600181019050613f80565b5085935050505092915050565b613fc381614ceb565b82525050565b613fd281614cf7565b82525050565b613fe9613fe482614cf7565b614e52565b82525050565b6000613ffa82614baa565b6140048185614bfc565b9350614014818560208601614d73565b61401d81614f0b565b840191505092915050565b600061403382614bb5565b61403d8185614c0d565b935061404d818560208601614d73565b61405681614f0b565b840191505092915050565b600061406e601883614c0d565b915061407982614f29565b602082019050919050565b6000614091603483614c0d565b915061409c82614f52565b604082019050919050565b60006140b4601083614c0d565b91506140bf82614fa1565b602082019050919050565b60006140d7602883614c0d565b91506140e282614fca565b604082019050919050565b60006140fa601283614c0d565b915061410582615019565b602082019050919050565b600061411d601483614c0d565b915061412882615042565b602082019050919050565b6000614140601b83614c0d565b915061414b8261506b565b602082019050919050565b6000614163601f83614c0d565b915061416e82615094565b602082019050919050565b6000614186602b83614c0d565b9150614191826150bd565b604082019050919050565b60006141a9602883614c0d565b91506141b48261510c565b604082019050919050565b60006141cc602683614c0d565b91506141d78261515b565b604082019050919050565b60006141ef602483614c0d565b91506141fa826151aa565b604082019050919050565b6000614212600283614c1e565b915061421d826151f9565b600282019050919050565b6000614235602983614c0d565b915061424082615222565b604082019050919050565b6000614258602283614c0d565b915061426382615271565b604082019050919050565b600061427b602583614c0d565b9150614286826152c0565b604082019050919050565b600061429e603283614c0d565b91506142a98261530f565b604082019050919050565b60006142c1602283614c0d565b91506142cc8261535e565b604082019050919050565b60006142e4602383614c0d565b91506142ef826153ad565b604082019050919050565b6000614307602a83614c0d565b9150614312826153fc565b604082019050919050565b600061432a602083614c0d565b91506143358261544b565b602082019050919050565b600061434d600f83614c0d565b915061435882615474565b602082019050919050565b6000614370601583614c0d565b915061437b8261549d565b602082019050919050565b6000614393602983614c0d565b915061439e826154c6565b604082019050919050565b60006143b6602983614c0d565b91506143c182615515565b604082019050919050565b60006143d9602883614c0d565b91506143e482615564565b604082019050919050565b60006143fc602183614c0d565b9150614407826155b3565b604082019050919050565b61441b81614d4d565b82525050565b61442a81614d4d565b82525050565b61443981614d57565b82525050565b600061444a82614205565b91506144568285613fd8565b6020820191506144668284613fd8565b6020820191508190509392505050565b600060208201905061448b6000830184613eef565b92915050565b600060a0820190506144a66000830188613eef565b6144b36020830187613eef565b81810360408301526144c58186613f5c565b905081810360608301526144d98185613f5c565b905081810360808301526144ed8184613fef565b90509695505050505050565b600060a08201905061450e6000830188613eef565b61451b6020830187613eef565b6145286040830186614421565b6145356060830185614421565b81810360808301526145478184613fef565b90509695505050505050565b60006060820190506145686000830186613eef565b6145756020830185614421565b6145826040830184614421565b949350505050565b600060208201905081810360008301526145a48184613efe565b905092915050565b600060208201905081810360008301526145c68184613f5c565b905092915050565b600060408201905081810360008301526145e88185613f5c565b905081810360208301526145fc8184613f5c565b90509392505050565b600060208201905061461a6000830184613fba565b92915050565b60006060820190506146356000830186613fc9565b6146426020830185613eef565b61464f6040830184614421565b949350505050565b600060a08201905061466c6000830188613fc9565b6146796020830187613fc9565b6146866040830186613fc9565b6146936060830185614421565b6146a06080830184613eef565b9695505050505050565b60006080820190506146bf6000830187613fc9565b6146cc6020830186614430565b6146d96040830185613fc9565b6146e66060830184613fc9565b95945050505050565b600060208201905081810360008301526147098184614028565b905092915050565b6000602082019050818103600083015261472a81614061565b9050919050565b6000602082019050818103600083015261474a81614084565b9050919050565b6000602082019050818103600083015261476a816140a7565b9050919050565b6000602082019050818103600083015261478a816140ca565b9050919050565b600060208201905081810360008301526147aa816140ed565b9050919050565b600060208201905081810360008301526147ca81614110565b9050919050565b600060208201905081810360008301526147ea81614133565b9050919050565b6000602082019050818103600083015261480a81614156565b9050919050565b6000602082019050818103600083015261482a81614179565b9050919050565b6000602082019050818103600083015261484a8161419c565b9050919050565b6000602082019050818103600083015261486a816141bf565b9050919050565b6000602082019050818103600083015261488a816141e2565b9050919050565b600060208201905081810360008301526148aa81614228565b9050919050565b600060208201905081810360008301526148ca8161424b565b9050919050565b600060208201905081810360008301526148ea8161426e565b9050919050565b6000602082019050818103600083015261490a81614291565b9050919050565b6000602082019050818103600083015261492a816142b4565b9050919050565b6000602082019050818103600083015261494a816142d7565b9050919050565b6000602082019050818103600083015261496a816142fa565b9050919050565b6000602082019050818103600083015261498a8161431d565b9050919050565b600060208201905081810360008301526149aa81614340565b9050919050565b600060208201905081810360008301526149ca81614363565b9050919050565b600060208201905081810360008301526149ea81614386565b9050919050565b60006020820190508181036000830152614a0a816143a9565b9050919050565b60006020820190508181036000830152614a2a816143cc565b9050919050565b60006020820190508181036000830152614a4a816143ef565b9050919050565b6000602082019050614a666000830184614421565b92915050565b6000604082019050614a816000830185614421565b614a8e6020830184614421565b9392505050565b6000614a9f614ab0565b9050614aab8282614dd8565b919050565b6000604051905090565b600067ffffffffffffffff821115614ad557614ad4614eba565b5b602082029050602081019050919050565b600067ffffffffffffffff821115614b0157614b00614eba565b5b602082029050602081019050919050565b600067ffffffffffffffff821115614b2d57614b2c614eba565b5b614b3682614f0b565b9050602081019050919050565b600067ffffffffffffffff821115614b5e57614b5d614eba565b5b614b6782614f0b565b9050602081019050919050565b6000819050602082019050919050565b6000819050602082019050919050565b600081519050919050565b600081519050919050565b600081519050919050565b600081519050919050565b6000602082019050919050565b6000602082019050919050565b600082825260208201905092915050565b600082825260208201905092915050565b600082825260208201905092915050565b600082825260208201905092915050565b600081905092915050565b6000614c3482614d4d565b9150614c3f83614d4d565b9250827fffffffffffffffffffffffffffffffffffffffffffffffffffffffffffffffff03821115614c7457614c73614e5c565b5b828201905092915050565b6000614c8a82614d4d565b9150614c9583614d4d565b9250817fffffffffffffffffffffffffffffffffffffffffffffffffffffffffffffffff0483118215151615614cce57614ccd614e5c565b5b828202905092915050565b6000614ce482614d2d565b9050919050565b60008115159050919050565b6000819050919050565b60007fffffffff0000000000000000000000000000000000000000000000000000000082169050919050565b600073ffffffffffffffffffffffffffffffffffffffff82169050919050565b6000819050919050565b600060ff82169050919050565b82818337600083830152505050565b60005b83811015614d91578082015181840152602081019050614d76565b83811115614da0576000848401525b50505050565b60006002820490506001821680614dbe57607f821691505b60208210811415614dd257614dd1614e8b565b5b50919050565b614de182614f0b565b810181811067ffffffffffffffff82111715614e0057614dff614eba565b5b80604052505050565b6000614e1482614d4d565b91507fffffffffffffffffffffffffffffffffffffffffffffffffffffffffffffffff821415614e4757614e46614e5c565b5b600182019050919050565b6000819050919050565b7f4e487b7100000000000000000000000000000000000000000000000000000000600052601160045260246000fd5b7f4e487b7100000000000000000000000000000000000000000000000000000000600052602260045260246000fd5b7f4e487b7100000000000000000000000000000000000000000000000000000000600052604160045260246000fd5b600060033d1115614f085760046000803e614f05600051614f1c565b90505b90565b6000601f19601f8301169050919050565b60008160e01c9050919050565b7f45434453413a20696e76616c6964207369676e61747572650000000000000000600082015250565b7f455243313135353a207472616e7366657220746f206e6f6e204552433131353560008201527f526563656976657220696d706c656d656e746572000000000000000000000000602082015250565b7f4e4f545f494e5f53414c455f54494d4500000000000000000000000000000000600082015250565b7f455243313135353a204552433131353552656365697665722072656a6563746560008201527f6420746f6b656e73000000000000000000000000000000000000000000000000602082015250565b7f45786365656473204d41585f544f4b454e2e0000000000000000000000000000600082015250565b7f53455454494e475f5a45524f5f41444452455353000000000000000000000000600082015250565b7f4e6f7420656c696769626c6520666f722077686974656c6973742e0000000000600082015250565b7f45434453413a20696e76616c6964207369676e6174757265206c656e67746800600082015250565b7f455243313135353a2062616c616e636520717565727920666f7220746865207a60008201527f65726f2061646472657373000000000000000000000000000000000000000000602082015250565b7f45746865722076616c75652073656e74206973206e6f7420657175616c20746860008201527f652070726963652e000000000000000000000000000000000000000000000000602082015250565b7f4f776e61626c653a206e6577206f776e657220697320746865207a65726f206160008201527f6464726573730000000000000000000000000000000000000000000000000000602082015250565b7f455243313135353a206275726e20616d6f756e7420657863656564732062616c60008201527f616e636500000000000000000000000000000000000000000000000000000000602082015250565b7f1901000000000000000000000000000000000000000000000000000000000000600082015250565b7f455243313135353a2063616c6c6572206973206e6f74206f776e6572206e6f7260008201527f20617070726f7665640000000000000000000000000000000000000000000000602082015250565b7f45434453413a20696e76616c6964207369676e6174757265202773272076616c60008201527f7565000000000000000000000000000000000000000000000000000000000000602082015250565b7f455243313135353a207472616e7366657220746f20746865207a65726f20616460008201527f6472657373000000000000000000000000000000000000000000000000000000602082015250565b7f455243313135353a207472616e736665722063616c6c6572206973206e6f742060008201527f6f776e6572206e6f7220617070726f7665640000000000000000000000000000602082015250565b7f45434453413a20696e76616c6964207369676e6174757265202776272076616c60008201527f7565000000000000000000000000000000000000000000000000000000000000602082015250565b7f455243313135353a206275726e2066726f6d20746865207a65726f206164647260008201527f6573730000000000000000000000000000000000000000000000000000000000602082015250565b7f455243313135353a20696e73756666696369656e742062616c616e636520666f60008201527f72207472616e7366657200000000000000000000000000000000000000000000602082015250565b7f4f776e61626c653a2063616c6c6572206973206e6f7420746865206f776e6572600082015250565b7f53414c455f4e4f545f4143544956450000000000000000000000000000000000600082015250565b7f45786365656473206d6178207175616e746974792e0000000000000000000000600082015250565b7f455243313135353a2073657474696e6720617070726f76616c2073746174757360008201527f20666f722073656c660000000000000000000000000000000000000000000000602082015250565b7f455243313135353a206163636f756e747320616e6420696473206c656e67746860008201527f206d69736d617463680000000000000000000000000000000000000000000000602082015250565b7f455243313135353a2069647320616e6420616d6f756e7473206c656e6774682060008201527f6d69736d61746368000000000000000000000000000000000000000000000000602082015250565b7f455243313135353a206d696e7420746f20746865207a65726f2061646472657360008201527f7300000000000000000000000000000000000000000000000000000000000000602082015250565b600060443d101561561257615695565b61561a614ab0565b60043d036004823e80513d602482011167ffffffffffffffff82111715615642575050615695565b808201805167ffffffffffffffff8111156156605750505050615695565b80602083010160043d03850181111561567d575050505050615695565b61568c82602001850186614dd8565b82955050505050505b90565b6156a181614cd9565b81146156ac57600080fd5b50565b6156b881614ceb565b81146156c357600080fd5b50565b6156cf81614d01565b81146156da57600080fd5b50565b6156e681614d4d565b81146156f157600080fd5b5056fea2646970667358221220d30e4f75f6681f8c1624461652ca342375383b77f18e5d67a8536576cbc3831464736f6c6343000804003368747470733a2f2f676174657761792e70696e6174612e636c6f75642f697066732f516d593664684d7258376a396d556752627a46784a666635625570576a65766966576a6370724c757577637a7064",
  "devdoc": {
    "kind": "dev",
    "methods": {
      "balanceOf(address,uint256)": {
        "details": "See {IERC1155-balanceOf}. Requirements: - `account` cannot be the zero address."
      },
      "balanceOfBatch(address[],uint256[])": {
        "details": "See {IERC1155-balanceOfBatch}. Requirements: - `accounts` and `ids` must have the same length."
      },
      "isApprovedForAll(address,address)": {
        "details": "See {IERC1155-isApprovedForAll}."
      },
      "owner()": {
        "details": "Returns the address of the current owner."
      },
      "renounceOwnership()": {
        "details": "Leaves the contract without owner. It will not be possible to call `onlyOwner` functions anymore. Can only be called by the current owner. NOTE: Renouncing ownership will leave the contract without an owner, thereby removing any functionality that is only available to the owner."
      },
      "safeBatchTransferFrom(address,address,uint256[],uint256[],bytes)": {
        "details": "See {IERC1155-safeBatchTransferFrom}."
      },
      "safeTransferFrom(address,address,uint256,uint256,bytes)": {
        "details": "See {IERC1155-safeTransferFrom}."
      },
      "setApprovalForAll(address,bool)": {
        "details": "See {IERC1155-setApprovalForAll}."
      },
      "supportsInterface(bytes4)": {
        "details": "See {IERC165-supportsInterface}."
      },
      "transferOwnership(address)": {
        "details": "Transfers ownership of the contract to a new account (`newOwner`). Can only be called by the current owner."
      },
      "uri(uint256)": {
        "details": "See {IERC1155MetadataURI-uri}. This implementation returns the same URI for *all* token types. It relies on the token type ID substitution mechanism https://eips.ethereum.org/EIPS/eip-1155#metadata[defined in the EIP]. Clients calling this function must replace the `\\{id\\}` substring with the actual token type ID."
      }
    },
    "version": 1
  },
  "userdoc": {
    "kind": "user",
    "methods": {},
    "version": 1
  },
  "storageLayout": {
    "storage": [
      {
        "astId": 7,
        "contract": "contracts/BlockBanana.sol:BlockBanana",
        "label": "_owner",
        "offset": 0,
        "slot": "0",
        "type": "t_address"
      },
      {
        "astId": 129,
        "contract": "contracts/BlockBanana.sol:BlockBanana",
        "label": "_balances",
        "offset": 0,
        "slot": "1",
        "type": "t_mapping(t_uint256,t_mapping(t_address,t_uint256))"
      },
      {
        "astId": 135,
        "contract": "contracts/BlockBanana.sol:BlockBanana",
        "label": "_operatorApprovals",
        "offset": 0,
        "slot": "2",
        "type": "t_mapping(t_address,t_mapping(t_address,t_bool))"
      },
      {
        "astId": 137,
        "contract": "contracts/BlockBanana.sol:BlockBanana",
        "label": "_uri",
        "offset": 0,
        "slot": "3",
        "type": "t_string_storage"
      },
      {
        "astId": 2760,
        "contract": "contracts/BlockBanana.sol:BlockBanana",
        "label": "_name",
        "offset": 0,
        "slot": "4",
        "type": "t_string_storage"
      },
      {
        "astId": 2763,
        "contract": "contracts/BlockBanana.sol:BlockBanana",
        "label": "_symbol",
        "offset": 0,
        "slot": "5",
        "type": "t_string_storage"
      },
      {
        "astId": 2766,
        "contract": "contracts/BlockBanana.sol:BlockBanana",
        "label": "MAX_TOKEN",
        "offset": 0,
        "slot": "6",
        "type": "t_uint256"
      },
      {
        "astId": 2769,
        "contract": "contracts/BlockBanana.sol:BlockBanana",
        "label": "PRICE",
        "offset": 0,
        "slot": "7",
        "type": "t_uint256"
      },
      {
        "astId": 2772,
        "contract": "contracts/BlockBanana.sol:BlockBanana",
        "label": "saleTimestamp",
        "offset": 0,
        "slot": "8",
        "type": "t_uint256"
      },
      {
        "astId": 2775,
        "contract": "contracts/BlockBanana.sol:BlockBanana",
        "label": "totalSupply",
        "offset": 0,
        "slot": "9",
        "type": "t_uint256"
      },
      {
        "astId": 2778,
        "contract": "contracts/BlockBanana.sol:BlockBanana",
        "label": "hasSaleStarted",
        "offset": 0,
        "slot": "10",
        "type": "t_bool"
      },
      {
        "astId": 2781,
        "contract": "contracts/BlockBanana.sol:BlockBanana",
        "label": "whitelistSwitch",
        "offset": 1,
        "slot": "10",
        "type": "t_bool"
      },
      {
        "astId": 2784,
        "contract": "contracts/BlockBanana.sol:BlockBanana",
        "label": "treasury",
        "offset": 2,
        "slot": "10",
        "type": "t_address"
      },
      {
        "astId": 2788,
        "contract": "contracts/BlockBanana.sol:BlockBanana",
        "label": "hasMint",
        "offset": 0,
        "slot": "11",
        "type": "t_mapping(t_address,t_uint256)"
      },
      {
        "astId": 2793,
        "contract": "contracts/BlockBanana.sol:BlockBanana",
        "label": "idHolder",
        "offset": 0,
        "slot": "12",
        "type": "t_mapping(t_uint256,t_array(t_address)dyn_storage)"
      }
    ],
    "types": {
      "t_address": {
        "encoding": "inplace",
        "label": "address",
        "numberOfBytes": "20"
      },
      "t_array(t_address)dyn_storage": {
        "base": "t_address",
        "encoding": "dynamic_array",
        "label": "address[]",
        "numberOfBytes": "32"
      },
      "t_bool": {
        "encoding": "inplace",
        "label": "bool",
        "numberOfBytes": "1"
      },
      "t_mapping(t_address,t_bool)": {
        "encoding": "mapping",
        "key": "t_address",
        "label": "mapping(address => bool)",
        "numberOfBytes": "32",
        "value": "t_bool"
      },
      "t_mapping(t_address,t_mapping(t_address,t_bool))": {
        "encoding": "mapping",
        "key": "t_address",
        "label": "mapping(address => mapping(address => bool))",
        "numberOfBytes": "32",
        "value": "t_mapping(t_address,t_bool)"
      },
      "t_mapping(t_address,t_uint256)": {
        "encoding": "mapping",
        "key": "t_address",
        "label": "mapping(address => uint256)",
        "numberOfBytes": "32",
        "value": "t_uint256"
      },
      "t_mapping(t_uint256,t_array(t_address)dyn_storage)": {
        "encoding": "mapping",
        "key": "t_uint256",
        "label": "mapping(uint256 => address[])",
        "numberOfBytes": "32",
        "value": "t_array(t_address)dyn_storage"
      },
      "t_mapping(t_uint256,t_mapping(t_address,t_uint256))": {
        "encoding": "mapping",
        "key": "t_uint256",
        "label": "mapping(uint256 => mapping(address => uint256))",
        "numberOfBytes": "32",
        "value": "t_mapping(t_address,t_uint256)"
      },
      "t_string_storage": {
        "encoding": "bytes",
        "label": "string",
        "numberOfBytes": "32"
      },
      "t_uint256": {
        "encoding": "inplace",
        "label": "uint256",
        "numberOfBytes": "32"
      }
    }
  }
}