{
  "address": "0x1B16A386A7822ddBc88aBd21eC05EC99285Ac4d1",
  "abi": [
    {
      "inputs": [],
      "stateMutability": "nonpayable",
      "type": "constructor"
    },
    {
      "anonymous": false,
      "inputs": [
        {
          "indexed": true,
          "internalType": "address",
          "name": "account",
          "type": "address"
        },
        {
          "indexed": true,
          "internalType": "address",
          "name": "operator",
          "type": "address"
        },
        {
          "indexed": false,
          "internalType": "bool",
          "name": "approved",
          "type": "bool"
        }
      ],
      "name": "ApprovalForAll",
      "type": "event"
    },
    {
      "anonymous": false,
      "inputs": [
        {
          "indexed": true,
          "internalType": "address",
          "name": "previousOwner",
          "type": "address"
        },
        {
          "indexed": true,
          "internalType": "address",
          "name": "newOwner",
          "type": "address"
        }
      ],
      "name": "OwnershipTransferred",
      "type": "event"
    },
    {
      "anonymous": false,
      "inputs": [
        {
          "indexed": true,
          "internalType": "address",
          "name": "operator",
          "type": "address"
        },
        {
          "indexed": true,
          "internalType": "address",
          "name": "from",
          "type": "address"
        },
        {
          "indexed": true,
          "internalType": "address",
          "name": "to",
          "type": "address"
        },
        {
          "indexed": false,
          "internalType": "uint256[]",
          "name": "ids",
          "type": "uint256[]"
        },
        {
          "indexed": false,
          "internalType": "uint256[]",
          "name": "values",
          "type": "uint256[]"
        }
      ],
      "name": "TransferBatch",
      "type": "event"
    },
    {
      "anonymous": false,
      "inputs": [
        {
          "indexed": true,
          "internalType": "address",
          "name": "operator",
          "type": "address"
        },
        {
          "indexed": true,
          "internalType": "address",
          "name": "from",
          "type": "address"
        },
        {
          "indexed": true,
          "internalType": "address",
          "name": "to",
          "type": "address"
        },
        {
          "indexed": false,
          "internalType": "uint256",
          "name": "id",
          "type": "uint256"
        },
        {
          "indexed": false,
          "internalType": "uint256",
          "name": "value",
          "type": "uint256"
        }
      ],
      "name": "TransferSingle",
      "type": "event"
    },
    {
      "anonymous": false,
      "inputs": [
        {
          "indexed": false,
          "internalType": "string",
          "name": "value",
          "type": "string"
        },
        {
          "indexed": true,
          "internalType": "uint256",
          "name": "id",
          "type": "uint256"
        }
      ],
      "name": "URI",
      "type": "event"
    },
    {
      "anonymous": false,
      "inputs": [
        {
          "indexed": false,
          "internalType": "address",
          "name": "owner",
          "type": "address"
        },
        {
          "indexed": false,
          "internalType": "uint256",
          "name": "id",
          "type": "uint256"
        },
        {
          "indexed": false,
          "internalType": "uint256",
          "name": "quantity",
          "type": "uint256"
        },
        {
          "indexed": false,
          "internalType": "uint256",
          "name": "totalSupply",
          "type": "uint256"
        }
      ],
      "name": "mintEvent",
      "type": "event"
    },
    {
      "inputs": [],
      "name": "MAX_TOKEN",
      "outputs": [
        {
          "internalType": "uint256",
          "name": "",
          "type": "uint256"
        }
      ],
      "stateMutability": "view",
      "type": "function"
    },
    {
      "inputs": [],
      "name": "PRICE_1",
      "outputs": [
        {
          "internalType": "uint256",
          "name": "",
          "type": "uint256"
        }
      ],
      "stateMutability": "view",
      "type": "function"
    },
    {
      "inputs": [],
      "name": "PRICE_2",
      "outputs": [
        {
          "internalType": "uint256",
          "name": "",
          "type": "uint256"
        }
      ],
      "stateMutability": "view",
      "type": "function"
    },
    {
      "inputs": [],
      "name": "PRICE_3",
      "outputs": [
        {
          "internalType": "uint256",
          "name": "",
          "type": "uint256"
        }
      ],
      "stateMutability": "view",
      "type": "function"
    },
    {
      "inputs": [],
      "name": "PRICE_4",
      "outputs": [
        {
          "internalType": "uint256",
          "name": "",
          "type": "uint256"
        }
      ],
      "stateMutability": "view",
      "type": "function"
    },
    {
      "inputs": [
        {
          "internalType": "address",
          "name": "account",
          "type": "address"
        },
        {
          "internalType": "uint256",
          "name": "id",
          "type": "uint256"
        }
      ],
      "name": "balanceOf",
      "outputs": [
        {
          "internalType": "uint256",
          "name": "",
          "type": "uint256"
        }
      ],
      "stateMutability": "view",
      "type": "function"
    },
    {
      "inputs": [
        {
          "internalType": "address[]",
          "name": "accounts",
          "type": "address[]"
        },
        {
          "internalType": "uint256[]",
          "name": "ids",
          "type": "uint256[]"
        }
      ],
      "name": "balanceOfBatch",
      "outputs": [
        {
          "internalType": "uint256[]",
          "name": "",
          "type": "uint256[]"
        }
      ],
      "stateMutability": "view",
      "type": "function"
    },
    {
      "inputs": [
        {
          "internalType": "address",
          "name": "to",
          "type": "address"
        },
        {
          "internalType": "uint256",
          "name": "burn_id",
          "type": "uint256"
        },
        {
          "internalType": "uint256",
          "name": "quantity",
          "type": "uint256"
        }
      ],
      "name": "burn",
      "outputs": [],
      "stateMutability": "nonpayable",
      "type": "function"
    },
    {
      "inputs": [
        {
          "internalType": "address",
          "name": "to",
          "type": "address"
        },
        {
          "internalType": "uint256",
          "name": "token_id",
          "type": "uint256"
        },
        {
          "internalType": "uint256",
          "name": "quantity",
          "type": "uint256"
        }
      ],
      "name": "giveaway",
      "outputs": [],
      "stateMutability": "nonpayable",
      "type": "function"
    },
    {
      "inputs": [
        {
          "internalType": "address",
          "name": "",
          "type": "address"
        }
      ],
      "name": "hasMint",
      "outputs": [
        {
          "internalType": "uint256",
          "name": "",
          "type": "uint256"
        }
      ],
      "stateMutability": "view",
      "type": "function"
    },
    {
      "inputs": [],
      "name": "hasSaleStarted",
      "outputs": [
        {
          "internalType": "bool",
          "name": "",
          "type": "bool"
        }
      ],
      "stateMutability": "view",
      "type": "function"
    },
    {
      "inputs": [
        {
          "internalType": "uint256",
          "name": "",
          "type": "uint256"
        },
        {
          "internalType": "uint256",
          "name": "",
          "type": "uint256"
        }
      ],
      "name": "idHolder",
      "outputs": [
        {
          "internalType": "address",
          "name": "",
          "type": "address"
        }
      ],
      "stateMutability": "view",
      "type": "function"
    },
    {
      "inputs": [
        {
          "internalType": "uint256",
          "name": "",
          "type": "uint256"
        }
      ],
      "name": "idQuantity",
      "outputs": [
        {
          "internalType": "uint256",
          "name": "",
          "type": "uint256"
        }
      ],
      "stateMutability": "view",
      "type": "function"
    },
    {
      "inputs": [
        {
          "internalType": "address",
          "name": "account",
          "type": "address"
        },
        {
          "internalType": "address",
          "name": "operator",
          "type": "address"
        }
      ],
      "name": "isApprovedForAll",
      "outputs": [
        {
          "internalType": "bool",
          "name": "",
          "type": "bool"
        }
      ],
      "stateMutability": "view",
      "type": "function"
    },
    {
      "inputs": [
        {
          "internalType": "uint256",
          "name": "id",
          "type": "uint256"
        },
        {
          "internalType": "uint256",
          "name": "quantity",
          "type": "uint256"
        },
        {
          "internalType": "uint256",
          "name": "maxQuantity",
          "type": "uint256"
        },
        {
          "internalType": "bytes",
          "name": "SIGNATURE",
          "type": "bytes"
        }
      ],
      "name": "mintNFT",
      "outputs": [],
      "stateMutability": "payable",
      "type": "function"
    },
    {
      "inputs": [],
      "name": "name",
      "outputs": [
        {
          "internalType": "string",
          "name": "",
          "type": "string"
        }
      ],
      "stateMutability": "view",
      "type": "function"
    },
    {
      "inputs": [],
      "name": "owner",
      "outputs": [
        {
          "internalType": "address",
          "name": "",
          "type": "address"
        }
      ],
      "stateMutability": "view",
      "type": "function"
    },
    {
      "inputs": [
        {
          "internalType": "uint256",
          "name": "id",
          "type": "uint256"
        }
      ],
      "name": "ownerOfToken",
      "outputs": [
        {
          "internalType": "address[]",
          "name": "",
          "type": "address[]"
        }
      ],
      "stateMutability": "view",
      "type": "function"
    },
    {
      "inputs": [],
      "name": "renounceOwnership",
      "outputs": [],
      "stateMutability": "nonpayable",
      "type": "function"
    },
    {
      "inputs": [
        {
          "internalType": "address",
          "name": "from",
          "type": "address"
        },
        {
          "internalType": "address",
          "name": "to",
          "type": "address"
        },
        {
          "internalType": "uint256[]",
          "name": "ids",
          "type": "uint256[]"
        },
        {
          "internalType": "uint256[]",
          "name": "amounts",
          "type": "uint256[]"
        },
        {
          "internalType": "bytes",
          "name": "data",
          "type": "bytes"
        }
      ],
      "name": "safeBatchTransferFrom",
      "outputs": [],
      "stateMutability": "nonpayable",
      "type": "function"
    },
    {
      "inputs": [
        {
          "internalType": "address",
          "name": "from",
          "type": "address"
        },
        {
          "internalType": "address",
          "name": "to",
          "type": "address"
        },
        {
          "internalType": "uint256",
          "name": "id",
          "type": "uint256"
        },
        {
          "internalType": "uint256",
          "name": "amount",
          "type": "uint256"
        },
        {
          "internalType": "bytes",
          "name": "data",
          "type": "bytes"
        }
      ],
      "name": "safeTransferFrom",
      "outputs": [],
      "stateMutability": "nonpayable",
      "type": "function"
    },
    {
      "inputs": [],
      "name": "saleTimestamp",
      "outputs": [
        {
          "internalType": "uint256",
          "name": "",
          "type": "uint256"
        }
      ],
      "stateMutability": "view",
      "type": "function"
    },
    {
      "inputs": [
        {
          "internalType": "address",
          "name": "operator",
          "type": "address"
        },
        {
          "internalType": "bool",
          "name": "approved",
          "type": "bool"
        }
      ],
      "name": "setApprovalForAll",
      "outputs": [],
      "stateMutability": "nonpayable",
      "type": "function"
    },
    {
      "inputs": [
        {
          "internalType": "string",
          "name": "baseURI",
          "type": "string"
        }
      ],
      "name": "setBaseURI",
      "outputs": [],
      "stateMutability": "nonpayable",
      "type": "function"
    },
    {
      "inputs": [
        {
          "internalType": "uint256",
          "name": "_MAX_TOKEN",
          "type": "uint256"
        }
      ],
      "name": "setMAX_TOKEN",
      "outputs": [],
      "stateMutability": "nonpayable",
      "type": "function"
    },
    {
      "inputs": [
        {
          "internalType": "bool",
          "name": "_hasSaleStarted",
          "type": "bool"
        },
        {
          "internalType": "uint256",
          "name": "_saleTimestamp",
          "type": "uint256"
        },
        {
          "internalType": "bool",
          "name": "_whitelistSwitch",
          "type": "bool"
        }
      ],
      "name": "setSaleTime",
      "outputs": [],
      "stateMutability": "nonpayable",
      "type": "function"
    },
    {
      "inputs": [
        {
          "internalType": "address",
          "name": "_treasury",
          "type": "address"
        }
      ],
      "name": "setTreasury",
      "outputs": [],
      "stateMutability": "nonpayable",
      "type": "function"
    },
    {
      "inputs": [
        {
          "internalType": "uint256",
          "name": "token_id",
          "type": "uint256"
        },
        {
          "internalType": "uint256",
          "name": "_price",
          "type": "uint256"
        }
      ],
      "name": "set_PRICE",
      "outputs": [],
      "stateMutability": "nonpayable",
      "type": "function"
    },
    {
      "inputs": [
        {
          "internalType": "bytes4",
          "name": "interfaceId",
          "type": "bytes4"
        }
      ],
      "name": "supportsInterface",
      "outputs": [
        {
          "internalType": "bool",
          "name": "",
          "type": "bool"
        }
      ],
      "stateMutability": "view",
      "type": "function"
    },
    {
      "inputs": [],
      "name": "symbol",
      "outputs": [
        {
          "internalType": "string",
          "name": "",
          "type": "string"
        }
      ],
      "stateMutability": "view",
      "type": "function"
    },
    {
      "inputs": [],
      "name": "totalSupply",
      "outputs": [
        {
          "internalType": "uint256",
          "name": "",
          "type": "uint256"
        }
      ],
      "stateMutability": "view",
      "type": "function"
    },
    {
      "inputs": [
        {
          "internalType": "address",
          "name": "newOwner",
          "type": "address"
        }
      ],
      "name": "transferOwnership",
      "outputs": [],
      "stateMutability": "nonpayable",
      "type": "function"
    },
    {
      "inputs": [],
      "name": "treasury",
      "outputs": [
        {
          "internalType": "address",
          "name": "",
          "type": "address"
        }
      ],
      "stateMutability": "view",
      "type": "function"
    },
    {
      "inputs": [
        {
          "internalType": "uint256",
          "name": "",
          "type": "uint256"
        }
      ],
      "name": "uri",
      "outputs": [
        {
          "internalType": "string",
          "name": "",
          "type": "string"
        }
      ],
      "stateMutability": "view",
      "type": "function"
    },
    {
      "inputs": [
        {
          "internalType": "uint256",
          "name": "maxQuantity",
          "type": "uint256"
        },
        {
          "internalType": "bytes",
          "name": "SIGNATURE",
          "type": "bytes"
        }
      ],
      "name": "verify",
      "outputs": [
        {
          "internalType": "bool",
          "name": "",
          "type": "bool"
        }
      ],
      "stateMutability": "view",
      "type": "function"
    },
    {
      "inputs": [],
      "name": "whitelistSwitch",
      "outputs": [
        {
          "internalType": "bool",
          "name": "",
          "type": "bool"
        }
      ],
      "stateMutability": "view",
      "type": "function"
    },
    {
      "inputs": [],
      "name": "withdrawAll",
      "outputs": [],
      "stateMutability": "payable",
      "type": "function"
    }
  ],
  "transactionHash": "0x314f57c07ab39d4f2bb5d426b44166bc08708ae2524a118b79845a52157de9da",
  "args": [],
  "numDeployments": 6,
  "solcInputHash": "eebbed20d5e9eb8d9e64312bff85c20d",
  "bytecode": "0x6101206040526040518060400160405280600281526020017f42420000000000000000000000000000000000000000000000000000000000008152506004908051906020019062000052929190620003dc565b506040518060400160405280600281526020017f424200000000000000000000000000000000000000000000000000000000000081525060059080519060200190620000a0929190620003dc565b50612710600655678ac7230489e80000600755674563918244f40000600855670de0b6b3a76400006009556706f05b59d3b20000600a556361e53010600b556000600c556001600d60006101000a81548160ff0219169083151502179055506001600d60016101000a81548160ff02191690831515021790555073d56e7bcf62a417b821e6cf7ee16df7715a3e82ab600d60026101000a81548173ffffffffffffffffffffffffffffffffffffffff021916908373ffffffffffffffffffffffffffffffffffffffff1602179055503480156200017c57600080fd5b506040518060600160405280602581526020016200639a602591396040518060400160405280600c81526020017f426c6f636b2042616e616e6100000000000000000000000000000000000000008152506040518060400160405280600581526020017f312e302e300000000000000000000000000000000000000000000000000000008152506200022362000217620002b860201b60201c565b620002c060201b60201c565b60008280519060200120905060008280519060200120905060007f8b73c3c69bb8fe3d512ecc4cf759cc79239f7b179b0ffacaa9a75d522b39400f90508260c081815250508160e081815250504660a081815250506200028b8184846200038460201b60201c565b608081815250508061010081815250505050505050620002b181620003c060201b60201c565b50620005c9565b600033905090565b60008060009054906101000a900473ffffffffffffffffffffffffffffffffffffffff169050816000806101000a81548173ffffffffffffffffffffffffffffffffffffffff021916908373ffffffffffffffffffffffffffffffffffffffff1602179055508173ffffffffffffffffffffffffffffffffffffffff168173ffffffffffffffffffffffffffffffffffffffff167f8be0079c531659141344cd1fd0a4f28419497f9722a3daafe3b4186f6b6457e060405160405180910390a35050565b60008383834630604051602001620003a1959493929190620004bf565b6040516020818303038152906040528051906020012090509392505050565b8060039080519060200190620003d8929190620003dc565b5050565b828054620003ea9062000564565b90600052602060002090601f0160209004810192826200040e57600085556200045a565b82601f106200042957805160ff19168380011785556200045a565b828001600101855582156200045a579182015b82811115620004595782518255916020019190600101906200043c565b5b5090506200046991906200046d565b5090565b5b80821115620004885760008160009055506001016200046e565b5090565b62000497816200051c565b82525050565b620004a88162000530565b82525050565b620004b9816200055a565b82525050565b600060a082019050620004d660008301886200049d565b620004e560208301876200049d565b620004f460408301866200049d565b620005036060830185620004ae565b6200051260808301846200048c565b9695505050505050565b600062000529826200053a565b9050919050565b6000819050919050565b600073ffffffffffffffffffffffffffffffffffffffff82169050919050565b6000819050919050565b600060028204905060018216806200057d57607f821691505b602082108114156200059457620005936200059a565b5b50919050565b7f4e487b7100000000000000000000000000000000000000000000000000000000600052602260045260246000fd5b60805160a05160c05160e05161010051615d8c6200060e6000396000613679015260006136bb0152600061369a015260006136260152600061364e0152615d8c6000f3fe6080604052600436106102195760003560e01c8063715018a611610123578063c1c25bc5116100ab578063e985e9c51161006f578063e985e9c5146107ce578063f0f442601461080b578063f242432a14610834578063f2fde38b1461085d578063f5298aca1461088657610219565b8063c1c25bc5146106c1578063c57ac5d6146106fe578063c6b13e901461073b578063c72e8baf14610778578063c7822598146107a357610219565b80638da5cb5b116100f25780638da5cb5b146105ee57806395d89b41146106195780639d23ef0314610644578063a22cb4651461066d578063bcd25ee51461069657610219565b8063715018a614610567578063795172641461057e578063853828b6146105a757806385852ce4146105b157610219565b80632eb2c2d6116101a65780634e1273f4116101755780634e1273f41461048057806355f804b3146104bd57806356d44694146104e657806361d027b3146105115780636e1bd3231461053c57610219565b80632eb2c2d6146103e757806339cce68e146104105780634891f401146104395780634915f0701461046457610219565b8063145000ab116101ed578063145000ab14610300578063151bc72f1461032b57806318160ddd146103685780631c8b232d1461039357806327d523ef146103be57610219565b8062fdd58e1461021e57806301ffc9a71461025b57806306fdde03146102985780630e89341c146102c3575b600080fd5b34801561022a57600080fd5b506102456004803603810190610240919061418b565b6108af565b604051610252919061508a565b60405180910390f35b34801561026757600080fd5b50610282600480360381019061027d91906142d1565b610979565b60405161028f9190614c1e565b60405180910390f35b3480156102a457600080fd5b506102ad610a5b565b6040516102ba9190614d08565b60405180910390f35b3480156102cf57600080fd5b506102ea60048036038101906102e59190614364565b610aed565b6040516102f79190614d08565b60405180910390f35b34801561030c57600080fd5b50610315610b81565b604051610322919061508a565b60405180910390f35b34801561033757600080fd5b50610352600480360381019061034d9190614364565b610b87565b60405161035f919061508a565b60405180910390f35b34801561037457600080fd5b5061037d610b9f565b60405161038a919061508a565b60405180910390f35b34801561039f57600080fd5b506103a8610ba5565b6040516103b59190614c1e565b60405180910390f35b3480156103ca57600080fd5b506103e560048036038101906103e091906141c7565b610bb8565b005b3480156103f357600080fd5b5061040e60048036038101906104099190614001565b610e4d565b005b34801561041c57600080fd5b5061043760048036038101906104329190614282565b610eee565b005b34801561044557600080fd5b5061044e610faa565b60405161045b919061508a565b60405180910390f35b61047e6004803603810190610479919061441d565b610fb0565b005b34801561048c57600080fd5b506104a760048036038101906104a29190614216565b61176a565b6040516104b49190614bc5565b60405180910390f35b3480156104c957600080fd5b506104e460048036038101906104df9190614323565b61191b565b005b3480156104f257600080fd5b506104fb6119a3565b604051610508919061508a565b60405180910390f35b34801561051d57600080fd5b506105266119a9565b6040516105339190614a81565b60405180910390f35b34801561054857600080fd5b506105516119cf565b60405161055e919061508a565b60405180910390f35b34801561057357600080fd5b5061057c6119d5565b005b34801561058a57600080fd5b506105a560048036038101906105a091906143e1565b611a5d565b005b6105af611b30565b005b3480156105bd57600080fd5b506105d860048036038101906105d3919061438d565b611c0e565b6040516105e59190614c1e565b60405180910390f35b3480156105fa57600080fd5b50610603611cb5565b6040516106109190614a81565b60405180910390f35b34801561062557600080fd5b5061062e611cde565b60405161063b9190614d08565b60405180910390f35b34801561065057600080fd5b5061066b60048036038101906106669190614364565b611d70565b005b34801561067957600080fd5b50610694600480360381019061068f919061414f565b611df6565b005b3480156106a257600080fd5b506106ab611f77565b6040516106b89190614c1e565b60405180910390f35b3480156106cd57600080fd5b506106e860048036038101906106e39190613f9c565b611f8a565b6040516106f5919061508a565b60405180910390f35b34801561070a57600080fd5b5061072560048036038101906107209190614364565b611fa2565b6040516107329190614ba3565b60405180910390f35b34801561074757600080fd5b50610762600480360381019061075d91906143e1565b6121c6565b60405161076f9190614a81565b60405180910390f35b34801561078457600080fd5b5061078d612214565b60405161079a919061508a565b60405180910390f35b3480156107af57600080fd5b506107b861221a565b6040516107c5919061508a565b60405180910390f35b3480156107da57600080fd5b506107f560048036038101906107f09190613fc5565b612220565b6040516108029190614c1e565b60405180910390f35b34801561081757600080fd5b50610832600480360381019061082d9190613f9c565b6122b4565b005b34801561084057600080fd5b5061085b600480360381019061085691906140c0565b612406565b005b34801561086957600080fd5b50610884600480360381019061087f9190613f9c565b6124a7565b005b34801561089257600080fd5b506108ad60048036038101906108a891906141c7565b61259f565b005b60008073ffffffffffffffffffffffffffffffffffffffff168373ffffffffffffffffffffffffffffffffffffffff161415610920576040517f08c379a000000000000000000000000000000000000000000000000000000000815260040161091790614e2a565b60405180910390fd5b6001600083815260200190815260200160002060008473ffffffffffffffffffffffffffffffffffffffff1673ffffffffffffffffffffffffffffffffffffffff16815260200190815260200160002054905092915050565b60007fd9b67a26000000000000000000000000000000000000000000000000000000007bffffffffffffffffffffffffffffffffffffffffffffffffffffffff1916827bffffffffffffffffffffffffffffffffffffffffffffffffffffffff19161480610a4457507f0e89341c000000000000000000000000000000000000000000000000000000007bffffffffffffffffffffffffffffffffffffffffffffffffffffffff1916827bffffffffffffffffffffffffffffffffffffffffffffffffffffffff1916145b80610a545750610a538261262b565b5b9050919050565b606060048054610a6a906153df565b80601f0160208091040260200160405190810160405280929190818152602001828054610a96906153df565b8015610ae35780601f10610ab857610100808354040283529160200191610ae3565b820191906000526020600020905b815481529060010190602001808311610ac657829003601f168201915b5050505050905090565b606060038054610afc906153df565b80601f0160208091040260200160405190810160405280929190818152602001828054610b28906153df565b8015610b755780601f10610b4a57610100808354040283529160200191610b75565b820191906000526020600020905b815481529060010190602001808311610b5857829003601f168201915b50505050509050919050565b60085481565b600f6020528060005260406000206000915090505481565b600c5481565b600d60009054906101000a900460ff1681565b610bc0612695565b73ffffffffffffffffffffffffffffffffffffffff16610bde611cb5565b73ffffffffffffffffffffffffffffffffffffffff1614610c34576040517f08c379a0000000000000000000000000000000000000000000000000000000008152600401610c2b90614f8a565b60405180910390fd5b600654610c4c82600c5461269d90919063ffffffff16565b1115610c8d576040517f08c379a0000000000000000000000000000000000000000000000000000000008152600401610c8490614daa565b60405180910390fd5b610ca8838383604051806020016040528060008152506126b3565b610cfa81600e60008673ffffffffffffffffffffffffffffffffffffffff1673ffffffffffffffffffffffffffffffffffffffff1681526020019081526020016000205461269d90919063ffffffff16565b600e60008573ffffffffffffffffffffffffffffffffffffffff1673ffffffffffffffffffffffffffffffffffffffff16815260200190815260200160002081905550610d5281600c5461269d90919063ffffffff16565b600c8190555060106000838152602001908152602001600020839080600181540180825580915050600190039060005260206000200160009091909190916101000a81548173ffffffffffffffffffffffffffffffffffffffff021916908373ffffffffffffffffffffffffffffffffffffffff160217905550610df281600f60008581526020019081526020016000205461269d90919063ffffffff16565b600f6000848152602001908152602001600020819055507fb32c32014221c522f5b713daa9a1df4bd21450f8b5c763ba3ca01f088f95c864838383600c54604051610e409493929190614b5e565b60405180910390a1505050565b610e55612695565b73ffffffffffffffffffffffffffffffffffffffff168573ffffffffffffffffffffffffffffffffffffffff161480610e9b5750610e9a85610e95612695565b612220565b5b610eda576040517f08c379a0000000000000000000000000000000000000000000000000000000008152600401610ed190614f0a565b60405180910390fd5b610ee7858585858561284a565b5050505050565b610ef6612695565b73ffffffffffffffffffffffffffffffffffffffff16610f14611cb5565b73ffffffffffffffffffffffffffffffffffffffff1614610f6a576040517f08c379a0000000000000000000000000000000000000000000000000000000008152600401610f6190614f8a565b60405180910390fd5b82600d60006101000a81548160ff02191690831515021790555081600b8190555080600d60016101000a81548160ff021916908315150217905550505050565b60075481565b60011515600d60009054906101000a900460ff16151514611006576040517f08c379a0000000000000000000000000000000000000000000000000000000008152600401610ffd90614faa565b60405180910390fd5b600b5442101561104b576040517f08c379a000000000000000000000000000000000000000000000000000000000815260040161104290614d6a565b60405180910390fd5b60011515600d60019054906101000a900460ff16151514156110b1576110718282611c0e565b6110b0576040517f08c379a00000000000000000000000000000000000000000000000000000000081526004016110a790614dea565b60405180910390fd5b5b6006546110c984600c5461269d90919063ffffffff16565b111561110a576040517f08c379a000000000000000000000000000000000000000000000000000000000815260040161110190614daa565b60405180910390fd5b60008311801561116c5750600261116984600e60003373ffffffffffffffffffffffffffffffffffffffff1673ffffffffffffffffffffffffffffffffffffffff1681526020019081526020016000205461269d90919063ffffffff16565b11155b6111ab576040517f08c379a00000000000000000000000000000000000000000000000000000000081526004016111a290614fca565b60405180910390fd5b6000841180156111bc575060048411155b6111fb576040517f08c379a00000000000000000000000000000000000000000000000000000000081526004016111f290614fea565b60405180910390fd5b60018414156113135761121983600754612bad90919063ffffffff16565b341461125a576040517f08c379a000000000000000000000000000000000000000000000000000000000815260040161125190614e4a565b60405180910390fd5b6010600060018152602001908152602001600020339080600181540180825580915050600190039060005260206000200160009091909190916101000a81548173ffffffffffffffffffffffffffffffffffffffff021916908373ffffffffffffffffffffffffffffffffffffffff1602179055506112f683600f6000600181526020019081526020016000205461269d90919063ffffffff16565b600f6000600181526020019081526020016000208190555061165a565b600284141561142b5761133183600854612bad90919063ffffffff16565b3414611372576040517f08c379a000000000000000000000000000000000000000000000000000000000815260040161136990614e4a565b60405180910390fd5b6010600060028152602001908152602001600020339080600181540180825580915050600190039060005260206000200160009091909190916101000a81548173ffffffffffffffffffffffffffffffffffffffff021916908373ffffffffffffffffffffffffffffffffffffffff16021790555061140e83600f6000600281526020019081526020016000205461269d90919063ffffffff16565b600f60006002815260200190815260200160002081905550611659565b60038414156115435761144983600954612bad90919063ffffffff16565b341461148a576040517f08c379a000000000000000000000000000000000000000000000000000000000815260040161148190614e4a565b60405180910390fd5b6010600060038152602001908152602001600020339080600181540180825580915050600190039060005260206000200160009091909190916101000a81548173ffffffffffffffffffffffffffffffffffffffff021916908373ffffffffffffffffffffffffffffffffffffffff16021790555061152683600f6000600381526020019081526020016000205461269d90919063ffffffff16565b600f60006003815260200190815260200160002081905550611658565b60048414156116575761156183600a54612bad90919063ffffffff16565b34146115a2576040517f08c379a000000000000000000000000000000000000000000000000000000000815260040161159990614e4a565b60405180910390fd5b6010600060048152602001908152602001600020339080600181540180825580915050600190039060005260206000200160009091909190916101000a81548173ffffffffffffffffffffffffffffffffffffffff021916908373ffffffffffffffffffffffffffffffffffffffff16021790555061163e83600f6000600481526020019081526020016000205461269d90919063ffffffff16565b600f600060048152602001908152602001600020819055505b5b5b5b611675338585604051806020016040528060008152506126b3565b6116c783600e60003373ffffffffffffffffffffffffffffffffffffffff1673ffffffffffffffffffffffffffffffffffffffff1681526020019081526020016000205461269d90919063ffffffff16565b600e60003373ffffffffffffffffffffffffffffffffffffffff1673ffffffffffffffffffffffffffffffffffffffff1681526020019081526020016000208190555061171f83600c5461269d90919063ffffffff16565b600c819055507fb32c32014221c522f5b713daa9a1df4bd21450f8b5c763ba3ca01f088f95c864338585600c5460405161175c9493929190614b5e565b60405180910390a150505050565b606081518351146117b0576040517f08c379a00000000000000000000000000000000000000000000000000000000081526004016117a79061502a565b60405180910390fd5b6000835167ffffffffffffffff8111156117f3577f4e487b7100000000000000000000000000000000000000000000000000000000600052604160045260246000fd5b6040519080825280602002602001820160405280156118215781602001602082028036833780820191505090505b50905060005b8451811015611910576118ba85828151811061186c577f4e487b7100000000000000000000000000000000000000000000000000000000600052603260045260246000fd5b60200260200101518583815181106118ad577f4e487b7100000000000000000000000000000000000000000000000000000000600052603260045260246000fd5b60200260200101516108af565b8282815181106118f3577f4e487b7100000000000000000000000000000000000000000000000000000000600052603260045260246000fd5b6020026020010181815250508061190990615442565b9050611827565b508091505092915050565b611923612695565b73ffffffffffffffffffffffffffffffffffffffff16611941611cb5565b73ffffffffffffffffffffffffffffffffffffffff1614611997576040517f08c379a000000000000000000000000000000000000000000000000000000000815260040161198e90614f8a565b60405180910390fd5b6119a081612bc3565b50565b600a5481565b600d60029054906101000a900473ffffffffffffffffffffffffffffffffffffffff1681565b60065481565b6119dd612695565b73ffffffffffffffffffffffffffffffffffffffff166119fb611cb5565b73ffffffffffffffffffffffffffffffffffffffff1614611a51576040517f08c379a0000000000000000000000000000000000000000000000000000000008152600401611a4890614f8a565b60405180910390fd5b611a5b6000612bdd565b565b611a65612695565b73ffffffffffffffffffffffffffffffffffffffff16611a83611cb5565b73ffffffffffffffffffffffffffffffffffffffff1614611ad9576040517f08c379a0000000000000000000000000000000000000000000000000000000008152600401611ad090614f8a565b60405180910390fd5b6001821415611aee5780600781905550611b2c565b6002821415611b035780600881905550611b2b565b6003821415611b185780600981905550611b2a565b6004821415611b295780600a819055505b5b5b5b5050565b611b38612695565b73ffffffffffffffffffffffffffffffffffffffff16611b56611cb5565b73ffffffffffffffffffffffffffffffffffffffff1614611bac576040517f08c379a0000000000000000000000000000000000000000000000000000000008152600401611ba390614f8a565b60405180910390fd5b600d60029054906101000a900473ffffffffffffffffffffffffffffffffffffffff1673ffffffffffffffffffffffffffffffffffffffff166108fc479081150290604051600060405180830381858888f19350505050611c0c57600080fd5b565b600080611c74611c6e7f182854de6a51f3818344a7eb784b9d55c1e6d2d20c9f9aea309f5daaaaddfec1611c40612695565b87604051602001611c5393929190614c39565b60405160208183030381529060405280519060200120612ca1565b84612cbb565b90508073ffffffffffffffffffffffffffffffffffffffff16611c95611cb5565b73ffffffffffffffffffffffffffffffffffffffff161491505092915050565b60008060009054906101000a900473ffffffffffffffffffffffffffffffffffffffff16905090565b606060058054611ced906153df565b80601f0160208091040260200160405190810160405280929190818152602001828054611d19906153df565b8015611d665780601f10611d3b57610100808354040283529160200191611d66565b820191906000526020600020905b815481529060010190602001808311611d4957829003601f168201915b5050505050905090565b611d78612695565b73ffffffffffffffffffffffffffffffffffffffff16611d96611cb5565b73ffffffffffffffffffffffffffffffffffffffff1614611dec576040517f08c379a0000000000000000000000000000000000000000000000000000000008152600401611de390614f8a565b60405180910390fd5b8060068190555050565b8173ffffffffffffffffffffffffffffffffffffffff16611e15612695565b73ffffffffffffffffffffffffffffffffffffffff161415611e6c576040517f08c379a0000000000000000000000000000000000000000000000000000000008152600401611e639061500a565b60405180910390fd5b8060026000611e79612695565b73ffffffffffffffffffffffffffffffffffffffff1673ffffffffffffffffffffffffffffffffffffffff16815260200190815260200160002060008473ffffffffffffffffffffffffffffffffffffffff1673ffffffffffffffffffffffffffffffffffffffff16815260200190815260200160002060006101000a81548160ff0219169083151502179055508173ffffffffffffffffffffffffffffffffffffffff16611f26612695565b73ffffffffffffffffffffffffffffffffffffffff167f17307eab39ab6107e8899845ad3d59bd9653f200f220920489ca2b5937696c3183604051611f6b9190614c1e565b60405180910390a35050565b600d60019054906101000a900460ff1681565b600e6020528060005260406000206000915090505481565b6060600060106000848152602001908152602001600020805490509050600081141561204057600067ffffffffffffffff811115612009577f4e487b7100000000000000000000000000000000000000000000000000000000600052604160045260246000fd5b6040519080825280602002602001820160405280156120375781602001602082028036833780820191505090505b509150506121c1565b60008167ffffffffffffffff811115612082577f4e487b7100000000000000000000000000000000000000000000000000000000600052604160045260246000fd5b6040519080825280602002602001820160405280156120b05781602001602082028036833780820191505090505b50905060005b828110156121ba57601060008681526020019081526020016000208181548110612109577f4e487b7100000000000000000000000000000000000000000000000000000000600052603260045260246000fd5b9060005260206000200160009054906101000a900473ffffffffffffffffffffffffffffffffffffffff1682828151811061216d577f4e487b7100000000000000000000000000000000000000000000000000000000600052603260045260246000fd5b602002602001019073ffffffffffffffffffffffffffffffffffffffff16908173ffffffffffffffffffffffffffffffffffffffff168152505080806121b290615442565b9150506120b6565b8193505050505b919050565b601060205281600052604060002081815481106121e257600080fd5b906000526020600020016000915091509054906101000a900473ffffffffffffffffffffffffffffffffffffffff1681565b60095481565b600b5481565b6000600260008473ffffffffffffffffffffffffffffffffffffffff1673ffffffffffffffffffffffffffffffffffffffff16815260200190815260200160002060008373ffffffffffffffffffffffffffffffffffffffff1673ffffffffffffffffffffffffffffffffffffffff16815260200190815260200160002060009054906101000a900460ff16905092915050565b6122bc612695565b73ffffffffffffffffffffffffffffffffffffffff166122da611cb5565b73ffffffffffffffffffffffffffffffffffffffff1614612330576040517f08c379a000000000000000000000000000000000000000000000000000000000815260040161232790614f8a565b60405180910390fd5b600073ffffffffffffffffffffffffffffffffffffffff16600d60029054906101000a900473ffffffffffffffffffffffffffffffffffffffff1673ffffffffffffffffffffffffffffffffffffffff1614156123c2576040517f08c379a00000000000000000000000000000000000000000000000000000000081526004016123b990614dca565b60405180910390fd5b80600d60026101000a81548173ffffffffffffffffffffffffffffffffffffffff021916908373ffffffffffffffffffffffffffffffffffffffff16021790555050565b61240e612695565b73ffffffffffffffffffffffffffffffffffffffff168573ffffffffffffffffffffffffffffffffffffffff16148061245457506124538561244e612695565b612220565b5b612493576040517f08c379a000000000000000000000000000000000000000000000000000000000815260040161248a90614eaa565b60405180910390fd5b6124a08585858585612ce2565b5050505050565b6124af612695565b73ffffffffffffffffffffffffffffffffffffffff166124cd611cb5565b73ffffffffffffffffffffffffffffffffffffffff1614612523576040517f08c379a000000000000000000000000000000000000000000000000000000000815260040161251a90614f8a565b60405180910390fd5b600073ffffffffffffffffffffffffffffffffffffffff168173ffffffffffffffffffffffffffffffffffffffff161415612593576040517f08c379a000000000000000000000000000000000000000000000000000000000815260040161258a90614e6a565b60405180910390fd5b61259c81612bdd565b50565b6125a7612695565b73ffffffffffffffffffffffffffffffffffffffff166125c5611cb5565b73ffffffffffffffffffffffffffffffffffffffff161461261b576040517f08c379a000000000000000000000000000000000000000000000000000000000815260040161261290614f8a565b60405180910390fd5b612626838383612f67565b505050565b60007f01ffc9a7000000000000000000000000000000000000000000000000000000007bffffffffffffffffffffffffffffffffffffffffffffffffffffffff1916827bffffffffffffffffffffffffffffffffffffffffffffffffffffffff1916149050919050565b600033905090565b600081836126ab9190615262565b905092915050565b600073ffffffffffffffffffffffffffffffffffffffff168473ffffffffffffffffffffffffffffffffffffffff161415612723576040517f08c379a000000000000000000000000000000000000000000000000000000000815260040161271a9061506a565b60405180910390fd5b600061272d612695565b905061274e8160008761273f88613186565b61274888613186565b8761324c565b826001600086815260200190815260200160002060008773ffffffffffffffffffffffffffffffffffffffff1673ffffffffffffffffffffffffffffffffffffffff16815260200190815260200160002060008282546127ae9190615262565b925050819055508473ffffffffffffffffffffffffffffffffffffffff16600073ffffffffffffffffffffffffffffffffffffffff168273ffffffffffffffffffffffffffffffffffffffff167fc3d58168c5ae7397731d063d5bbf3d657854427343f4c083240f7aacaa2d0f62878760405161282c9291906150a5565b60405180910390a461284381600087878787613254565b5050505050565b815183511461288e576040517f08c379a00000000000000000000000000000000000000000000000000000000081526004016128859061504a565b60405180910390fd5b600073ffffffffffffffffffffffffffffffffffffffff168473ffffffffffffffffffffffffffffffffffffffff1614156128fe576040517f08c379a00000000000000000000000000000000000000000000000000000000081526004016128f590614eea565b60405180910390fd5b6000612908612695565b905061291881878787878761324c565b60005b8451811015612b1857600085828151811061295f577f4e487b7100000000000000000000000000000000000000000000000000000000600052603260045260246000fd5b6020026020010151905060008583815181106129a4577f4e487b7100000000000000000000000000000000000000000000000000000000600052603260045260246000fd5b6020026020010151905060006001600084815260200190815260200160002060008b73ffffffffffffffffffffffffffffffffffffffff1673ffffffffffffffffffffffffffffffffffffffff16815260200190815260200160002054905081811015612a46576040517f08c379a0000000000000000000000000000000000000000000000000000000008152600401612a3d90614f6a565b60405180910390fd5b8181036001600085815260200190815260200160002060008c73ffffffffffffffffffffffffffffffffffffffff1673ffffffffffffffffffffffffffffffffffffffff16815260200190815260200160002081905550816001600085815260200190815260200160002060008b73ffffffffffffffffffffffffffffffffffffffff1673ffffffffffffffffffffffffffffffffffffffff1681526020019081526020016000206000828254612afd9190615262565b9250508190555050505080612b1190615442565b905061291b565b508473ffffffffffffffffffffffffffffffffffffffff168673ffffffffffffffffffffffffffffffffffffffff168273ffffffffffffffffffffffffffffffffffffffff167f4a39dc06d4c0dbc64b70af90fd698a233a518aa5d07e595d983b8c0526c8f7fb8787604051612b8f929190614be7565b60405180910390a4612ba581878787878761343b565b505050505050565b60008183612bbb91906152b8565b905092915050565b8060039080519060200190612bd9929190613c94565b5050565b60008060009054906101000a900473ffffffffffffffffffffffffffffffffffffffff169050816000806101000a81548173ffffffffffffffffffffffffffffffffffffffff021916908373ffffffffffffffffffffffffffffffffffffffff1602179055508173ffffffffffffffffffffffffffffffffffffffff168173ffffffffffffffffffffffffffffffffffffffff167f8be0079c531659141344cd1fd0a4f28419497f9722a3daafe3b4186f6b6457e060405160405180910390a35050565b6000612cb4612cae613622565b836136e5565b9050919050565b6000806000612cca8585613718565b91509150612cd78161379b565b819250505092915050565b600073ffffffffffffffffffffffffffffffffffffffff168473ffffffffffffffffffffffffffffffffffffffff161415612d52576040517f08c379a0000000000000000000000000000000000000000000000000000000008152600401612d4990614eea565b60405180910390fd5b6000612d5c612695565b9050612d7c818787612d6d88613186565b612d7688613186565b8761324c565b60006001600086815260200190815260200160002060008873ffffffffffffffffffffffffffffffffffffffff1673ffffffffffffffffffffffffffffffffffffffff16815260200190815260200160002054905083811015612e14576040517f08c379a0000000000000000000000000000000000000000000000000000000008152600401612e0b90614f6a565b60405180910390fd5b8381036001600087815260200190815260200160002060008973ffffffffffffffffffffffffffffffffffffffff1673ffffffffffffffffffffffffffffffffffffffff16815260200190815260200160002081905550836001600087815260200190815260200160002060008873ffffffffffffffffffffffffffffffffffffffff1673ffffffffffffffffffffffffffffffffffffffff1681526020019081526020016000206000828254612ecb9190615262565b925050819055508573ffffffffffffffffffffffffffffffffffffffff168773ffffffffffffffffffffffffffffffffffffffff168373ffffffffffffffffffffffffffffffffffffffff167fc3d58168c5ae7397731d063d5bbf3d657854427343f4c083240f7aacaa2d0f628888604051612f489291906150a5565b60405180910390a4612f5e828888888888613254565b50505050505050565b600073ffffffffffffffffffffffffffffffffffffffff168373ffffffffffffffffffffffffffffffffffffffff161415612fd7576040517f08c379a0000000000000000000000000000000000000000000000000000000008152600401612fce90614f4a565b60405180910390fd5b6000612fe1612695565b905061301181856000612ff387613186565b612ffc87613186565b6040518060200160405280600081525061324c565b60006001600085815260200190815260200160002060008673ffffffffffffffffffffffffffffffffffffffff1673ffffffffffffffffffffffffffffffffffffffff168152602001908152602001600020549050828110156130a9576040517f08c379a00000000000000000000000000000000000000000000000000000000081526004016130a090614e8a565b60405180910390fd5b8281036001600086815260200190815260200160002060008773ffffffffffffffffffffffffffffffffffffffff1673ffffffffffffffffffffffffffffffffffffffff16815260200190815260200160002081905550600073ffffffffffffffffffffffffffffffffffffffff168573ffffffffffffffffffffffffffffffffffffffff168373ffffffffffffffffffffffffffffffffffffffff167fc3d58168c5ae7397731d063d5bbf3d657854427343f4c083240f7aacaa2d0f6287876040516131779291906150a5565b60405180910390a45050505050565b60606000600167ffffffffffffffff8111156131cb577f4e487b7100000000000000000000000000000000000000000000000000000000600052604160045260246000fd5b6040519080825280602002602001820160405280156131f95781602001602082028036833780820191505090505b5090508281600081518110613237577f4e487b7100000000000000000000000000000000000000000000000000000000600052603260045260246000fd5b60200260200101818152505080915050919050565b505050505050565b6132738473ffffffffffffffffffffffffffffffffffffffff16613aec565b15613433578373ffffffffffffffffffffffffffffffffffffffff1663f23a6e6187878686866040518663ffffffff1660e01b81526004016132b9959493929190614b04565b602060405180830381600087803b1580156132d357600080fd5b505af192505050801561330457506040513d601f19601f8201168201806040525081019061330191906142fa565b60015b6133aa57613310615522565b806308c379a0141561336d5750613325615c64565b80613330575061336f565b806040517f08c379a00000000000000000000000000000000000000000000000000000000081526004016133649190614d08565b60405180910390fd5b505b6040517f08c379a00000000000000000000000000000000000000000000000000000000081526004016133a190614d4a565b60405180910390fd5b63f23a6e6160e01b7bffffffffffffffffffffffffffffffffffffffffffffffffffffffff1916817bffffffffffffffffffffffffffffffffffffffffffffffffffffffff191614613431576040517f08c379a000000000000000000000000000000000000000000000000000000000815260040161342890614d8a565b60405180910390fd5b505b505050505050565b61345a8473ffffffffffffffffffffffffffffffffffffffff16613aec565b1561361a578373ffffffffffffffffffffffffffffffffffffffff1663bc197c8187878686866040518663ffffffff1660e01b81526004016134a0959493929190614a9c565b602060405180830381600087803b1580156134ba57600080fd5b505af19250505080156134eb57506040513d601f19601f820116820180604052508101906134e891906142fa565b60015b613591576134f7615522565b806308c379a01415613554575061350c615c64565b806135175750613556565b806040517f08c379a000000000000000000000000000000000000000000000000000000000815260040161354b9190614d08565b60405180910390fd5b505b6040517f08c379a000000000000000000000000000000000000000000000000000000000815260040161358890614d4a565b60405180910390fd5b63bc197c8160e01b7bffffffffffffffffffffffffffffffffffffffffffffffffffffffff1916817bffffffffffffffffffffffffffffffffffffffffffffffffffffffff191614613618576040517f08c379a000000000000000000000000000000000000000000000000000000000815260040161360f90614d8a565b60405180910390fd5b505b505050505050565b60007f0000000000000000000000000000000000000000000000000000000000000000461415613674577f000000000000000000000000000000000000000000000000000000000000000090506136e2565b6136df7f00000000000000000000000000000000000000000000000000000000000000007f00000000000000000000000000000000000000000000000000000000000000007f0000000000000000000000000000000000000000000000000000000000000000613aff565b90505b90565b600082826040516020016136fa929190614a4a565b60405160208183030381529060405280519060200120905092915050565b60008060418351141561375a5760008060006020860151925060408601519150606086015160001a905061374e87828585613b39565b94509450505050613794565b60408351141561378b576000806020850151915060408501519050613780868383613c46565b935093505050613794565b60006002915091505b9250929050565b600060048111156137d5577f4e487b7100000000000000000000000000000000000000000000000000000000600052602160045260246000fd5b81600481111561380e577f4e487b7100000000000000000000000000000000000000000000000000000000600052602160045260246000fd5b141561381957613ae9565b60016004811115613853577f4e487b7100000000000000000000000000000000000000000000000000000000600052602160045260246000fd5b81600481111561388c577f4e487b7100000000000000000000000000000000000000000000000000000000600052602160045260246000fd5b14156138cd576040517f08c379a00000000000000000000000000000000000000000000000000000000081526004016138c490614d2a565b60405180910390fd5b60026004811115613907577f4e487b7100000000000000000000000000000000000000000000000000000000600052602160045260246000fd5b816004811115613940577f4e487b7100000000000000000000000000000000000000000000000000000000600052602160045260246000fd5b1415613981576040517f08c379a000000000000000000000000000000000000000000000000000000000815260040161397890614e0a565b60405180910390fd5b600360048111156139bb577f4e487b7100000000000000000000000000000000000000000000000000000000600052602160045260246000fd5b8160048111156139f4577f4e487b7100000000000000000000000000000000000000000000000000000000600052602160045260246000fd5b1415613a35576040517f08c379a0000000000000000000000000000000000000000000000000000000008152600401613a2c90614eca565b60405180910390fd5b600480811115613a6e577f4e487b7100000000000000000000000000000000000000000000000000000000600052602160045260246000fd5b816004811115613aa7577f4e487b7100000000000000000000000000000000000000000000000000000000600052602160045260246000fd5b1415613ae8576040517f08c379a0000000000000000000000000000000000000000000000000000000008152600401613adf90614f2a565b60405180910390fd5b5b50565b600080823b905060008111915050919050565b60008383834630604051602001613b1a959493929190614c70565b6040516020818303038152906040528051906020012090509392505050565b6000807f7fffffffffffffffffffffffffffffff5d576e7357a4501ddfe92f46681b20a08360001c1115613b74576000600391509150613c3d565b601b8560ff1614158015613b8c5750601c8560ff1614155b15613b9e576000600491509150613c3d565b600060018787878760405160008152602001604052604051613bc39493929190614cc3565b6020604051602081039080840390855afa158015613be5573d6000803e3d6000fd5b505050602060405103519050600073ffffffffffffffffffffffffffffffffffffffff168173ffffffffffffffffffffffffffffffffffffffff161415613c3457600060019250925050613c3d565b80600092509250505b94509492505050565b6000806000807f7fffffffffffffffffffffffffffffffffffffffffffffffffffffffffffffff85169150601b8560ff1c019050613c8687828885613b39565b935093505050935093915050565b828054613ca0906153df565b90600052602060002090601f016020900481019282613cc25760008555613d09565b82601f10613cdb57805160ff1916838001178555613d09565b82800160010185558215613d09579182015b82811115613d08578251825591602001919060010190613ced565b5b509050613d169190613d1a565b5090565b5b80821115613d33576000816000905550600101613d1b565b5090565b6000613d4a613d45846150f3565b6150ce565b90508083825260208201905082856020860282011115613d6957600080fd5b60005b85811015613d995781613d7f8882613e8b565b845260208401935060208301925050600181019050613d6c565b5050509392505050565b6000613db6613db18461511f565b6150ce565b90508083825260208201905082856020860282011115613dd557600080fd5b60005b85811015613e055781613deb8882613f87565b845260208401935060208301925050600181019050613dd8565b5050509392505050565b6000613e22613e1d8461514b565b6150ce565b905082815260208101848484011115613e3a57600080fd5b613e4584828561539d565b509392505050565b6000613e60613e5b8461517c565b6150ce565b905082815260208101848484011115613e7857600080fd5b613e8384828561539d565b509392505050565b600081359050613e9a81615cfa565b92915050565b600082601f830112613eb157600080fd5b8135613ec1848260208601613d37565b91505092915050565b600082601f830112613edb57600080fd5b8135613eeb848260208601613da3565b91505092915050565b600081359050613f0381615d11565b92915050565b600081359050613f1881615d28565b92915050565b600081519050613f2d81615d28565b92915050565b600082601f830112613f4457600080fd5b8135613f54848260208601613e0f565b91505092915050565b600082601f830112613f6e57600080fd5b8135613f7e848260208601613e4d565b91505092915050565b600081359050613f9681615d3f565b92915050565b600060208284031215613fae57600080fd5b6000613fbc84828501613e8b565b91505092915050565b60008060408385031215613fd857600080fd5b6000613fe685828601613e8b565b9250506020613ff785828601613e8b565b9150509250929050565b600080600080600060a0868803121561401957600080fd5b600061402788828901613e8b565b955050602061403888828901613e8b565b945050604086013567ffffffffffffffff81111561405557600080fd5b61406188828901613eca565b935050606086013567ffffffffffffffff81111561407e57600080fd5b61408a88828901613eca565b925050608086013567ffffffffffffffff8111156140a757600080fd5b6140b388828901613f33565b9150509295509295909350565b600080600080600060a086880312156140d857600080fd5b60006140e688828901613e8b565b95505060206140f788828901613e8b565b945050604061410888828901613f87565b935050606061411988828901613f87565b925050608086013567ffffffffffffffff81111561413657600080fd5b61414288828901613f33565b9150509295509295909350565b6000806040838503121561416257600080fd5b600061417085828601613e8b565b925050602061418185828601613ef4565b9150509250929050565b6000806040838503121561419e57600080fd5b60006141ac85828601613e8b565b92505060206141bd85828601613f87565b9150509250929050565b6000806000606084860312156141dc57600080fd5b60006141ea86828701613e8b565b93505060206141fb86828701613f87565b925050604061420c86828701613f87565b9150509250925092565b6000806040838503121561422957600080fd5b600083013567ffffffffffffffff81111561424357600080fd5b61424f85828601613ea0565b925050602083013567ffffffffffffffff81111561426c57600080fd5b61427885828601613eca565b9150509250929050565b60008060006060848603121561429757600080fd5b60006142a586828701613ef4565b93505060206142b686828701613f87565b92505060406142c786828701613ef4565b9150509250925092565b6000602082840312156142e357600080fd5b60006142f184828501613f09565b91505092915050565b60006020828403121561430c57600080fd5b600061431a84828501613f1e565b91505092915050565b60006020828403121561433557600080fd5b600082013567ffffffffffffffff81111561434f57600080fd5b61435b84828501613f5d565b91505092915050565b60006020828403121561437657600080fd5b600061438484828501613f87565b91505092915050565b600080604083850312156143a057600080fd5b60006143ae85828601613f87565b925050602083013567ffffffffffffffff8111156143cb57600080fd5b6143d785828601613f33565b9150509250929050565b600080604083850312156143f457600080fd5b600061440285828601613f87565b925050602061441385828601613f87565b9150509250929050565b6000806000806080858703121561443357600080fd5b600061444187828801613f87565b945050602061445287828801613f87565b935050604061446387828801613f87565b925050606085013567ffffffffffffffff81111561448057600080fd5b61448c87828801613f33565b91505092959194509250565b60006144a483836144c8565b60208301905092915050565b60006144bc8383614a1d565b60208301905092915050565b6144d181615312565b82525050565b6144e081615312565b82525050565b60006144f1826151cd565b6144fb8185615213565b9350614506836151ad565b8060005b8381101561453757815161451e8882614498565b9750614529836151f9565b92505060018101905061450a565b5085935050505092915050565b600061454f826151d8565b6145598185615224565b9350614564836151bd565b8060005b8381101561459557815161457c88826144b0565b975061458783615206565b925050600181019050614568565b5085935050505092915050565b6145ab81615324565b82525050565b6145ba81615330565b82525050565b6145d16145cc82615330565b61548b565b82525050565b60006145e2826151e3565b6145ec8185615235565b93506145fc8185602086016153ac565b61460581615544565b840191505092915050565b600061461b826151ee565b6146258185615246565b93506146358185602086016153ac565b61463e81615544565b840191505092915050565b6000614656601883615246565b915061466182615562565b602082019050919050565b6000614679603483615246565b91506146848261558b565b604082019050919050565b600061469c601083615246565b91506146a7826155da565b602082019050919050565b60006146bf602883615246565b91506146ca82615603565b604082019050919050565b60006146e2601283615246565b91506146ed82615652565b602082019050919050565b6000614705601483615246565b91506147108261567b565b602082019050919050565b6000614728601b83615246565b9150614733826156a4565b602082019050919050565b600061474b601f83615246565b9150614756826156cd565b602082019050919050565b600061476e602b83615246565b9150614779826156f6565b604082019050919050565b6000614791602883615246565b915061479c82615745565b604082019050919050565b60006147b4602683615246565b91506147bf82615794565b604082019050919050565b60006147d7602483615246565b91506147e2826157e3565b604082019050919050565b60006147fa600283615257565b915061480582615832565b600282019050919050565b600061481d602983615246565b91506148288261585b565b604082019050919050565b6000614840602283615246565b915061484b826158aa565b604082019050919050565b6000614863602583615246565b915061486e826158f9565b604082019050919050565b6000614886603283615246565b915061489182615948565b604082019050919050565b60006148a9602283615246565b91506148b482615997565b604082019050919050565b60006148cc602383615246565b91506148d7826159e6565b604082019050919050565b60006148ef602a83615246565b91506148fa82615a35565b604082019050919050565b6000614912602083615246565b915061491d82615a84565b602082019050919050565b6000614935600f83615246565b915061494082615aad565b602082019050919050565b6000614958601583615246565b915061496382615ad6565b602082019050919050565b600061497b600e83615246565b915061498682615aff565b602082019050919050565b600061499e602983615246565b91506149a982615b28565b604082019050919050565b60006149c1602983615246565b91506149cc82615b77565b604082019050919050565b60006149e4602883615246565b91506149ef82615bc6565b604082019050919050565b6000614a07602183615246565b9150614a1282615c15565b604082019050919050565b614a2681615386565b82525050565b614a3581615386565b82525050565b614a4481615390565b82525050565b6000614a55826147ed565b9150614a6182856145c0565b602082019150614a7182846145c0565b6020820191508190509392505050565b6000602082019050614a9660008301846144d7565b92915050565b600060a082019050614ab160008301886144d7565b614abe60208301876144d7565b8181036040830152614ad08186614544565b90508181036060830152614ae48185614544565b90508181036080830152614af881846145d7565b90509695505050505050565b600060a082019050614b1960008301886144d7565b614b2660208301876144d7565b614b336040830186614a2c565b614b406060830185614a2c565b8181036080830152614b5281846145d7565b90509695505050505050565b6000608082019050614b7360008301876144d7565b614b806020830186614a2c565b614b8d6040830185614a2c565b614b9a6060830184614a2c565b95945050505050565b60006020820190508181036000830152614bbd81846144e6565b905092915050565b60006020820190508181036000830152614bdf8184614544565b905092915050565b60006040820190508181036000830152614c018185614544565b90508181036020830152614c158184614544565b90509392505050565b6000602082019050614c3360008301846145a2565b92915050565b6000606082019050614c4e60008301866145b1565b614c5b60208301856144d7565b614c686040830184614a2c565b949350505050565b600060a082019050614c8560008301886145b1565b614c9260208301876145b1565b614c9f60408301866145b1565b614cac6060830185614a2c565b614cb960808301846144d7565b9695505050505050565b6000608082019050614cd860008301876145b1565b614ce56020830186614a3b565b614cf260408301856145b1565b614cff60608301846145b1565b95945050505050565b60006020820190508181036000830152614d228184614610565b905092915050565b60006020820190508181036000830152614d4381614649565b9050919050565b60006020820190508181036000830152614d638161466c565b9050919050565b60006020820190508181036000830152614d838161468f565b9050919050565b60006020820190508181036000830152614da3816146b2565b9050919050565b60006020820190508181036000830152614dc3816146d5565b9050919050565b60006020820190508181036000830152614de3816146f8565b9050919050565b60006020820190508181036000830152614e038161471b565b9050919050565b60006020820190508181036000830152614e238161473e565b9050919050565b60006020820190508181036000830152614e4381614761565b9050919050565b60006020820190508181036000830152614e6381614784565b9050919050565b60006020820190508181036000830152614e83816147a7565b9050919050565b60006020820190508181036000830152614ea3816147ca565b9050919050565b60006020820190508181036000830152614ec381614810565b9050919050565b60006020820190508181036000830152614ee381614833565b9050919050565b60006020820190508181036000830152614f0381614856565b9050919050565b60006020820190508181036000830152614f2381614879565b9050919050565b60006020820190508181036000830152614f438161489c565b9050919050565b60006020820190508181036000830152614f63816148bf565b9050919050565b60006020820190508181036000830152614f83816148e2565b9050919050565b60006020820190508181036000830152614fa381614905565b9050919050565b60006020820190508181036000830152614fc381614928565b9050919050565b60006020820190508181036000830152614fe38161494b565b9050919050565b600060208201905081810360008301526150038161496e565b9050919050565b6000602082019050818103600083015261502381614991565b9050919050565b60006020820190508181036000830152615043816149b4565b9050919050565b60006020820190508181036000830152615063816149d7565b9050919050565b60006020820190508181036000830152615083816149fa565b9050919050565b600060208201905061509f6000830184614a2c565b92915050565b60006040820190506150ba6000830185614a2c565b6150c76020830184614a2c565b9392505050565b60006150d86150e9565b90506150e48282615411565b919050565b6000604051905090565b600067ffffffffffffffff82111561510e5761510d6154f3565b5b602082029050602081019050919050565b600067ffffffffffffffff82111561513a576151396154f3565b5b602082029050602081019050919050565b600067ffffffffffffffff821115615166576151656154f3565b5b61516f82615544565b9050602081019050919050565b600067ffffffffffffffff821115615197576151966154f3565b5b6151a082615544565b9050602081019050919050565b6000819050602082019050919050565b6000819050602082019050919050565b600081519050919050565b600081519050919050565b600081519050919050565b600081519050919050565b6000602082019050919050565b6000602082019050919050565b600082825260208201905092915050565b600082825260208201905092915050565b600082825260208201905092915050565b600082825260208201905092915050565b600081905092915050565b600061526d82615386565b915061527883615386565b9250827fffffffffffffffffffffffffffffffffffffffffffffffffffffffffffffffff038211156152ad576152ac615495565b5b828201905092915050565b60006152c382615386565b91506152ce83615386565b9250817fffffffffffffffffffffffffffffffffffffffffffffffffffffffffffffffff048311821515161561530757615306615495565b5b828202905092915050565b600061531d82615366565b9050919050565b60008115159050919050565b6000819050919050565b60007fffffffff0000000000000000000000000000000000000000000000000000000082169050919050565b600073ffffffffffffffffffffffffffffffffffffffff82169050919050565b6000819050919050565b600060ff82169050919050565b82818337600083830152505050565b60005b838110156153ca5780820151818401526020810190506153af565b838111156153d9576000848401525b50505050565b600060028204905060018216806153f757607f821691505b6020821081141561540b5761540a6154c4565b5b50919050565b61541a82615544565b810181811067ffffffffffffffff82111715615439576154386154f3565b5b80604052505050565b600061544d82615386565b91507fffffffffffffffffffffffffffffffffffffffffffffffffffffffffffffffff8214156154805761547f615495565b5b600182019050919050565b6000819050919050565b7f4e487b7100000000000000000000000000000000000000000000000000000000600052601160045260246000fd5b7f4e487b7100000000000000000000000000000000000000000000000000000000600052602260045260246000fd5b7f4e487b7100000000000000000000000000000000000000000000000000000000600052604160045260246000fd5b600060033d11156155415760046000803e61553e600051615555565b90505b90565b6000601f19601f8301169050919050565b60008160e01c9050919050565b7f45434453413a20696e76616c6964207369676e61747572650000000000000000600082015250565b7f455243313135353a207472616e7366657220746f206e6f6e204552433131353560008201527f526563656976657220696d706c656d656e746572000000000000000000000000602082015250565b7f4e4f545f494e5f53414c455f54494d4500000000000000000000000000000000600082015250565b7f455243313135353a204552433131353552656365697665722072656a6563746560008201527f6420746f6b656e73000000000000000000000000000000000000000000000000602082015250565b7f45786365656473204d41585f544f4b454e2e0000000000000000000000000000600082015250565b7f53455454494e475f5a45524f5f41444452455353000000000000000000000000600082015250565b7f4e6f7420656c696769626c6520666f722077686974656c6973742e0000000000600082015250565b7f45434453413a20696e76616c6964207369676e6174757265206c656e67746800600082015250565b7f455243313135353a2062616c616e636520717565727920666f7220746865207a60008201527f65726f2061646472657373000000000000000000000000000000000000000000602082015250565b7f45746865722076616c75652073656e74206973206e6f7420657175616c20746860008201527f652070726963652e000000000000000000000000000000000000000000000000602082015250565b7f4f776e61626c653a206e6577206f776e657220697320746865207a65726f206160008201527f6464726573730000000000000000000000000000000000000000000000000000602082015250565b7f455243313135353a206275726e20616d6f756e7420657863656564732062616c60008201527f616e636500000000000000000000000000000000000000000000000000000000602082015250565b7f1901000000000000000000000000000000000000000000000000000000000000600082015250565b7f455243313135353a2063616c6c6572206973206e6f74206f776e6572206e6f7260008201527f20617070726f7665640000000000000000000000000000000000000000000000602082015250565b7f45434453413a20696e76616c6964207369676e6174757265202773272076616c60008201527f7565000000000000000000000000000000000000000000000000000000000000602082015250565b7f455243313135353a207472616e7366657220746f20746865207a65726f20616460008201527f6472657373000000000000000000000000000000000000000000000000000000602082015250565b7f455243313135353a207472616e736665722063616c6c6572206973206e6f742060008201527f6f776e6572206e6f7220617070726f7665640000000000000000000000000000602082015250565b7f45434453413a20696e76616c6964207369676e6174757265202776272076616c60008201527f7565000000000000000000000000000000000000000000000000000000000000602082015250565b7f455243313135353a206275726e2066726f6d20746865207a65726f206164647260008201527f6573730000000000000000000000000000000000000000000000000000000000602082015250565b7f455243313135353a20696e73756666696369656e742062616c616e636520666f60008201527f72207472616e7366657200000000000000000000000000000000000000000000602082015250565b7f4f776e61626c653a2063616c6c6572206973206e6f7420746865206f776e6572600082015250565b7f53414c455f4e4f545f4143544956450000000000000000000000000000000000600082015250565b7f45786365656473206d6178207175616e746974792e0000000000000000000000600082015250565b7f4e6f6e6520746f6b656e2069642e000000000000000000000000000000000000600082015250565b7f455243313135353a2073657474696e6720617070726f76616c2073746174757360008201527f20666f722073656c660000000000000000000000000000000000000000000000602082015250565b7f455243313135353a206163636f756e747320616e6420696473206c656e67746860008201527f206d69736d617463680000000000000000000000000000000000000000000000602082015250565b7f455243313135353a2069647320616e6420616d6f756e7473206c656e6774682060008201527f6d69736d61746368000000000000000000000000000000000000000000000000602082015250565b7f455243313135353a206d696e7420746f20746865207a65726f2061646472657360008201527f7300000000000000000000000000000000000000000000000000000000000000602082015250565b600060443d1015615c7457615cf7565b615c7c6150e9565b60043d036004823e80513d602482011167ffffffffffffffff82111715615ca4575050615cf7565b808201805167ffffffffffffffff811115615cc25750505050615cf7565b80602083010160043d038501811115615cdf575050505050615cf7565b615cee82602001850186615411565b82955050505050505b90565b615d0381615312565b8114615d0e57600080fd5b50565b615d1a81615324565b8114615d2557600080fd5b50565b615d318161533a565b8114615d3c57600080fd5b50565b615d4881615386565b8114615d5357600080fd5b5056fea2646970667358221220ec02eaf28b22d346a3e18ca43c7ce4ed9799c8990281952d38f92c4438ffdece64736f6c6343000804003368747470733a2f2f626c6f636b62616e616e612e636f6d2f6d657461646174612f7b69647d",
  "devdoc": {
    "kind": "dev",
    "methods": {
      "balanceOf(address,uint256)": {
        "details": "See {IERC1155-balanceOf}. Requirements: - `account` cannot be the zero address."
      },
      "balanceOfBatch(address[],uint256[])": {
        "details": "See {IERC1155-balanceOfBatch}. Requirements: - `accounts` and `ids` must have the same length."
      },
      "isApprovedForAll(address,address)": {
        "details": "See {IERC1155-isApprovedForAll}."
      },
      "owner()": {
        "details": "Returns the address of the current owner."
      },
      "renounceOwnership()": {
        "details": "Leaves the contract without owner. It will not be possible to call `onlyOwner` functions anymore. Can only be called by the current owner. NOTE: Renouncing ownership will leave the contract without an owner, thereby removing any functionality that is only available to the owner."
      },
      "safeBatchTransferFrom(address,address,uint256[],uint256[],bytes)": {
        "details": "See {IERC1155-safeBatchTransferFrom}."
      },
      "safeTransferFrom(address,address,uint256,uint256,bytes)": {
        "details": "See {IERC1155-safeTransferFrom}."
      },
      "setApprovalForAll(address,bool)": {
        "details": "See {IERC1155-setApprovalForAll}."
      },
      "supportsInterface(bytes4)": {
        "details": "See {IERC165-supportsInterface}."
      },
      "transferOwnership(address)": {
        "details": "Transfers ownership of the contract to a new account (`newOwner`). Can only be called by the current owner."
      },
      "uri(uint256)": {
        "details": "See {IERC1155MetadataURI-uri}. This implementation returns the same URI for *all* token types. It relies on the token type ID substitution mechanism https://eips.ethereum.org/EIPS/eip-1155#metadata[defined in the EIP]. Clients calling this function must replace the `\\{id\\}` substring with the actual token type ID."
      }
    },
    "version": 1
  },
  "userdoc": {
    "kind": "user",
    "methods": {},
    "version": 1
  },
  "storageLayout": {
    "storage": [
      {
        "astId": 7,
        "contract": "contracts/BlockBanana.sol:BlockBanana",
        "label": "_owner",
        "offset": 0,
        "slot": "0",
        "type": "t_address"
      },
      {
        "astId": 129,
        "contract": "contracts/BlockBanana.sol:BlockBanana",
        "label": "_balances",
        "offset": 0,
        "slot": "1",
        "type": "t_mapping(t_uint256,t_mapping(t_address,t_uint256))"
      },
      {
        "astId": 135,
        "contract": "contracts/BlockBanana.sol:BlockBanana",
        "label": "_operatorApprovals",
        "offset": 0,
        "slot": "2",
        "type": "t_mapping(t_address,t_mapping(t_address,t_bool))"
      },
      {
        "astId": 137,
        "contract": "contracts/BlockBanana.sol:BlockBanana",
        "label": "_uri",
        "offset": 0,
        "slot": "3",
        "type": "t_string_storage"
      },
      {
        "astId": 2760,
        "contract": "contracts/BlockBanana.sol:BlockBanana",
        "label": "_name",
        "offset": 0,
        "slot": "4",
        "type": "t_string_storage"
      },
      {
        "astId": 2763,
        "contract": "contracts/BlockBanana.sol:BlockBanana",
        "label": "_symbol",
        "offset": 0,
        "slot": "5",
        "type": "t_string_storage"
      },
      {
        "astId": 2766,
        "contract": "contracts/BlockBanana.sol:BlockBanana",
        "label": "MAX_TOKEN",
        "offset": 0,
        "slot": "6",
        "type": "t_uint256"
      },
      {
        "astId": 2769,
        "contract": "contracts/BlockBanana.sol:BlockBanana",
        "label": "PRICE_1",
        "offset": 0,
        "slot": "7",
        "type": "t_uint256"
      },
      {
        "astId": 2772,
        "contract": "contracts/BlockBanana.sol:BlockBanana",
        "label": "PRICE_2",
        "offset": 0,
        "slot": "8",
        "type": "t_uint256"
      },
      {
        "astId": 2775,
        "contract": "contracts/BlockBanana.sol:BlockBanana",
        "label": "PRICE_3",
        "offset": 0,
        "slot": "9",
        "type": "t_uint256"
      },
      {
        "astId": 2778,
        "contract": "contracts/BlockBanana.sol:BlockBanana",
        "label": "PRICE_4",
        "offset": 0,
        "slot": "10",
        "type": "t_uint256"
      },
      {
        "astId": 2781,
        "contract": "contracts/BlockBanana.sol:BlockBanana",
        "label": "saleTimestamp",
        "offset": 0,
        "slot": "11",
        "type": "t_uint256"
      },
      {
        "astId": 2784,
        "contract": "contracts/BlockBanana.sol:BlockBanana",
        "label": "totalSupply",
        "offset": 0,
        "slot": "12",
        "type": "t_uint256"
      },
      {
        "astId": 2787,
        "contract": "contracts/BlockBanana.sol:BlockBanana",
        "label": "hasSaleStarted",
        "offset": 0,
        "slot": "13",
        "type": "t_bool"
      },
      {
        "astId": 2790,
        "contract": "contracts/BlockBanana.sol:BlockBanana",
        "label": "whitelistSwitch",
        "offset": 1,
        "slot": "13",
        "type": "t_bool"
      },
      {
        "astId": 2793,
        "contract": "contracts/BlockBanana.sol:BlockBanana",
        "label": "treasury",
        "offset": 2,
        "slot": "13",
        "type": "t_address"
      },
      {
        "astId": 2797,
        "contract": "contracts/BlockBanana.sol:BlockBanana",
        "label": "hasMint",
        "offset": 0,
        "slot": "14",
        "type": "t_mapping(t_address,t_uint256)"
      },
      {
        "astId": 2801,
        "contract": "contracts/BlockBanana.sol:BlockBanana",
        "label": "idQuantity",
        "offset": 0,
        "slot": "15",
        "type": "t_mapping(t_uint256,t_uint256)"
      },
      {
        "astId": 2806,
        "contract": "contracts/BlockBanana.sol:BlockBanana",
        "label": "idHolder",
        "offset": 0,
        "slot": "16",
        "type": "t_mapping(t_uint256,t_array(t_address)dyn_storage)"
      }
    ],
    "types": {
      "t_address": {
        "encoding": "inplace",
        "label": "address",
        "numberOfBytes": "20"
      },
      "t_array(t_address)dyn_storage": {
        "base": "t_address",
        "encoding": "dynamic_array",
        "label": "address[]",
        "numberOfBytes": "32"
      },
      "t_bool": {
        "encoding": "inplace",
        "label": "bool",
        "numberOfBytes": "1"
      },
      "t_mapping(t_address,t_bool)": {
        "encoding": "mapping",
        "key": "t_address",
        "label": "mapping(address => bool)",
        "numberOfBytes": "32",
        "value": "t_bool"
      },
      "t_mapping(t_address,t_mapping(t_address,t_bool))": {
        "encoding": "mapping",
        "key": "t_address",
        "label": "mapping(address => mapping(address => bool))",
        "numberOfBytes": "32",
        "value": "t_mapping(t_address,t_bool)"
      },
      "t_mapping(t_address,t_uint256)": {
        "encoding": "mapping",
        "key": "t_address",
        "label": "mapping(address => uint256)",
        "numberOfBytes": "32",
        "value": "t_uint256"
      },
      "t_mapping(t_uint256,t_array(t_address)dyn_storage)": {
        "encoding": "mapping",
        "key": "t_uint256",
        "label": "mapping(uint256 => address[])",
        "numberOfBytes": "32",
        "value": "t_array(t_address)dyn_storage"
      },
      "t_mapping(t_uint256,t_mapping(t_address,t_uint256))": {
        "encoding": "mapping",
        "key": "t_uint256",
        "label": "mapping(uint256 => mapping(address => uint256))",
        "numberOfBytes": "32",
        "value": "t_mapping(t_address,t_uint256)"
      },
      "t_mapping(t_uint256,t_uint256)": {
        "encoding": "mapping",
        "key": "t_uint256",
        "label": "mapping(uint256 => uint256)",
        "numberOfBytes": "32",
        "value": "t_uint256"
      },
      "t_string_storage": {
        "encoding": "bytes",
        "label": "string",
        "numberOfBytes": "32"
      },
      "t_uint256": {
        "encoding": "inplace",
        "label": "uint256",
        "numberOfBytes": "32"
      }
    }
  }
}