{
  "address": "0x6EAD42Eb0b82b44E090450D907418Ee59915C7e2",
  "abi": [
    {
      "inputs": [],
      "stateMutability": "nonpayable",
      "type": "constructor"
    },
    {
      "anonymous": false,
      "inputs": [
        {
          "indexed": true,
          "internalType": "address",
          "name": "account",
          "type": "address"
        },
        {
          "indexed": true,
          "internalType": "address",
          "name": "operator",
          "type": "address"
        },
        {
          "indexed": false,
          "internalType": "bool",
          "name": "approved",
          "type": "bool"
        }
      ],
      "name": "ApprovalForAll",
      "type": "event"
    },
    {
      "anonymous": false,
      "inputs": [
        {
          "indexed": true,
          "internalType": "address",
          "name": "previousOwner",
          "type": "address"
        },
        {
          "indexed": true,
          "internalType": "address",
          "name": "newOwner",
          "type": "address"
        }
      ],
      "name": "OwnershipTransferred",
      "type": "event"
    },
    {
      "anonymous": false,
      "inputs": [
        {
          "indexed": true,
          "internalType": "address",
          "name": "operator",
          "type": "address"
        },
        {
          "indexed": true,
          "internalType": "address",
          "name": "from",
          "type": "address"
        },
        {
          "indexed": true,
          "internalType": "address",
          "name": "to",
          "type": "address"
        },
        {
          "indexed": false,
          "internalType": "uint256[]",
          "name": "ids",
          "type": "uint256[]"
        },
        {
          "indexed": false,
          "internalType": "uint256[]",
          "name": "values",
          "type": "uint256[]"
        }
      ],
      "name": "TransferBatch",
      "type": "event"
    },
    {
      "anonymous": false,
      "inputs": [
        {
          "indexed": true,
          "internalType": "address",
          "name": "operator",
          "type": "address"
        },
        {
          "indexed": true,
          "internalType": "address",
          "name": "from",
          "type": "address"
        },
        {
          "indexed": true,
          "internalType": "address",
          "name": "to",
          "type": "address"
        },
        {
          "indexed": false,
          "internalType": "uint256",
          "name": "id",
          "type": "uint256"
        },
        {
          "indexed": false,
          "internalType": "uint256",
          "name": "value",
          "type": "uint256"
        }
      ],
      "name": "TransferSingle",
      "type": "event"
    },
    {
      "anonymous": false,
      "inputs": [
        {
          "indexed": false,
          "internalType": "string",
          "name": "value",
          "type": "string"
        },
        {
          "indexed": true,
          "internalType": "uint256",
          "name": "id",
          "type": "uint256"
        }
      ],
      "name": "URI",
      "type": "event"
    },
    {
      "anonymous": false,
      "inputs": [
        {
          "indexed": false,
          "internalType": "address",
          "name": "owner",
          "type": "address"
        },
        {
          "indexed": false,
          "internalType": "uint256",
          "name": "quantity",
          "type": "uint256"
        },
        {
          "indexed": false,
          "internalType": "uint256",
          "name": "totalSupply",
          "type": "uint256"
        }
      ],
      "name": "mintEvent",
      "type": "event"
    },
    {
      "inputs": [],
      "name": "HOLDER_MAX",
      "outputs": [
        {
          "internalType": "uint256",
          "name": "",
          "type": "uint256"
        }
      ],
      "stateMutability": "view",
      "type": "function"
    },
    {
      "inputs": [],
      "name": "MAX_TOKEN",
      "outputs": [
        {
          "internalType": "uint256",
          "name": "",
          "type": "uint256"
        }
      ],
      "stateMutability": "view",
      "type": "function"
    },
    {
      "inputs": [],
      "name": "PRICE",
      "outputs": [
        {
          "internalType": "uint256",
          "name": "",
          "type": "uint256"
        }
      ],
      "stateMutability": "view",
      "type": "function"
    },
    {
      "inputs": [
        {
          "internalType": "address",
          "name": "account",
          "type": "address"
        },
        {
          "internalType": "uint256",
          "name": "id",
          "type": "uint256"
        }
      ],
      "name": "balanceOf",
      "outputs": [
        {
          "internalType": "uint256",
          "name": "",
          "type": "uint256"
        }
      ],
      "stateMutability": "view",
      "type": "function"
    },
    {
      "inputs": [
        {
          "internalType": "address[]",
          "name": "accounts",
          "type": "address[]"
        },
        {
          "internalType": "uint256[]",
          "name": "ids",
          "type": "uint256[]"
        }
      ],
      "name": "balanceOfBatch",
      "outputs": [
        {
          "internalType": "uint256[]",
          "name": "",
          "type": "uint256[]"
        }
      ],
      "stateMutability": "view",
      "type": "function"
    },
    {
      "inputs": [
        {
          "internalType": "address",
          "name": "to",
          "type": "address"
        },
        {
          "internalType": "uint256",
          "name": "quantity",
          "type": "uint256"
        }
      ],
      "name": "burn",
      "outputs": [],
      "stateMutability": "nonpayable",
      "type": "function"
    },
    {
      "inputs": [
        {
          "internalType": "address",
          "name": "to",
          "type": "address"
        },
        {
          "internalType": "uint256",
          "name": "quantity",
          "type": "uint256"
        }
      ],
      "name": "giveaway",
      "outputs": [],
      "stateMutability": "nonpayable",
      "type": "function"
    },
    {
      "inputs": [
        {
          "internalType": "address",
          "name": "",
          "type": "address"
        }
      ],
      "name": "hasMint",
      "outputs": [
        {
          "internalType": "uint256",
          "name": "",
          "type": "uint256"
        }
      ],
      "stateMutability": "view",
      "type": "function"
    },
    {
      "inputs": [],
      "name": "hasSaleStarted",
      "outputs": [
        {
          "internalType": "bool",
          "name": "",
          "type": "bool"
        }
      ],
      "stateMutability": "view",
      "type": "function"
    },
    {
      "inputs": [
        {
          "internalType": "uint256",
          "name": "",
          "type": "uint256"
        },
        {
          "internalType": "uint256",
          "name": "",
          "type": "uint256"
        }
      ],
      "name": "idHolder",
      "outputs": [
        {
          "internalType": "address",
          "name": "",
          "type": "address"
        }
      ],
      "stateMutability": "view",
      "type": "function"
    },
    {
      "inputs": [
        {
          "internalType": "address",
          "name": "account",
          "type": "address"
        },
        {
          "internalType": "address",
          "name": "operator",
          "type": "address"
        }
      ],
      "name": "isApprovedForAll",
      "outputs": [
        {
          "internalType": "bool",
          "name": "",
          "type": "bool"
        }
      ],
      "stateMutability": "view",
      "type": "function"
    },
    {
      "inputs": [
        {
          "internalType": "uint256",
          "name": "quantity",
          "type": "uint256"
        },
        {
          "internalType": "uint256",
          "name": "maxQuantity",
          "type": "uint256"
        },
        {
          "internalType": "bytes",
          "name": "SIGNATURE",
          "type": "bytes"
        }
      ],
      "name": "mintNFT",
      "outputs": [],
      "stateMutability": "payable",
      "type": "function"
    },
    {
      "inputs": [],
      "name": "name",
      "outputs": [
        {
          "internalType": "string",
          "name": "",
          "type": "string"
        }
      ],
      "stateMutability": "view",
      "type": "function"
    },
    {
      "inputs": [],
      "name": "owner",
      "outputs": [
        {
          "internalType": "address",
          "name": "",
          "type": "address"
        }
      ],
      "stateMutability": "view",
      "type": "function"
    },
    {
      "inputs": [
        {
          "internalType": "uint256",
          "name": "id",
          "type": "uint256"
        }
      ],
      "name": "ownerOfToken",
      "outputs": [
        {
          "internalType": "address[]",
          "name": "",
          "type": "address[]"
        }
      ],
      "stateMutability": "view",
      "type": "function"
    },
    {
      "inputs": [],
      "name": "renounceOwnership",
      "outputs": [],
      "stateMutability": "nonpayable",
      "type": "function"
    },
    {
      "inputs": [
        {
          "internalType": "address",
          "name": "from",
          "type": "address"
        },
        {
          "internalType": "address",
          "name": "to",
          "type": "address"
        },
        {
          "internalType": "uint256[]",
          "name": "ids",
          "type": "uint256[]"
        },
        {
          "internalType": "uint256[]",
          "name": "amounts",
          "type": "uint256[]"
        },
        {
          "internalType": "bytes",
          "name": "data",
          "type": "bytes"
        }
      ],
      "name": "safeBatchTransferFrom",
      "outputs": [],
      "stateMutability": "nonpayable",
      "type": "function"
    },
    {
      "inputs": [
        {
          "internalType": "address",
          "name": "from",
          "type": "address"
        },
        {
          "internalType": "address",
          "name": "to",
          "type": "address"
        },
        {
          "internalType": "uint256",
          "name": "id",
          "type": "uint256"
        },
        {
          "internalType": "uint256",
          "name": "amount",
          "type": "uint256"
        },
        {
          "internalType": "bytes",
          "name": "data",
          "type": "bytes"
        }
      ],
      "name": "safeTransferFrom",
      "outputs": [],
      "stateMutability": "nonpayable",
      "type": "function"
    },
    {
      "inputs": [],
      "name": "saleTimestamp",
      "outputs": [
        {
          "internalType": "uint256",
          "name": "",
          "type": "uint256"
        }
      ],
      "stateMutability": "view",
      "type": "function"
    },
    {
      "inputs": [
        {
          "internalType": "address",
          "name": "operator",
          "type": "address"
        },
        {
          "internalType": "bool",
          "name": "approved",
          "type": "bool"
        }
      ],
      "name": "setApprovalForAll",
      "outputs": [],
      "stateMutability": "nonpayable",
      "type": "function"
    },
    {
      "inputs": [
        {
          "internalType": "string",
          "name": "baseURI",
          "type": "string"
        }
      ],
      "name": "setBaseURI",
      "outputs": [],
      "stateMutability": "nonpayable",
      "type": "function"
    },
    {
      "inputs": [
        {
          "internalType": "uint256",
          "name": "_HOLDER_MAX",
          "type": "uint256"
        }
      ],
      "name": "setHOLDER_MAX",
      "outputs": [],
      "stateMutability": "nonpayable",
      "type": "function"
    },
    {
      "inputs": [
        {
          "internalType": "uint256",
          "name": "_MAX_TOKEN",
          "type": "uint256"
        }
      ],
      "name": "setMAX_TOKEN",
      "outputs": [],
      "stateMutability": "nonpayable",
      "type": "function"
    },
    {
      "inputs": [
        {
          "internalType": "bool",
          "name": "_hasSaleStarted",
          "type": "bool"
        },
        {
          "internalType": "uint256",
          "name": "_saleTimestamp",
          "type": "uint256"
        },
        {
          "internalType": "bool",
          "name": "_whitelistSwitch",
          "type": "bool"
        }
      ],
      "name": "setSaleTime",
      "outputs": [],
      "stateMutability": "nonpayable",
      "type": "function"
    },
    {
      "inputs": [
        {
          "internalType": "address",
          "name": "_treasury",
          "type": "address"
        }
      ],
      "name": "setTreasury",
      "outputs": [],
      "stateMutability": "nonpayable",
      "type": "function"
    },
    {
      "inputs": [
        {
          "internalType": "uint256",
          "name": "_price",
          "type": "uint256"
        }
      ],
      "name": "set_PRICE",
      "outputs": [],
      "stateMutability": "nonpayable",
      "type": "function"
    },
    {
      "inputs": [
        {
          "internalType": "bytes4",
          "name": "interfaceId",
          "type": "bytes4"
        }
      ],
      "name": "supportsInterface",
      "outputs": [
        {
          "internalType": "bool",
          "name": "",
          "type": "bool"
        }
      ],
      "stateMutability": "view",
      "type": "function"
    },
    {
      "inputs": [],
      "name": "symbol",
      "outputs": [
        {
          "internalType": "string",
          "name": "",
          "type": "string"
        }
      ],
      "stateMutability": "view",
      "type": "function"
    },
    {
      "inputs": [],
      "name": "totalSupply",
      "outputs": [
        {
          "internalType": "uint256",
          "name": "",
          "type": "uint256"
        }
      ],
      "stateMutability": "view",
      "type": "function"
    },
    {
      "inputs": [
        {
          "internalType": "address",
          "name": "newOwner",
          "type": "address"
        }
      ],
      "name": "transferOwnership",
      "outputs": [],
      "stateMutability": "nonpayable",
      "type": "function"
    },
    {
      "inputs": [],
      "name": "treasury",
      "outputs": [
        {
          "internalType": "address",
          "name": "",
          "type": "address"
        }
      ],
      "stateMutability": "view",
      "type": "function"
    },
    {
      "inputs": [
        {
          "internalType": "uint256",
          "name": "",
          "type": "uint256"
        }
      ],
      "name": "uri",
      "outputs": [
        {
          "internalType": "string",
          "name": "",
          "type": "string"
        }
      ],
      "stateMutability": "view",
      "type": "function"
    },
    {
      "inputs": [
        {
          "internalType": "uint256",
          "name": "maxQuantity",
          "type": "uint256"
        },
        {
          "internalType": "bytes",
          "name": "SIGNATURE",
          "type": "bytes"
        }
      ],
      "name": "verify",
      "outputs": [
        {
          "internalType": "bool",
          "name": "",
          "type": "bool"
        }
      ],
      "stateMutability": "view",
      "type": "function"
    },
    {
      "inputs": [],
      "name": "whitelistSwitch",
      "outputs": [
        {
          "internalType": "bool",
          "name": "",
          "type": "bool"
        }
      ],
      "stateMutability": "view",
      "type": "function"
    },
    {
      "inputs": [],
      "name": "withdrawAll",
      "outputs": [],
      "stateMutability": "payable",
      "type": "function"
    }
  ],
  "transactionHash": "0x4bf51e912faf38493c71f63e53e952bb6138253e89891b04506aa1f94fab65d5",
  "args": [],
  "numDeployments": 4,
  "solcInputHash": "13c0b1ee121b98c82a0c4d5b8cc00879",
  "bytecode": "0x6101206040526040518060400160405280600281526020017f42420000000000000000000000000000000000000000000000000000000000008152506004908051906020019062000052929190620003bd565b506040518060400160405280600281526020017f424200000000000000000000000000000000000000000000000000000000000081525060059080519060200190620000a0929190620003bd565b5061271060065560026007556702c68af0bb1400006008556361e530106009556000600a556001600b60006101000a81548160ff0219169083151502179055506001600b60016101000a81548160ff021916908315150217905550735279246e3626cebe71a4c181382a50a71d2a4156600b60026101000a81548173ffffffffffffffffffffffffffffffffffffffff021916908373ffffffffffffffffffffffffffffffffffffffff1602179055503480156200015d57600080fd5b5060405180608001604052806050815260200162005f91605091396040518060400160405280600c81526020017f426c6f636b2042616e616e6100000000000000000000000000000000000000008152506040518060400160405280600581526020017f312e302e3000000000000000000000000000000000000000000000000000000081525062000204620001f86200029960201b60201c565b620002a160201b60201c565b60008280519060200120905060008280519060200120905060007f8b73c3c69bb8fe3d512ecc4cf759cc79239f7b179b0ffacaa9a75d522b39400f90508260c081815250508160e081815250504660a081815250506200026c8184846200036560201b60201c565b6080818152505080610100818152505050505050506200029281620003a160201b60201c565b50620005aa565b600033905090565b60008060009054906101000a900473ffffffffffffffffffffffffffffffffffffffff169050816000806101000a81548173ffffffffffffffffffffffffffffffffffffffff021916908373ffffffffffffffffffffffffffffffffffffffff1602179055508173ffffffffffffffffffffffffffffffffffffffff168173ffffffffffffffffffffffffffffffffffffffff167f8be0079c531659141344cd1fd0a4f28419497f9722a3daafe3b4186f6b6457e060405160405180910390a35050565b6000838383463060405160200162000382959493929190620004a0565b6040516020818303038152906040528051906020012090509392505050565b8060039080519060200190620003b9929190620003bd565b5050565b828054620003cb9062000545565b90600052602060002090601f016020900481019282620003ef57600085556200043b565b82601f106200040a57805160ff19168380011785556200043b565b828001600101855582156200043b579182015b828111156200043a5782518255916020019190600101906200041d565b5b5090506200044a91906200044e565b5090565b5b80821115620004695760008160009055506001016200044f565b5090565b6200047881620004fd565b82525050565b620004898162000511565b82525050565b6200049a816200053b565b82525050565b600060a082019050620004b760008301886200047e565b620004c660208301876200047e565b620004d560408301866200047e565b620004e460608301856200048f565b620004f360808301846200046d565b9695505050505050565b60006200050a826200051b565b9050919050565b6000819050919050565b600073ffffffffffffffffffffffffffffffffffffffff82169050919050565b6000819050919050565b600060028204905060018216806200055e57607f821691505b602082108114156200057557620005746200057b565b5b50919050565b7f4e487b7100000000000000000000000000000000000000000000000000000000600052602260045260246000fd5b60805160a05160c05160e051610100516159a2620005ef60003960006133380152600061337a01526000613359015260006132e50152600061330d01526159a26000f3fe6080604052600436106102035760003560e01c8063853828b611610118578063c1c25bc5116100a0578063d46c28111161006f578063d46c28111461075b578063e985e9c514610777578063f0f44260146107b4578063f242432a146107dd578063f2fde38b1461080657610203565b8063c1c25bc514610679578063c57ac5d6146106b6578063c6b13e90146106f3578063c78225981461073057610203565b806395d89b41116100e757806395d89b41146105a85780639d23ef03146105d35780639dc29fac146105fc578063a22cb46514610625578063bcd25ee51461064e57610203565b8063853828b61461050b57806385852ce4146105155780638d859f3e146105525780638da5cb5b1461057d57610203565b80632eb2c2d61161019b57806361d027b31161016a57806361d027b31461044c5780636456c205146104775780636ddf5c1c146104a05780636e1bd323146104c9578063715018a6146104f457610203565b80632eb2c2d61461039457806339cce68e146103bd5780634e1273f4146103e657806355f804b31461042357610203565b80630e89341c116101d75780630e89341c146102d6578063155d27dc1461031357806318160ddd1461033e5780631c8b232d1461036957610203565b8062fdd58e1461020857806301ffc9a714610245578063050225ea1461028257806306fdde03146102ab575b600080fd5b34801561021457600080fd5b5061022f600480360381019061022a9190613e4a565b61082f565b60405161023c9190614c95565b60405180910390f35b34801561025157600080fd5b5061026c60048036038101906102679190613f41565b6108f9565b6040516102799190614849565b60405180910390f35b34801561028e57600080fd5b506102a960048036038101906102a49190613e4a565b6109db565b005b3480156102b757600080fd5b506102c0610cd4565b6040516102cd9190614933565b60405180910390f35b3480156102e257600080fd5b506102fd60048036038101906102f89190613fd4565b610d66565b60405161030a9190614933565b60405180910390f35b34801561031f57600080fd5b50610328610dfa565b6040516103359190614c95565b60405180910390f35b34801561034a57600080fd5b50610353610e00565b6040516103609190614c95565b60405180910390f35b34801561037557600080fd5b5061037e610e06565b60405161038b9190614849565b60405180910390f35b3480156103a057600080fd5b506103bb60048036038101906103b69190613cc0565b610e19565b005b3480156103c957600080fd5b506103e460048036038101906103df9190613ef2565b610eba565b005b3480156103f257600080fd5b5061040d60048036038101906104089190613e86565b610f76565b60405161041a91906147f0565b60405180910390f35b34801561042f57600080fd5b5061044a60048036038101906104459190613f93565b611127565b005b34801561045857600080fd5b506104616111af565b60405161046e91906146ba565b60405180910390f35b34801561048357600080fd5b5061049e60048036038101906104999190613fd4565b6111d5565b005b3480156104ac57600080fd5b506104c760048036038101906104c29190613fd4565b61125b565b005b3480156104d557600080fd5b506104de6112e1565b6040516104eb9190614c95565b60405180910390f35b34801561050057600080fd5b506105096112e7565b005b61051361136f565b005b34801561052157600080fd5b5061053c60048036038101906105379190613ffd565b61144d565b6040516105499190614849565b60405180910390f35b34801561055e57600080fd5b506105676114f4565b6040516105749190614c95565b60405180910390f35b34801561058957600080fd5b506105926114fa565b60405161059f91906146ba565b60405180910390f35b3480156105b457600080fd5b506105bd611523565b6040516105ca9190614933565b60405180910390f35b3480156105df57600080fd5b506105fa60048036038101906105f59190613fd4565b6115b5565b005b34801561060857600080fd5b50610623600480360381019061061e9190613e4a565b61163b565b005b34801561063157600080fd5b5061064c60048036038101906106479190613e0e565b61175c565b005b34801561065a57600080fd5b506106636118dd565b6040516106709190614849565b60405180910390f35b34801561068557600080fd5b506106a0600480360381019061069b9190613c5b565b6118f0565b6040516106ad9190614c95565b60405180910390f35b3480156106c257600080fd5b506106dd60048036038101906106d89190613fd4565b611908565b6040516106ea91906147ce565b60405180910390f35b3480156106ff57600080fd5b5061071a60048036038101906107159190614051565b611b2c565b60405161072791906146ba565b60405180910390f35b34801561073c57600080fd5b50610745611b7a565b6040516107529190614c95565b60405180910390f35b6107756004803603810190610770919061408d565b611b80565b005b34801561078357600080fd5b5061079e60048036038101906107999190613c84565b611f55565b6040516107ab9190614849565b60405180910390f35b3480156107c057600080fd5b506107db60048036038101906107d69190613c5b565b611fe9565b005b3480156107e957600080fd5b5061080460048036038101906107ff9190613d7f565b61213b565b005b34801561081257600080fd5b5061082d60048036038101906108289190613c5b565b6121dc565b005b60008073ffffffffffffffffffffffffffffffffffffffff168373ffffffffffffffffffffffffffffffffffffffff1614156108a0576040517f08c379a000000000000000000000000000000000000000000000000000000000815260040161089790614a55565b60405180910390fd5b6001600083815260200190815260200160002060008473ffffffffffffffffffffffffffffffffffffffff1673ffffffffffffffffffffffffffffffffffffffff16815260200190815260200160002054905092915050565b60007fd9b67a26000000000000000000000000000000000000000000000000000000007bffffffffffffffffffffffffffffffffffffffffffffffffffffffff1916827bffffffffffffffffffffffffffffffffffffffffffffffffffffffff191614806109c457507f0e89341c000000000000000000000000000000000000000000000000000000007bffffffffffffffffffffffffffffffffffffffffffffffffffffffff1916827bffffffffffffffffffffffffffffffffffffffffffffffffffffffff1916145b806109d457506109d3826122d4565b5b9050919050565b6109e361233e565b73ffffffffffffffffffffffffffffffffffffffff16610a016114fa565b73ffffffffffffffffffffffffffffffffffffffff1614610a57576040517f08c379a0000000000000000000000000000000000000000000000000000000008152600401610a4e90614bb5565b60405180910390fd5b600654610a6f82600a5461234690919063ffffffff16565b1115610ab0576040517f08c379a0000000000000000000000000000000000000000000000000000000008152600401610aa7906149d5565b60405180910390fd5b600081118015610b135750600754610b1082600c60008673ffffffffffffffffffffffffffffffffffffffff1673ffffffffffffffffffffffffffffffffffffffff1681526020019081526020016000205461234690919063ffffffff16565b11155b610b52576040517f08c379a0000000000000000000000000000000000000000000000000000000008152600401610b4990614bf5565b60405180910390fd5b610b6e826001836040518060200160405280600081525061235c565b610bc081600c60008573ffffffffffffffffffffffffffffffffffffffff1673ffffffffffffffffffffffffffffffffffffffff1681526020019081526020016000205461234690919063ffffffff16565b600c60008473ffffffffffffffffffffffffffffffffffffffff1673ffffffffffffffffffffffffffffffffffffffff16815260200190815260200160002081905550610c1881600a5461234690919063ffffffff16565b600a81905550600d600060018152602001908152602001600020829080600181540180825580915050600190039060005260206000200160009091909190916101000a81548173ffffffffffffffffffffffffffffffffffffffff021916908373ffffffffffffffffffffffffffffffffffffffff1602179055507f9670c8b300c38cd3db8d3f9429dd902e67f418c4dd193e2497f06d20efc795608282600a54604051610cc893929190614797565b60405180910390a15050565b606060048054610ce39061501e565b80601f0160208091040260200160405190810160405280929190818152602001828054610d0f9061501e565b8015610d5c5780601f10610d3157610100808354040283529160200191610d5c565b820191906000526020600020905b815481529060010190602001808311610d3f57829003601f168201915b5050505050905090565b606060038054610d759061501e565b80601f0160208091040260200160405190810160405280929190818152602001828054610da19061501e565b8015610dee5780601f10610dc357610100808354040283529160200191610dee565b820191906000526020600020905b815481529060010190602001808311610dd157829003601f168201915b50505050509050919050565b60075481565b600a5481565b600b60009054906101000a900460ff1681565b610e2161233e565b73ffffffffffffffffffffffffffffffffffffffff168573ffffffffffffffffffffffffffffffffffffffff161480610e675750610e6685610e6161233e565b611f55565b5b610ea6576040517f08c379a0000000000000000000000000000000000000000000000000000000008152600401610e9d90614b35565b60405180910390fd5b610eb385858585856124f3565b5050505050565b610ec261233e565b73ffffffffffffffffffffffffffffffffffffffff16610ee06114fa565b73ffffffffffffffffffffffffffffffffffffffff1614610f36576040517f08c379a0000000000000000000000000000000000000000000000000000000008152600401610f2d90614bb5565b60405180910390fd5b82600b60006101000a81548160ff0219169083151502179055508160098190555080600b60016101000a81548160ff021916908315150217905550505050565b60608151835114610fbc576040517f08c379a0000000000000000000000000000000000000000000000000000000008152600401610fb390614c35565b60405180910390fd5b6000835167ffffffffffffffff811115610fff577f4e487b7100000000000000000000000000000000000000000000000000000000600052604160045260246000fd5b60405190808252806020026020018201604052801561102d5781602001602082028036833780820191505090505b50905060005b845181101561111c576110c6858281518110611078577f4e487b7100000000000000000000000000000000000000000000000000000000600052603260045260246000fd5b60200260200101518583815181106110b9577f4e487b7100000000000000000000000000000000000000000000000000000000600052603260045260246000fd5b602002602001015161082f565b8282815181106110ff577f4e487b7100000000000000000000000000000000000000000000000000000000600052603260045260246000fd5b6020026020010181815250508061111590615081565b9050611033565b508091505092915050565b61112f61233e565b73ffffffffffffffffffffffffffffffffffffffff1661114d6114fa565b73ffffffffffffffffffffffffffffffffffffffff16146111a3576040517f08c379a000000000000000000000000000000000000000000000000000000000815260040161119a90614bb5565b60405180910390fd5b6111ac81612856565b50565b600b60029054906101000a900473ffffffffffffffffffffffffffffffffffffffff1681565b6111dd61233e565b73ffffffffffffffffffffffffffffffffffffffff166111fb6114fa565b73ffffffffffffffffffffffffffffffffffffffff1614611251576040517f08c379a000000000000000000000000000000000000000000000000000000000815260040161124890614bb5565b60405180910390fd5b8060088190555050565b61126361233e565b73ffffffffffffffffffffffffffffffffffffffff166112816114fa565b73ffffffffffffffffffffffffffffffffffffffff16146112d7576040517f08c379a00000000000000000000000000000000000000000000000000000000081526004016112ce90614bb5565b60405180910390fd5b8060078190555050565b60065481565b6112ef61233e565b73ffffffffffffffffffffffffffffffffffffffff1661130d6114fa565b73ffffffffffffffffffffffffffffffffffffffff1614611363576040517f08c379a000000000000000000000000000000000000000000000000000000000815260040161135a90614bb5565b60405180910390fd5b61136d6000612870565b565b61137761233e565b73ffffffffffffffffffffffffffffffffffffffff166113956114fa565b73ffffffffffffffffffffffffffffffffffffffff16146113eb576040517f08c379a00000000000000000000000000000000000000000000000000000000081526004016113e290614bb5565b60405180910390fd5b600b60029054906101000a900473ffffffffffffffffffffffffffffffffffffffff1673ffffffffffffffffffffffffffffffffffffffff166108fc479081150290604051600060405180830381858888f1935050505061144b57600080fd5b565b6000806114b36114ad7f182854de6a51f3818344a7eb784b9d55c1e6d2d20c9f9aea309f5daaaaddfec161147f61233e565b8760405160200161149293929190614864565b60405160208183030381529060405280519060200120612934565b8461294e565b90508073ffffffffffffffffffffffffffffffffffffffff166114d46114fa565b73ffffffffffffffffffffffffffffffffffffffff161491505092915050565b60085481565b60008060009054906101000a900473ffffffffffffffffffffffffffffffffffffffff16905090565b6060600580546115329061501e565b80601f016020809104026020016040519081016040528092919081815260200182805461155e9061501e565b80156115ab5780601f10611580576101008083540402835291602001916115ab565b820191906000526020600020905b81548152906001019060200180831161158e57829003601f168201915b5050505050905090565b6115bd61233e565b73ffffffffffffffffffffffffffffffffffffffff166115db6114fa565b73ffffffffffffffffffffffffffffffffffffffff1614611631576040517f08c379a000000000000000000000000000000000000000000000000000000000815260040161162890614bb5565b60405180910390fd5b8060068190555050565b61164361233e565b73ffffffffffffffffffffffffffffffffffffffff166116616114fa565b73ffffffffffffffffffffffffffffffffffffffff16146116b7576040517f08c379a00000000000000000000000000000000000000000000000000000000081526004016116ae90614bb5565b60405180910390fd5b6116c382600183612975565b61171581600c60008573ffffffffffffffffffffffffffffffffffffffff1673ffffffffffffffffffffffffffffffffffffffff16815260200190815260200160002054612b9490919063ffffffff16565b600c60008473ffffffffffffffffffffffffffffffffffffffff1673ffffffffffffffffffffffffffffffffffffffff168152602001908152602001600020819055505050565b8173ffffffffffffffffffffffffffffffffffffffff1661177b61233e565b73ffffffffffffffffffffffffffffffffffffffff1614156117d2576040517f08c379a00000000000000000000000000000000000000000000000000000000081526004016117c990614c15565b60405180910390fd5b80600260006117df61233e565b73ffffffffffffffffffffffffffffffffffffffff1673ffffffffffffffffffffffffffffffffffffffff16815260200190815260200160002060008473ffffffffffffffffffffffffffffffffffffffff1673ffffffffffffffffffffffffffffffffffffffff16815260200190815260200160002060006101000a81548160ff0219169083151502179055508173ffffffffffffffffffffffffffffffffffffffff1661188c61233e565b73ffffffffffffffffffffffffffffffffffffffff167f17307eab39ab6107e8899845ad3d59bd9653f200f220920489ca2b5937696c31836040516118d19190614849565b60405180910390a35050565b600b60019054906101000a900460ff1681565b600c6020528060005260406000206000915090505481565b60606000600d600084815260200190815260200160002080549050905060008114156119a657600067ffffffffffffffff81111561196f577f4e487b7100000000000000000000000000000000000000000000000000000000600052604160045260246000fd5b60405190808252806020026020018201604052801561199d5781602001602082028036833780820191505090505b50915050611b27565b60008167ffffffffffffffff8111156119e8577f4e487b7100000000000000000000000000000000000000000000000000000000600052604160045260246000fd5b604051908082528060200260200182016040528015611a165781602001602082028036833780820191505090505b50905060005b82811015611b2057600d60008681526020019081526020016000208181548110611a6f577f4e487b7100000000000000000000000000000000000000000000000000000000600052603260045260246000fd5b9060005260206000200160009054906101000a900473ffffffffffffffffffffffffffffffffffffffff16828281518110611ad3577f4e487b7100000000000000000000000000000000000000000000000000000000600052603260045260246000fd5b602002602001019073ffffffffffffffffffffffffffffffffffffffff16908173ffffffffffffffffffffffffffffffffffffffff16815250508080611b1890615081565b915050611a1c565b8193505050505b919050565b600d6020528160005260406000208181548110611b4857600080fd5b906000526020600020016000915091509054906101000a900473ffffffffffffffffffffffffffffffffffffffff1681565b60095481565b60011515600b60009054906101000a900460ff16151514611bd6576040517f08c379a0000000000000000000000000000000000000000000000000000000008152600401611bcd90614bd5565b60405180910390fd5b600954421015611c1b576040517f08c379a0000000000000000000000000000000000000000000000000000000008152600401611c1290614995565b60405180910390fd5b60011515600b60019054906101000a900460ff1615151415611c8157611c41828261144d565b611c80576040517f08c379a0000000000000000000000000000000000000000000000000000000008152600401611c7790614a15565b60405180910390fd5b5b600654611c9984600a5461234690919063ffffffff16565b1115611cda576040517f08c379a0000000000000000000000000000000000000000000000000000000008152600401611cd1906149d5565b60405180910390fd5b600083118015611d3d5750600754611d3a84600c60003373ffffffffffffffffffffffffffffffffffffffff1673ffffffffffffffffffffffffffffffffffffffff1681526020019081526020016000205461234690919063ffffffff16565b11155b611d7c576040517f08c379a0000000000000000000000000000000000000000000000000000000008152600401611d7390614bf5565b60405180910390fd5b611d9183600854612baa90919063ffffffff16565b3414611dd2576040517f08c379a0000000000000000000000000000000000000000000000000000000008152600401611dc990614a75565b60405180910390fd5b611dee336001856040518060200160405280600081525061235c565b611e4083600c60003373ffffffffffffffffffffffffffffffffffffffff1673ffffffffffffffffffffffffffffffffffffffff1681526020019081526020016000205461234690919063ffffffff16565b600c60003373ffffffffffffffffffffffffffffffffffffffff1673ffffffffffffffffffffffffffffffffffffffff16815260200190815260200160002081905550600d600060018152602001908152602001600020339080600181540180825580915050600190039060005260206000200160009091909190916101000a81548173ffffffffffffffffffffffffffffffffffffffff021916908373ffffffffffffffffffffffffffffffffffffffff160217905550611f0d83600a5461234690919063ffffffff16565b600a819055507f9670c8b300c38cd3db8d3f9429dd902e67f418c4dd193e2497f06d20efc795603384600a54604051611f4893929190614797565b60405180910390a1505050565b6000600260008473ffffffffffffffffffffffffffffffffffffffff1673ffffffffffffffffffffffffffffffffffffffff16815260200190815260200160002060008373ffffffffffffffffffffffffffffffffffffffff1673ffffffffffffffffffffffffffffffffffffffff16815260200190815260200160002060009054906101000a900460ff16905092915050565b611ff161233e565b73ffffffffffffffffffffffffffffffffffffffff1661200f6114fa565b73ffffffffffffffffffffffffffffffffffffffff1614612065576040517f08c379a000000000000000000000000000000000000000000000000000000000815260040161205c90614bb5565b60405180910390fd5b600073ffffffffffffffffffffffffffffffffffffffff16600b60029054906101000a900473ffffffffffffffffffffffffffffffffffffffff1673ffffffffffffffffffffffffffffffffffffffff1614156120f7576040517f08c379a00000000000000000000000000000000000000000000000000000000081526004016120ee906149f5565b60405180910390fd5b80600b60026101000a81548173ffffffffffffffffffffffffffffffffffffffff021916908373ffffffffffffffffffffffffffffffffffffffff16021790555050565b61214361233e565b73ffffffffffffffffffffffffffffffffffffffff168573ffffffffffffffffffffffffffffffffffffffff16148061218957506121888561218361233e565b611f55565b5b6121c8576040517f08c379a00000000000000000000000000000000000000000000000000000000081526004016121bf90614ad5565b60405180910390fd5b6121d58585858585612bc0565b5050505050565b6121e461233e565b73ffffffffffffffffffffffffffffffffffffffff166122026114fa565b73ffffffffffffffffffffffffffffffffffffffff1614612258576040517f08c379a000000000000000000000000000000000000000000000000000000000815260040161224f90614bb5565b60405180910390fd5b600073ffffffffffffffffffffffffffffffffffffffff168173ffffffffffffffffffffffffffffffffffffffff1614156122c8576040517f08c379a00000000000000000000000000000000000000000000000000000000081526004016122bf90614a95565b60405180910390fd5b6122d181612870565b50565b60007f01ffc9a7000000000000000000000000000000000000000000000000000000007bffffffffffffffffffffffffffffffffffffffffffffffffffffffff1916827bffffffffffffffffffffffffffffffffffffffffffffffffffffffff1916149050919050565b600033905090565b600081836123549190614e6d565b905092915050565b600073ffffffffffffffffffffffffffffffffffffffff168473ffffffffffffffffffffffffffffffffffffffff1614156123cc576040517f08c379a00000000000000000000000000000000000000000000000000000000081526004016123c390614c75565b60405180910390fd5b60006123d661233e565b90506123f7816000876123e888612e45565b6123f188612e45565b87612f0b565b826001600086815260200190815260200160002060008773ffffffffffffffffffffffffffffffffffffffff1673ffffffffffffffffffffffffffffffffffffffff16815260200190815260200160002060008282546124579190614e6d565b925050819055508473ffffffffffffffffffffffffffffffffffffffff16600073ffffffffffffffffffffffffffffffffffffffff168273ffffffffffffffffffffffffffffffffffffffff167fc3d58168c5ae7397731d063d5bbf3d657854427343f4c083240f7aacaa2d0f6287876040516124d5929190614cb0565b60405180910390a46124ec81600087878787612f13565b5050505050565b8151835114612537576040517f08c379a000000000000000000000000000000000000000000000000000000000815260040161252e90614c55565b60405180910390fd5b600073ffffffffffffffffffffffffffffffffffffffff168473ffffffffffffffffffffffffffffffffffffffff1614156125a7576040517f08c379a000000000000000000000000000000000000000000000000000000000815260040161259e90614b15565b60405180910390fd5b60006125b161233e565b90506125c1818787878787612f0b565b60005b84518110156127c1576000858281518110612608577f4e487b7100000000000000000000000000000000000000000000000000000000600052603260045260246000fd5b60200260200101519050600085838151811061264d577f4e487b7100000000000000000000000000000000000000000000000000000000600052603260045260246000fd5b6020026020010151905060006001600084815260200190815260200160002060008b73ffffffffffffffffffffffffffffffffffffffff1673ffffffffffffffffffffffffffffffffffffffff168152602001908152602001600020549050818110156126ef576040517f08c379a00000000000000000000000000000000000000000000000000000000081526004016126e690614b95565b60405180910390fd5b8181036001600085815260200190815260200160002060008c73ffffffffffffffffffffffffffffffffffffffff1673ffffffffffffffffffffffffffffffffffffffff16815260200190815260200160002081905550816001600085815260200190815260200160002060008b73ffffffffffffffffffffffffffffffffffffffff1673ffffffffffffffffffffffffffffffffffffffff16815260200190815260200160002060008282546127a69190614e6d565b92505081905550505050806127ba90615081565b90506125c4565b508473ffffffffffffffffffffffffffffffffffffffff168673ffffffffffffffffffffffffffffffffffffffff168273ffffffffffffffffffffffffffffffffffffffff167f4a39dc06d4c0dbc64b70af90fd698a233a518aa5d07e595d983b8c0526c8f7fb8787604051612838929190614812565b60405180910390a461284e8187878787876130fa565b505050505050565b806003908051906020019061286c929190613953565b5050565b60008060009054906101000a900473ffffffffffffffffffffffffffffffffffffffff169050816000806101000a81548173ffffffffffffffffffffffffffffffffffffffff021916908373ffffffffffffffffffffffffffffffffffffffff1602179055508173ffffffffffffffffffffffffffffffffffffffff168173ffffffffffffffffffffffffffffffffffffffff167f8be0079c531659141344cd1fd0a4f28419497f9722a3daafe3b4186f6b6457e060405160405180910390a35050565b60006129476129416132e1565b836133a4565b9050919050565b600080600061295d85856133d7565b9150915061296a8161345a565b819250505092915050565b600073ffffffffffffffffffffffffffffffffffffffff168373ffffffffffffffffffffffffffffffffffffffff1614156129e5576040517f08c379a00000000000000000000000000000000000000000000000000000000081526004016129dc90614b75565b60405180910390fd5b60006129ef61233e565b9050612a1f81856000612a0187612e45565b612a0a87612e45565b60405180602001604052806000815250612f0b565b60006001600085815260200190815260200160002060008673ffffffffffffffffffffffffffffffffffffffff1673ffffffffffffffffffffffffffffffffffffffff16815260200190815260200160002054905082811015612ab7576040517f08c379a0000000000000000000000000000000000000000000000000000000008152600401612aae90614ab5565b60405180910390fd5b8281036001600086815260200190815260200160002060008773ffffffffffffffffffffffffffffffffffffffff1673ffffffffffffffffffffffffffffffffffffffff16815260200190815260200160002081905550600073ffffffffffffffffffffffffffffffffffffffff168573ffffffffffffffffffffffffffffffffffffffff168373ffffffffffffffffffffffffffffffffffffffff167fc3d58168c5ae7397731d063d5bbf3d657854427343f4c083240f7aacaa2d0f628787604051612b85929190614cb0565b60405180910390a45050505050565b60008183612ba29190614f1d565b905092915050565b60008183612bb89190614ec3565b905092915050565b600073ffffffffffffffffffffffffffffffffffffffff168473ffffffffffffffffffffffffffffffffffffffff161415612c30576040517f08c379a0000000000000000000000000000000000000000000000000000000008152600401612c2790614b15565b60405180910390fd5b6000612c3a61233e565b9050612c5a818787612c4b88612e45565b612c5488612e45565b87612f0b565b60006001600086815260200190815260200160002060008873ffffffffffffffffffffffffffffffffffffffff1673ffffffffffffffffffffffffffffffffffffffff16815260200190815260200160002054905083811015612cf2576040517f08c379a0000000000000000000000000000000000000000000000000000000008152600401612ce990614b95565b60405180910390fd5b8381036001600087815260200190815260200160002060008973ffffffffffffffffffffffffffffffffffffffff1673ffffffffffffffffffffffffffffffffffffffff16815260200190815260200160002081905550836001600087815260200190815260200160002060008873ffffffffffffffffffffffffffffffffffffffff1673ffffffffffffffffffffffffffffffffffffffff1681526020019081526020016000206000828254612da99190614e6d565b925050819055508573ffffffffffffffffffffffffffffffffffffffff168773ffffffffffffffffffffffffffffffffffffffff168373ffffffffffffffffffffffffffffffffffffffff167fc3d58168c5ae7397731d063d5bbf3d657854427343f4c083240f7aacaa2d0f628888604051612e26929190614cb0565b60405180910390a4612e3c828888888888612f13565b50505050505050565b60606000600167ffffffffffffffff811115612e8a577f4e487b7100000000000000000000000000000000000000000000000000000000600052604160045260246000fd5b604051908082528060200260200182016040528015612eb85781602001602082028036833780820191505090505b5090508281600081518110612ef6577f4e487b7100000000000000000000000000000000000000000000000000000000600052603260045260246000fd5b60200260200101818152505080915050919050565b505050505050565b612f328473ffffffffffffffffffffffffffffffffffffffff166137ab565b156130f2578373ffffffffffffffffffffffffffffffffffffffff1663f23a6e6187878686866040518663ffffffff1660e01b8152600401612f7895949392919061473d565b602060405180830381600087803b158015612f9257600080fd5b505af1925050508015612fc357506040513d601f19601f82011682018060405250810190612fc09190613f6a565b60015b61306957612fcf615161565b806308c379a0141561302c5750612fe461587a565b80612fef575061302e565b806040517f08c379a00000000000000000000000000000000000000000000000000000000081526004016130239190614933565b60405180910390fd5b505b6040517f08c379a000000000000000000000000000000000000000000000000000000000815260040161306090614975565b60405180910390fd5b63f23a6e6160e01b7bffffffffffffffffffffffffffffffffffffffffffffffffffffffff1916817bffffffffffffffffffffffffffffffffffffffffffffffffffffffff1916146130f0576040517f08c379a00000000000000000000000000000000000000000000000000000000081526004016130e7906149b5565b60405180910390fd5b505b505050505050565b6131198473ffffffffffffffffffffffffffffffffffffffff166137ab565b156132d9578373ffffffffffffffffffffffffffffffffffffffff1663bc197c8187878686866040518663ffffffff1660e01b815260040161315f9594939291906146d5565b602060405180830381600087803b15801561317957600080fd5b505af19250505080156131aa57506040513d601f19601f820116820180604052508101906131a79190613f6a565b60015b613250576131b6615161565b806308c379a0141561321357506131cb61587a565b806131d65750613215565b806040517f08c379a000000000000000000000000000000000000000000000000000000000815260040161320a9190614933565b60405180910390fd5b505b6040517f08c379a000000000000000000000000000000000000000000000000000000000815260040161324790614975565b60405180910390fd5b63bc197c8160e01b7bffffffffffffffffffffffffffffffffffffffffffffffffffffffff1916817bffffffffffffffffffffffffffffffffffffffffffffffffffffffff1916146132d7576040517f08c379a00000000000000000000000000000000000000000000000000000000081526004016132ce906149b5565b60405180910390fd5b505b505050505050565b60007f0000000000000000000000000000000000000000000000000000000000000000461415613333577f000000000000000000000000000000000000000000000000000000000000000090506133a1565b61339e7f00000000000000000000000000000000000000000000000000000000000000007f00000000000000000000000000000000000000000000000000000000000000007f00000000000000000000000000000000000000000000000000000000000000006137be565b90505b90565b600082826040516020016133b9929190614683565b60405160208183030381529060405280519060200120905092915050565b6000806041835114156134195760008060006020860151925060408601519150606086015160001a905061340d878285856137f8565b94509450505050613453565b60408351141561344a57600080602085015191506040850151905061343f868383613905565b935093505050613453565b60006002915091505b9250929050565b60006004811115613494577f4e487b7100000000000000000000000000000000000000000000000000000000600052602160045260246000fd5b8160048111156134cd577f4e487b7100000000000000000000000000000000000000000000000000000000600052602160045260246000fd5b14156134d8576137a8565b60016004811115613512577f4e487b7100000000000000000000000000000000000000000000000000000000600052602160045260246000fd5b81600481111561354b577f4e487b7100000000000000000000000000000000000000000000000000000000600052602160045260246000fd5b141561358c576040517f08c379a000000000000000000000000000000000000000000000000000000000815260040161358390614955565b60405180910390fd5b600260048111156135c6577f4e487b7100000000000000000000000000000000000000000000000000000000600052602160045260246000fd5b8160048111156135ff577f4e487b7100000000000000000000000000000000000000000000000000000000600052602160045260246000fd5b1415613640576040517f08c379a000000000000000000000000000000000000000000000000000000000815260040161363790614a35565b60405180910390fd5b6003600481111561367a577f4e487b7100000000000000000000000000000000000000000000000000000000600052602160045260246000fd5b8160048111156136b3577f4e487b7100000000000000000000000000000000000000000000000000000000600052602160045260246000fd5b14156136f4576040517f08c379a00000000000000000000000000000000000000000000000000000000081526004016136eb90614af5565b60405180910390fd5b60048081111561372d577f4e487b7100000000000000000000000000000000000000000000000000000000600052602160045260246000fd5b816004811115613766577f4e487b7100000000000000000000000000000000000000000000000000000000600052602160045260246000fd5b14156137a7576040517f08c379a000000000000000000000000000000000000000000000000000000000815260040161379e90614b55565b60405180910390fd5b5b50565b600080823b905060008111915050919050565b600083838346306040516020016137d995949392919061489b565b6040516020818303038152906040528051906020012090509392505050565b6000807f7fffffffffffffffffffffffffffffff5d576e7357a4501ddfe92f46681b20a08360001c11156138335760006003915091506138fc565b601b8560ff161415801561384b5750601c8560ff1614155b1561385d5760006004915091506138fc565b60006001878787876040516000815260200160405260405161388294939291906148ee565b6020604051602081039080840390855afa1580156138a4573d6000803e3d6000fd5b505050602060405103519050600073ffffffffffffffffffffffffffffffffffffffff168173ffffffffffffffffffffffffffffffffffffffff1614156138f3576000600192509250506138fc565b80600092509250505b94509492505050565b6000806000807f7fffffffffffffffffffffffffffffffffffffffffffffffffffffffffffffff85169150601b8560ff1c019050613945878288856137f8565b935093505050935093915050565b82805461395f9061501e565b90600052602060002090601f01602090048101928261398157600085556139c8565b82601f1061399a57805160ff19168380011785556139c8565b828001600101855582156139c8579182015b828111156139c75782518255916020019190600101906139ac565b5b5090506139d591906139d9565b5090565b5b808211156139f25760008160009055506001016139da565b5090565b6000613a09613a0484614cfe565b614cd9565b90508083825260208201905082856020860282011115613a2857600080fd5b60005b85811015613a585781613a3e8882613b4a565b845260208401935060208301925050600181019050613a2b565b5050509392505050565b6000613a75613a7084614d2a565b614cd9565b90508083825260208201905082856020860282011115613a9457600080fd5b60005b85811015613ac45781613aaa8882613c46565b845260208401935060208301925050600181019050613a97565b5050509392505050565b6000613ae1613adc84614d56565b614cd9565b905082815260208101848484011115613af957600080fd5b613b04848285614fdc565b509392505050565b6000613b1f613b1a84614d87565b614cd9565b905082815260208101848484011115613b3757600080fd5b613b42848285614fdc565b509392505050565b600081359050613b5981615910565b92915050565b600082601f830112613b7057600080fd5b8135613b808482602086016139f6565b91505092915050565b600082601f830112613b9a57600080fd5b8135613baa848260208601613a62565b91505092915050565b600081359050613bc281615927565b92915050565b600081359050613bd78161593e565b92915050565b600081519050613bec8161593e565b92915050565b600082601f830112613c0357600080fd5b8135613c13848260208601613ace565b91505092915050565b600082601f830112613c2d57600080fd5b8135613c3d848260208601613b0c565b91505092915050565b600081359050613c5581615955565b92915050565b600060208284031215613c6d57600080fd5b6000613c7b84828501613b4a565b91505092915050565b60008060408385031215613c9757600080fd5b6000613ca585828601613b4a565b9250506020613cb685828601613b4a565b9150509250929050565b600080600080600060a08688031215613cd857600080fd5b6000613ce688828901613b4a565b9550506020613cf788828901613b4a565b945050604086013567ffffffffffffffff811115613d1457600080fd5b613d2088828901613b89565b935050606086013567ffffffffffffffff811115613d3d57600080fd5b613d4988828901613b89565b925050608086013567ffffffffffffffff811115613d6657600080fd5b613d7288828901613bf2565b9150509295509295909350565b600080600080600060a08688031215613d9757600080fd5b6000613da588828901613b4a565b9550506020613db688828901613b4a565b9450506040613dc788828901613c46565b9350506060613dd888828901613c46565b925050608086013567ffffffffffffffff811115613df557600080fd5b613e0188828901613bf2565b9150509295509295909350565b60008060408385031215613e2157600080fd5b6000613e2f85828601613b4a565b9250506020613e4085828601613bb3565b9150509250929050565b60008060408385031215613e5d57600080fd5b6000613e6b85828601613b4a565b9250506020613e7c85828601613c46565b9150509250929050565b60008060408385031215613e9957600080fd5b600083013567ffffffffffffffff811115613eb357600080fd5b613ebf85828601613b5f565b925050602083013567ffffffffffffffff811115613edc57600080fd5b613ee885828601613b89565b9150509250929050565b600080600060608486031215613f0757600080fd5b6000613f1586828701613bb3565b9350506020613f2686828701613c46565b9250506040613f3786828701613bb3565b9150509250925092565b600060208284031215613f5357600080fd5b6000613f6184828501613bc8565b91505092915050565b600060208284031215613f7c57600080fd5b6000613f8a84828501613bdd565b91505092915050565b600060208284031215613fa557600080fd5b600082013567ffffffffffffffff811115613fbf57600080fd5b613fcb84828501613c1c565b91505092915050565b600060208284031215613fe657600080fd5b6000613ff484828501613c46565b91505092915050565b6000806040838503121561401057600080fd5b600061401e85828601613c46565b925050602083013567ffffffffffffffff81111561403b57600080fd5b61404785828601613bf2565b9150509250929050565b6000806040838503121561406457600080fd5b600061407285828601613c46565b925050602061408385828601613c46565b9150509250929050565b6000806000606084860312156140a257600080fd5b60006140b086828701613c46565b93505060206140c186828701613c46565b925050604084013567ffffffffffffffff8111156140de57600080fd5b6140ea86828701613bf2565b9150509250925092565b60006141008383614124565b60208301905092915050565b60006141188383614656565b60208301905092915050565b61412d81614f51565b82525050565b61413c81614f51565b82525050565b600061414d82614dd8565b6141578185614e1e565b935061416283614db8565b8060005b8381101561419357815161417a88826140f4565b975061418583614e04565b925050600181019050614166565b5085935050505092915050565b60006141ab82614de3565b6141b58185614e2f565b93506141c083614dc8565b8060005b838110156141f15781516141d8888261410c565b97506141e383614e11565b9250506001810190506141c4565b5085935050505092915050565b61420781614f63565b82525050565b61421681614f6f565b82525050565b61422d61422882614f6f565b6150ca565b82525050565b600061423e82614dee565b6142488185614e40565b9350614258818560208601614feb565b61426181615183565b840191505092915050565b600061427782614df9565b6142818185614e51565b9350614291818560208601614feb565b61429a81615183565b840191505092915050565b60006142b2601883614e51565b91506142bd826151a1565b602082019050919050565b60006142d5603483614e51565b91506142e0826151ca565b604082019050919050565b60006142f8601083614e51565b915061430382615219565b602082019050919050565b600061431b602883614e51565b915061432682615242565b604082019050919050565b600061433e601283614e51565b915061434982615291565b602082019050919050565b6000614361601483614e51565b915061436c826152ba565b602082019050919050565b6000614384601b83614e51565b915061438f826152e3565b602082019050919050565b60006143a7601f83614e51565b91506143b28261530c565b602082019050919050565b60006143ca602b83614e51565b91506143d582615335565b604082019050919050565b60006143ed602883614e51565b91506143f882615384565b604082019050919050565b6000614410602683614e51565b915061441b826153d3565b604082019050919050565b6000614433602483614e51565b915061443e82615422565b604082019050919050565b6000614456600283614e62565b915061446182615471565b600282019050919050565b6000614479602983614e51565b91506144848261549a565b604082019050919050565b600061449c602283614e51565b91506144a7826154e9565b604082019050919050565b60006144bf602583614e51565b91506144ca82615538565b604082019050919050565b60006144e2603283614e51565b91506144ed82615587565b604082019050919050565b6000614505602283614e51565b9150614510826155d6565b604082019050919050565b6000614528602383614e51565b915061453382615625565b604082019050919050565b600061454b602a83614e51565b915061455682615674565b604082019050919050565b600061456e602083614e51565b9150614579826156c3565b602082019050919050565b6000614591600f83614e51565b915061459c826156ec565b602082019050919050565b60006145b4601583614e51565b91506145bf82615715565b602082019050919050565b60006145d7602983614e51565b91506145e28261573e565b604082019050919050565b60006145fa602983614e51565b91506146058261578d565b604082019050919050565b600061461d602883614e51565b9150614628826157dc565b604082019050919050565b6000614640602183614e51565b915061464b8261582b565b604082019050919050565b61465f81614fc5565b82525050565b61466e81614fc5565b82525050565b61467d81614fcf565b82525050565b600061468e82614449565b915061469a828561421c565b6020820191506146aa828461421c565b6020820191508190509392505050565b60006020820190506146cf6000830184614133565b92915050565b600060a0820190506146ea6000830188614133565b6146f76020830187614133565b818103604083015261470981866141a0565b9050818103606083015261471d81856141a0565b905081810360808301526147318184614233565b90509695505050505050565b600060a0820190506147526000830188614133565b61475f6020830187614133565b61476c6040830186614665565b6147796060830185614665565b818103608083015261478b8184614233565b90509695505050505050565b60006060820190506147ac6000830186614133565b6147b96020830185614665565b6147c66040830184614665565b949350505050565b600060208201905081810360008301526147e88184614142565b905092915050565b6000602082019050818103600083015261480a81846141a0565b905092915050565b6000604082019050818103600083015261482c81856141a0565b9050818103602083015261484081846141a0565b90509392505050565b600060208201905061485e60008301846141fe565b92915050565b6000606082019050614879600083018661420d565b6148866020830185614133565b6148936040830184614665565b949350505050565b600060a0820190506148b0600083018861420d565b6148bd602083018761420d565b6148ca604083018661420d565b6148d76060830185614665565b6148e46080830184614133565b9695505050505050565b6000608082019050614903600083018761420d565b6149106020830186614674565b61491d604083018561420d565b61492a606083018461420d565b95945050505050565b6000602082019050818103600083015261494d818461426c565b905092915050565b6000602082019050818103600083015261496e816142a5565b9050919050565b6000602082019050818103600083015261498e816142c8565b9050919050565b600060208201905081810360008301526149ae816142eb565b9050919050565b600060208201905081810360008301526149ce8161430e565b9050919050565b600060208201905081810360008301526149ee81614331565b9050919050565b60006020820190508181036000830152614a0e81614354565b9050919050565b60006020820190508181036000830152614a2e81614377565b9050919050565b60006020820190508181036000830152614a4e8161439a565b9050919050565b60006020820190508181036000830152614a6e816143bd565b9050919050565b60006020820190508181036000830152614a8e816143e0565b9050919050565b60006020820190508181036000830152614aae81614403565b9050919050565b60006020820190508181036000830152614ace81614426565b9050919050565b60006020820190508181036000830152614aee8161446c565b9050919050565b60006020820190508181036000830152614b0e8161448f565b9050919050565b60006020820190508181036000830152614b2e816144b2565b9050919050565b60006020820190508181036000830152614b4e816144d5565b9050919050565b60006020820190508181036000830152614b6e816144f8565b9050919050565b60006020820190508181036000830152614b8e8161451b565b9050919050565b60006020820190508181036000830152614bae8161453e565b9050919050565b60006020820190508181036000830152614bce81614561565b9050919050565b60006020820190508181036000830152614bee81614584565b9050919050565b60006020820190508181036000830152614c0e816145a7565b9050919050565b60006020820190508181036000830152614c2e816145ca565b9050919050565b60006020820190508181036000830152614c4e816145ed565b9050919050565b60006020820190508181036000830152614c6e81614610565b9050919050565b60006020820190508181036000830152614c8e81614633565b9050919050565b6000602082019050614caa6000830184614665565b92915050565b6000604082019050614cc56000830185614665565b614cd26020830184614665565b9392505050565b6000614ce3614cf4565b9050614cef8282615050565b919050565b6000604051905090565b600067ffffffffffffffff821115614d1957614d18615132565b5b602082029050602081019050919050565b600067ffffffffffffffff821115614d4557614d44615132565b5b602082029050602081019050919050565b600067ffffffffffffffff821115614d7157614d70615132565b5b614d7a82615183565b9050602081019050919050565b600067ffffffffffffffff821115614da257614da1615132565b5b614dab82615183565b9050602081019050919050565b6000819050602082019050919050565b6000819050602082019050919050565b600081519050919050565b600081519050919050565b600081519050919050565b600081519050919050565b6000602082019050919050565b6000602082019050919050565b600082825260208201905092915050565b600082825260208201905092915050565b600082825260208201905092915050565b600082825260208201905092915050565b600081905092915050565b6000614e7882614fc5565b9150614e8383614fc5565b9250827fffffffffffffffffffffffffffffffffffffffffffffffffffffffffffffffff03821115614eb857614eb76150d4565b5b828201905092915050565b6000614ece82614fc5565b9150614ed983614fc5565b9250817fffffffffffffffffffffffffffffffffffffffffffffffffffffffffffffffff0483118215151615614f1257614f116150d4565b5b828202905092915050565b6000614f2882614fc5565b9150614f3383614fc5565b925082821015614f4657614f456150d4565b5b828203905092915050565b6000614f5c82614fa5565b9050919050565b60008115159050919050565b6000819050919050565b60007fffffffff0000000000000000000000000000000000000000000000000000000082169050919050565b600073ffffffffffffffffffffffffffffffffffffffff82169050919050565b6000819050919050565b600060ff82169050919050565b82818337600083830152505050565b60005b83811015615009578082015181840152602081019050614fee565b83811115615018576000848401525b50505050565b6000600282049050600182168061503657607f821691505b6020821081141561504a57615049615103565b5b50919050565b61505982615183565b810181811067ffffffffffffffff8211171561507857615077615132565b5b80604052505050565b600061508c82614fc5565b91507fffffffffffffffffffffffffffffffffffffffffffffffffffffffffffffffff8214156150bf576150be6150d4565b5b600182019050919050565b6000819050919050565b7f4e487b7100000000000000000000000000000000000000000000000000000000600052601160045260246000fd5b7f4e487b7100000000000000000000000000000000000000000000000000000000600052602260045260246000fd5b7f4e487b7100000000000000000000000000000000000000000000000000000000600052604160045260246000fd5b600060033d11156151805760046000803e61517d600051615194565b90505b90565b6000601f19601f8301169050919050565b60008160e01c9050919050565b7f45434453413a20696e76616c6964207369676e61747572650000000000000000600082015250565b7f455243313135353a207472616e7366657220746f206e6f6e204552433131353560008201527f526563656976657220696d706c656d656e746572000000000000000000000000602082015250565b7f4e4f545f494e5f53414c455f54494d4500000000000000000000000000000000600082015250565b7f455243313135353a204552433131353552656365697665722072656a6563746560008201527f6420746f6b656e73000000000000000000000000000000000000000000000000602082015250565b7f45786365656473204d41585f544f4b454e2e0000000000000000000000000000600082015250565b7f53455454494e475f5a45524f5f41444452455353000000000000000000000000600082015250565b7f4e6f7420656c696769626c6520666f722077686974656c6973742e0000000000600082015250565b7f45434453413a20696e76616c6964207369676e6174757265206c656e67746800600082015250565b7f455243313135353a2062616c616e636520717565727920666f7220746865207a60008201527f65726f2061646472657373000000000000000000000000000000000000000000602082015250565b7f45746865722076616c75652073656e74206973206e6f7420657175616c20746860008201527f652070726963652e000000000000000000000000000000000000000000000000602082015250565b7f4f776e61626c653a206e6577206f776e657220697320746865207a65726f206160008201527f6464726573730000000000000000000000000000000000000000000000000000602082015250565b7f455243313135353a206275726e20616d6f756e7420657863656564732062616c60008201527f616e636500000000000000000000000000000000000000000000000000000000602082015250565b7f1901000000000000000000000000000000000000000000000000000000000000600082015250565b7f455243313135353a2063616c6c6572206973206e6f74206f776e6572206e6f7260008201527f20617070726f7665640000000000000000000000000000000000000000000000602082015250565b7f45434453413a20696e76616c6964207369676e6174757265202773272076616c60008201527f7565000000000000000000000000000000000000000000000000000000000000602082015250565b7f455243313135353a207472616e7366657220746f20746865207a65726f20616460008201527f6472657373000000000000000000000000000000000000000000000000000000602082015250565b7f455243313135353a207472616e736665722063616c6c6572206973206e6f742060008201527f6f776e6572206e6f7220617070726f7665640000000000000000000000000000602082015250565b7f45434453413a20696e76616c6964207369676e6174757265202776272076616c60008201527f7565000000000000000000000000000000000000000000000000000000000000602082015250565b7f455243313135353a206275726e2066726f6d20746865207a65726f206164647260008201527f6573730000000000000000000000000000000000000000000000000000000000602082015250565b7f455243313135353a20696e73756666696369656e742062616c616e636520666f60008201527f72207472616e7366657200000000000000000000000000000000000000000000602082015250565b7f4f776e61626c653a2063616c6c6572206973206e6f7420746865206f776e6572600082015250565b7f53414c455f4e4f545f4143544956450000000000000000000000000000000000600082015250565b7f45786365656473206d6178207175616e746974792e0000000000000000000000600082015250565b7f455243313135353a2073657474696e6720617070726f76616c2073746174757360008201527f20666f722073656c660000000000000000000000000000000000000000000000602082015250565b7f455243313135353a206163636f756e747320616e6420696473206c656e67746860008201527f206d69736d617463680000000000000000000000000000000000000000000000602082015250565b7f455243313135353a2069647320616e6420616d6f756e7473206c656e6774682060008201527f6d69736d61746368000000000000000000000000000000000000000000000000602082015250565b7f455243313135353a206d696e7420746f20746865207a65726f2061646472657360008201527f7300000000000000000000000000000000000000000000000000000000000000602082015250565b600060443d101561588a5761590d565b615892614cf4565b60043d036004823e80513d602482011167ffffffffffffffff821117156158ba57505061590d565b808201805167ffffffffffffffff8111156158d8575050505061590d565b80602083010160043d0385018111156158f557505050505061590d565b61590482602001850186615050565b82955050505050505b90565b61591981614f51565b811461592457600080fd5b50565b61593081614f63565b811461593b57600080fd5b50565b61594781614f79565b811461595257600080fd5b50565b61595e81614fc5565b811461596957600080fd5b5056fea26469706673582212207fe8a86628e771cf57e464647dd0b30adb14057ab7115278274e980b85192e3d64736f6c6343000804003368747470733a2f2f676174657761792e70696e6174612e636c6f75642f697066732f516d616b3753516d55726839756a63424c753644644a77595537577479703167783637697548465234776f4a376f",
  "devdoc": {
    "kind": "dev",
    "methods": {
      "balanceOf(address,uint256)": {
        "details": "See {IERC1155-balanceOf}. Requirements: - `account` cannot be the zero address."
      },
      "balanceOfBatch(address[],uint256[])": {
        "details": "See {IERC1155-balanceOfBatch}. Requirements: - `accounts` and `ids` must have the same length."
      },
      "isApprovedForAll(address,address)": {
        "details": "See {IERC1155-isApprovedForAll}."
      },
      "owner()": {
        "details": "Returns the address of the current owner."
      },
      "renounceOwnership()": {
        "details": "Leaves the contract without owner. It will not be possible to call `onlyOwner` functions anymore. Can only be called by the current owner. NOTE: Renouncing ownership will leave the contract without an owner, thereby removing any functionality that is only available to the owner."
      },
      "safeBatchTransferFrom(address,address,uint256[],uint256[],bytes)": {
        "details": "See {IERC1155-safeBatchTransferFrom}."
      },
      "safeTransferFrom(address,address,uint256,uint256,bytes)": {
        "details": "See {IERC1155-safeTransferFrom}."
      },
      "setApprovalForAll(address,bool)": {
        "details": "See {IERC1155-setApprovalForAll}."
      },
      "supportsInterface(bytes4)": {
        "details": "See {IERC165-supportsInterface}."
      },
      "transferOwnership(address)": {
        "details": "Transfers ownership of the contract to a new account (`newOwner`). Can only be called by the current owner."
      },
      "uri(uint256)": {
        "details": "See {IERC1155MetadataURI-uri}. This implementation returns the same URI for *all* token types. It relies on the token type ID substitution mechanism https://eips.ethereum.org/EIPS/eip-1155#metadata[defined in the EIP]. Clients calling this function must replace the `\\{id\\}` substring with the actual token type ID."
      }
    },
    "version": 1
  },
  "userdoc": {
    "kind": "user",
    "methods": {},
    "version": 1
  },
  "storageLayout": {
    "storage": [
      {
        "astId": 7,
        "contract": "contracts/BlockBanana.sol:BlockBanana",
        "label": "_owner",
        "offset": 0,
        "slot": "0",
        "type": "t_address"
      },
      {
        "astId": 129,
        "contract": "contracts/BlockBanana.sol:BlockBanana",
        "label": "_balances",
        "offset": 0,
        "slot": "1",
        "type": "t_mapping(t_uint256,t_mapping(t_address,t_uint256))"
      },
      {
        "astId": 135,
        "contract": "contracts/BlockBanana.sol:BlockBanana",
        "label": "_operatorApprovals",
        "offset": 0,
        "slot": "2",
        "type": "t_mapping(t_address,t_mapping(t_address,t_bool))"
      },
      {
        "astId": 137,
        "contract": "contracts/BlockBanana.sol:BlockBanana",
        "label": "_uri",
        "offset": 0,
        "slot": "3",
        "type": "t_string_storage"
      },
      {
        "astId": 2760,
        "contract": "contracts/BlockBanana.sol:BlockBanana",
        "label": "_name",
        "offset": 0,
        "slot": "4",
        "type": "t_string_storage"
      },
      {
        "astId": 2763,
        "contract": "contracts/BlockBanana.sol:BlockBanana",
        "label": "_symbol",
        "offset": 0,
        "slot": "5",
        "type": "t_string_storage"
      },
      {
        "astId": 2766,
        "contract": "contracts/BlockBanana.sol:BlockBanana",
        "label": "MAX_TOKEN",
        "offset": 0,
        "slot": "6",
        "type": "t_uint256"
      },
      {
        "astId": 2769,
        "contract": "contracts/BlockBanana.sol:BlockBanana",
        "label": "HOLDER_MAX",
        "offset": 0,
        "slot": "7",
        "type": "t_uint256"
      },
      {
        "astId": 2772,
        "contract": "contracts/BlockBanana.sol:BlockBanana",
        "label": "PRICE",
        "offset": 0,
        "slot": "8",
        "type": "t_uint256"
      },
      {
        "astId": 2775,
        "contract": "contracts/BlockBanana.sol:BlockBanana",
        "label": "saleTimestamp",
        "offset": 0,
        "slot": "9",
        "type": "t_uint256"
      },
      {
        "astId": 2778,
        "contract": "contracts/BlockBanana.sol:BlockBanana",
        "label": "totalSupply",
        "offset": 0,
        "slot": "10",
        "type": "t_uint256"
      },
      {
        "astId": 2781,
        "contract": "contracts/BlockBanana.sol:BlockBanana",
        "label": "hasSaleStarted",
        "offset": 0,
        "slot": "11",
        "type": "t_bool"
      },
      {
        "astId": 2784,
        "contract": "contracts/BlockBanana.sol:BlockBanana",
        "label": "whitelistSwitch",
        "offset": 1,
        "slot": "11",
        "type": "t_bool"
      },
      {
        "astId": 2787,
        "contract": "contracts/BlockBanana.sol:BlockBanana",
        "label": "treasury",
        "offset": 2,
        "slot": "11",
        "type": "t_address"
      },
      {
        "astId": 2791,
        "contract": "contracts/BlockBanana.sol:BlockBanana",
        "label": "hasMint",
        "offset": 0,
        "slot": "12",
        "type": "t_mapping(t_address,t_uint256)"
      },
      {
        "astId": 2796,
        "contract": "contracts/BlockBanana.sol:BlockBanana",
        "label": "idHolder",
        "offset": 0,
        "slot": "13",
        "type": "t_mapping(t_uint256,t_array(t_address)dyn_storage)"
      }
    ],
    "types": {
      "t_address": {
        "encoding": "inplace",
        "label": "address",
        "numberOfBytes": "20"
      },
      "t_array(t_address)dyn_storage": {
        "base": "t_address",
        "encoding": "dynamic_array",
        "label": "address[]",
        "numberOfBytes": "32"
      },
      "t_bool": {
        "encoding": "inplace",
        "label": "bool",
        "numberOfBytes": "1"
      },
      "t_mapping(t_address,t_bool)": {
        "encoding": "mapping",
        "key": "t_address",
        "label": "mapping(address => bool)",
        "numberOfBytes": "32",
        "value": "t_bool"
      },
      "t_mapping(t_address,t_mapping(t_address,t_bool))": {
        "encoding": "mapping",
        "key": "t_address",
        "label": "mapping(address => mapping(address => bool))",
        "numberOfBytes": "32",
        "value": "t_mapping(t_address,t_bool)"
      },
      "t_mapping(t_address,t_uint256)": {
        "encoding": "mapping",
        "key": "t_address",
        "label": "mapping(address => uint256)",
        "numberOfBytes": "32",
        "value": "t_uint256"
      },
      "t_mapping(t_uint256,t_array(t_address)dyn_storage)": {
        "encoding": "mapping",
        "key": "t_uint256",
        "label": "mapping(uint256 => address[])",
        "numberOfBytes": "32",
        "value": "t_array(t_address)dyn_storage"
      },
      "t_mapping(t_uint256,t_mapping(t_address,t_uint256))": {
        "encoding": "mapping",
        "key": "t_uint256",
        "label": "mapping(uint256 => mapping(address => uint256))",
        "numberOfBytes": "32",
        "value": "t_mapping(t_address,t_uint256)"
      },
      "t_string_storage": {
        "encoding": "bytes",
        "label": "string",
        "numberOfBytes": "32"
      },
      "t_uint256": {
        "encoding": "inplace",
        "label": "uint256",
        "numberOfBytes": "32"
      }
    }
  }
}