{
  "address": "0xD39157285AFA6B6825472bC917B8795aE8B9c798",
  "abi": [
    {
      "inputs": [],
      "stateMutability": "nonpayable",
      "type": "constructor"
    },
    {
      "anonymous": false,
      "inputs": [
        {
          "indexed": true,
          "internalType": "address",
          "name": "account",
          "type": "address"
        },
        {
          "indexed": true,
          "internalType": "address",
          "name": "operator",
          "type": "address"
        },
        {
          "indexed": false,
          "internalType": "bool",
          "name": "approved",
          "type": "bool"
        }
      ],
      "name": "ApprovalForAll",
      "type": "event"
    },
    {
      "anonymous": false,
      "inputs": [
        {
          "indexed": true,
          "internalType": "address",
          "name": "previousOwner",
          "type": "address"
        },
        {
          "indexed": true,
          "internalType": "address",
          "name": "newOwner",
          "type": "address"
        }
      ],
      "name": "OwnershipTransferred",
      "type": "event"
    },
    {
      "anonymous": false,
      "inputs": [
        {
          "indexed": true,
          "internalType": "address",
          "name": "operator",
          "type": "address"
        },
        {
          "indexed": true,
          "internalType": "address",
          "name": "from",
          "type": "address"
        },
        {
          "indexed": true,
          "internalType": "address",
          "name": "to",
          "type": "address"
        },
        {
          "indexed": false,
          "internalType": "uint256[]",
          "name": "ids",
          "type": "uint256[]"
        },
        {
          "indexed": false,
          "internalType": "uint256[]",
          "name": "values",
          "type": "uint256[]"
        }
      ],
      "name": "TransferBatch",
      "type": "event"
    },
    {
      "anonymous": false,
      "inputs": [
        {
          "indexed": true,
          "internalType": "address",
          "name": "operator",
          "type": "address"
        },
        {
          "indexed": true,
          "internalType": "address",
          "name": "from",
          "type": "address"
        },
        {
          "indexed": true,
          "internalType": "address",
          "name": "to",
          "type": "address"
        },
        {
          "indexed": false,
          "internalType": "uint256",
          "name": "id",
          "type": "uint256"
        },
        {
          "indexed": false,
          "internalType": "uint256",
          "name": "value",
          "type": "uint256"
        }
      ],
      "name": "TransferSingle",
      "type": "event"
    },
    {
      "anonymous": false,
      "inputs": [
        {
          "indexed": false,
          "internalType": "string",
          "name": "value",
          "type": "string"
        },
        {
          "indexed": true,
          "internalType": "uint256",
          "name": "id",
          "type": "uint256"
        }
      ],
      "name": "URI",
      "type": "event"
    },
    {
      "anonymous": false,
      "inputs": [
        {
          "indexed": false,
          "internalType": "address",
          "name": "account",
          "type": "address"
        },
        {
          "indexed": false,
          "internalType": "uint256",
          "name": "quantity",
          "type": "uint256"
        }
      ],
      "name": "burnEvent",
      "type": "event"
    },
    {
      "anonymous": false,
      "inputs": [
        {
          "indexed": false,
          "internalType": "address",
          "name": "owner",
          "type": "address"
        },
        {
          "indexed": false,
          "internalType": "uint256",
          "name": "quantity",
          "type": "uint256"
        },
        {
          "indexed": false,
          "internalType": "uint256",
          "name": "totalSupply",
          "type": "uint256"
        }
      ],
      "name": "mintEvent",
      "type": "event"
    },
    {
      "inputs": [],
      "name": "HOLDER_MAX",
      "outputs": [
        {
          "internalType": "uint256",
          "name": "",
          "type": "uint256"
        }
      ],
      "stateMutability": "view",
      "type": "function"
    },
    {
      "inputs": [],
      "name": "MAX_TOKEN",
      "outputs": [
        {
          "internalType": "uint256",
          "name": "",
          "type": "uint256"
        }
      ],
      "stateMutability": "view",
      "type": "function"
    },
    {
      "inputs": [],
      "name": "PRICE",
      "outputs": [
        {
          "internalType": "uint256",
          "name": "",
          "type": "uint256"
        }
      ],
      "stateMutability": "view",
      "type": "function"
    },
    {
      "inputs": [
        {
          "internalType": "address",
          "name": "account",
          "type": "address"
        },
        {
          "internalType": "uint256",
          "name": "id",
          "type": "uint256"
        }
      ],
      "name": "balanceOf",
      "outputs": [
        {
          "internalType": "uint256",
          "name": "",
          "type": "uint256"
        }
      ],
      "stateMutability": "view",
      "type": "function"
    },
    {
      "inputs": [
        {
          "internalType": "address[]",
          "name": "accounts",
          "type": "address[]"
        },
        {
          "internalType": "uint256[]",
          "name": "ids",
          "type": "uint256[]"
        }
      ],
      "name": "balanceOfBatch",
      "outputs": [
        {
          "internalType": "uint256[]",
          "name": "",
          "type": "uint256[]"
        }
      ],
      "stateMutability": "view",
      "type": "function"
    },
    {
      "inputs": [
        {
          "internalType": "address",
          "name": "account",
          "type": "address"
        },
        {
          "internalType": "uint256",
          "name": "quantity",
          "type": "uint256"
        }
      ],
      "name": "burn",
      "outputs": [],
      "stateMutability": "nonpayable",
      "type": "function"
    },
    {
      "inputs": [],
      "name": "burnStarted",
      "outputs": [
        {
          "internalType": "bool",
          "name": "",
          "type": "bool"
        }
      ],
      "stateMutability": "view",
      "type": "function"
    },
    {
      "inputs": [
        {
          "internalType": "address",
          "name": "to",
          "type": "address"
        },
        {
          "internalType": "uint256",
          "name": "quantity",
          "type": "uint256"
        }
      ],
      "name": "giveaway",
      "outputs": [],
      "stateMutability": "nonpayable",
      "type": "function"
    },
    {
      "inputs": [
        {
          "internalType": "address",
          "name": "",
          "type": "address"
        }
      ],
      "name": "hasMint",
      "outputs": [
        {
          "internalType": "uint256",
          "name": "",
          "type": "uint256"
        }
      ],
      "stateMutability": "view",
      "type": "function"
    },
    {
      "inputs": [],
      "name": "hasSaleStarted",
      "outputs": [
        {
          "internalType": "bool",
          "name": "",
          "type": "bool"
        }
      ],
      "stateMutability": "view",
      "type": "function"
    },
    {
      "inputs": [
        {
          "internalType": "address",
          "name": "account",
          "type": "address"
        },
        {
          "internalType": "address",
          "name": "operator",
          "type": "address"
        }
      ],
      "name": "isApprovedForAll",
      "outputs": [
        {
          "internalType": "bool",
          "name": "",
          "type": "bool"
        }
      ],
      "stateMutability": "view",
      "type": "function"
    },
    {
      "inputs": [
        {
          "internalType": "uint256",
          "name": "quantity",
          "type": "uint256"
        },
        {
          "internalType": "uint256",
          "name": "maxQuantity",
          "type": "uint256"
        },
        {
          "internalType": "bytes",
          "name": "SIGNATURE",
          "type": "bytes"
        }
      ],
      "name": "mintNFT",
      "outputs": [],
      "stateMutability": "payable",
      "type": "function"
    },
    {
      "inputs": [],
      "name": "name",
      "outputs": [
        {
          "internalType": "string",
          "name": "",
          "type": "string"
        }
      ],
      "stateMutability": "view",
      "type": "function"
    },
    {
      "inputs": [],
      "name": "owner",
      "outputs": [
        {
          "internalType": "address",
          "name": "",
          "type": "address"
        }
      ],
      "stateMutability": "view",
      "type": "function"
    },
    {
      "inputs": [],
      "name": "renounceOwnership",
      "outputs": [],
      "stateMutability": "nonpayable",
      "type": "function"
    },
    {
      "inputs": [
        {
          "internalType": "address",
          "name": "from",
          "type": "address"
        },
        {
          "internalType": "address",
          "name": "to",
          "type": "address"
        },
        {
          "internalType": "uint256[]",
          "name": "ids",
          "type": "uint256[]"
        },
        {
          "internalType": "uint256[]",
          "name": "amounts",
          "type": "uint256[]"
        },
        {
          "internalType": "bytes",
          "name": "data",
          "type": "bytes"
        }
      ],
      "name": "safeBatchTransferFrom",
      "outputs": [],
      "stateMutability": "nonpayable",
      "type": "function"
    },
    {
      "inputs": [
        {
          "internalType": "address",
          "name": "from",
          "type": "address"
        },
        {
          "internalType": "address",
          "name": "to",
          "type": "address"
        },
        {
          "internalType": "uint256",
          "name": "id",
          "type": "uint256"
        },
        {
          "internalType": "uint256",
          "name": "amount",
          "type": "uint256"
        },
        {
          "internalType": "bytes",
          "name": "data",
          "type": "bytes"
        }
      ],
      "name": "safeTransferFrom",
      "outputs": [],
      "stateMutability": "nonpayable",
      "type": "function"
    },
    {
      "inputs": [],
      "name": "saleTimestamp",
      "outputs": [
        {
          "internalType": "uint256",
          "name": "",
          "type": "uint256"
        }
      ],
      "stateMutability": "view",
      "type": "function"
    },
    {
      "inputs": [
        {
          "internalType": "address",
          "name": "operator",
          "type": "address"
        },
        {
          "internalType": "bool",
          "name": "approved",
          "type": "bool"
        }
      ],
      "name": "setApprovalForAll",
      "outputs": [],
      "stateMutability": "nonpayable",
      "type": "function"
    },
    {
      "inputs": [
        {
          "internalType": "string",
          "name": "baseURI",
          "type": "string"
        }
      ],
      "name": "setBaseURI",
      "outputs": [],
      "stateMutability": "nonpayable",
      "type": "function"
    },
    {
      "inputs": [
        {
          "internalType": "bool",
          "name": "_burnStarted",
          "type": "bool"
        }
      ],
      "name": "setBurn",
      "outputs": [],
      "stateMutability": "nonpayable",
      "type": "function"
    },
    {
      "inputs": [
        {
          "internalType": "uint256",
          "name": "_MAX_TOKEN",
          "type": "uint256"
        },
        {
          "internalType": "uint256",
          "name": "_HOLDER_MAX",
          "type": "uint256"
        }
      ],
      "name": "setMAX_TOKEN",
      "outputs": [],
      "stateMutability": "nonpayable",
      "type": "function"
    },
    {
      "inputs": [
        {
          "internalType": "bool",
          "name": "_hasSaleStarted",
          "type": "bool"
        },
        {
          "internalType": "uint256",
          "name": "_saleTimestamp",
          "type": "uint256"
        },
        {
          "internalType": "bool",
          "name": "_whitelistSwitch",
          "type": "bool"
        }
      ],
      "name": "setSaleTime",
      "outputs": [],
      "stateMutability": "nonpayable",
      "type": "function"
    },
    {
      "inputs": [
        {
          "internalType": "address",
          "name": "_treasury",
          "type": "address"
        }
      ],
      "name": "setTreasury",
      "outputs": [],
      "stateMutability": "nonpayable",
      "type": "function"
    },
    {
      "inputs": [
        {
          "internalType": "uint256",
          "name": "_price",
          "type": "uint256"
        }
      ],
      "name": "set_PRICE",
      "outputs": [],
      "stateMutability": "nonpayable",
      "type": "function"
    },
    {
      "inputs": [
        {
          "internalType": "bytes4",
          "name": "interfaceId",
          "type": "bytes4"
        }
      ],
      "name": "supportsInterface",
      "outputs": [
        {
          "internalType": "bool",
          "name": "",
          "type": "bool"
        }
      ],
      "stateMutability": "view",
      "type": "function"
    },
    {
      "inputs": [],
      "name": "symbol",
      "outputs": [
        {
          "internalType": "string",
          "name": "",
          "type": "string"
        }
      ],
      "stateMutability": "view",
      "type": "function"
    },
    {
      "inputs": [],
      "name": "totalSupply",
      "outputs": [
        {
          "internalType": "uint256",
          "name": "",
          "type": "uint256"
        }
      ],
      "stateMutability": "view",
      "type": "function"
    },
    {
      "inputs": [
        {
          "internalType": "address",
          "name": "newOwner",
          "type": "address"
        }
      ],
      "name": "transferOwnership",
      "outputs": [],
      "stateMutability": "nonpayable",
      "type": "function"
    },
    {
      "inputs": [],
      "name": "treasury",
      "outputs": [
        {
          "internalType": "address",
          "name": "",
          "type": "address"
        }
      ],
      "stateMutability": "view",
      "type": "function"
    },
    {
      "inputs": [
        {
          "internalType": "uint256",
          "name": "",
          "type": "uint256"
        }
      ],
      "name": "uri",
      "outputs": [
        {
          "internalType": "string",
          "name": "",
          "type": "string"
        }
      ],
      "stateMutability": "view",
      "type": "function"
    },
    {
      "inputs": [
        {
          "internalType": "uint256",
          "name": "maxQuantity",
          "type": "uint256"
        },
        {
          "internalType": "bytes",
          "name": "SIGNATURE",
          "type": "bytes"
        }
      ],
      "name": "verify",
      "outputs": [
        {
          "internalType": "bool",
          "name": "",
          "type": "bool"
        }
      ],
      "stateMutability": "view",
      "type": "function"
    },
    {
      "inputs": [],
      "name": "whitelistSwitch",
      "outputs": [
        {
          "internalType": "bool",
          "name": "",
          "type": "bool"
        }
      ],
      "stateMutability": "view",
      "type": "function"
    },
    {
      "inputs": [],
      "name": "withdrawAll",
      "outputs": [],
      "stateMutability": "payable",
      "type": "function"
    }
  ],
  "transactionHash": "0x329b96ed900ac6c8abf349e7a2bb747af986acd16e393f715770d07f13de7089",
  "args": [],
  "numDeployments": 9,
  "solcInputHash": "e8f48150d14f2ae87d0017461c0ed329",
  "bytecode": "0x610160604052600261012081905261212160f11b6101409081526200002891600491906200022f565b5060408051808201909152600280825261212160f11b602090920191825262000054916005916200022f565b5061271060065560036007556702c68af0bb1400006008556361e530106009556000600a55600b80546001600160b81b031916765279246e3626cebe71a4c181382a50a71d2a4156000101179055348015620000af57600080fd5b5060405180608001604052806050815260200162003047605091396040518060400160405280600c81526020016b426c6f636b2042616e616e6160a01b815250604051806040016040528060058152602001640312e302e360dc1b8152506200012762000121620001c260201b60201c565b620001c6565b815160209283012081519183019190912060c082815260e08290524660a0818152604080517f8b73c3c69bb8fe3d512ecc4cf759cc79239f7b179b0ffacaa9a75d522b39400f81890181905281830197909752606081019590955260808086019390935230858301528051808603909201825293909201909252805193019290922090915261010052620001bb8162000216565b5062000312565b3390565b600080546001600160a01b038381166001600160a01b0319831681178455604051919092169283917f8be0079c531659141344cd1fd0a4f28419497f9722a3daafe3b4186f6b6457e09190a35050565b80516200022b9060039060208401906200022f565b5050565b8280546200023d90620002d5565b90600052602060002090601f016020900481019282620002615760008555620002ac565b82601f106200027c57805160ff1916838001178555620002ac565b82800160010185558215620002ac579182015b82811115620002ac5782518255916020019190600101906200028f565b50620002ba929150620002be565b5090565b5b80821115620002ba5760008155600101620002bf565b600181811c90821680620002ea57607f821691505b602082108114156200030c57634e487b7160e01b600052602260045260246000fd5b50919050565b60805160a05160c05160e05161010051612cf0620003576000396000611e7f01526000611ece01526000611ea901526000611e2d01526000611e560152612cf06000f3fe6080604052600436106101f85760003560e01c806385852ce41161010d578063c1c25bc5116100a0578063e985e9c51161006f578063e985e9c514610587578063f0f44260146105d0578063f242432a146105f0578063f2fde38b14610610578063fbf76eb21461063057600080fd5b8063c1c25bc514610511578063c78225981461053e578063d46c281114610554578063dfadaed71461056757600080fd5b80639dc29fac116100dc5780639dc29fac14610492578063a22cb465146104b2578063bcd25ee5146104d2578063bd55cf0d146104f157600080fd5b806385852ce4146104295780638d859f3e146104495780638da5cb5b1461045f57806395d89b411461047d57600080fd5b80632eb2c2d61161019057806361d027b31161015f57806361d027b3146103975780636456c205146103d65780636e1bd323146103f6578063715018a61461040c578063853828b61461042157600080fd5b80632eb2c2d61461030a57806339cce68e1461032a5780634e1273f41461034a57806355f804b31461037757600080fd5b80630e89341c116101cc5780630e89341c146102a4578063155d27dc146102c457806318160ddd146102da5780631c8b232d146102f057600080fd5b8062fdd58e146101fd57806301ffc9a714610230578063050225ea1461026057806306fdde0314610282575b600080fd5b34801561020957600080fd5b5061021d6102183660046125e0565b610650565b6040519081526020015b60405180910390f35b34801561023c57600080fd5b5061025061024b366004612729565b6106e9565b6040519015158152602001610227565b34801561026c57600080fd5b5061028061027b3660046125e0565b61073b565b005b34801561028e57600080fd5b506102976108ea565b60405161022791906129da565b3480156102b057600080fd5b506102976102bf3660046127af565b61097c565b3480156102d057600080fd5b5061021d60075481565b3480156102e657600080fd5b5061021d600a5481565b3480156102fc57600080fd5b50600b546102509060ff1681565b34801561031657600080fd5b506102806103253660046124ae565b610a10565b34801561033657600080fd5b506102806103453660046126ee565b610aa7565b34801561035657600080fd5b5061036a610365366004612609565b610b00565b6040516102279190612999565b34801561038357600080fd5b50610280610392366004612761565b610c62565b3480156103a357600080fd5b50600b546103be90630100000090046001600160a01b031681565b6040516001600160a01b039091168152602001610227565b3480156103e257600080fd5b506102806103f13660046127af565b610c98565b34801561040257600080fd5b5061021d60065481565b34801561041857600080fd5b50610280610cc7565b610280610cfd565b34801561043557600080fd5b506102506104443660046127c7565b610d61565b34801561045557600080fd5b5061021d60085481565b34801561046b57600080fd5b506000546001600160a01b03166103be565b34801561048957600080fd5b50610297610e02565b34801561049e57600080fd5b506102806104ad3660046125e0565b610e11565b3480156104be57600080fd5b506102806104cd3660046125b7565b610f22565b3480156104de57600080fd5b50600b5461025090610100900460ff1681565b3480156104fd57600080fd5b5061028061050c3660046126d4565b610ff9565b34801561051d57600080fd5b5061021d61052c366004612462565b600c6020526000908152604090205481565b34801561054a57600080fd5b5061021d60095481565b610280610562366004612823565b61103f565b34801561057357600080fd5b50610280610582366004612802565b611304565b34801561059357600080fd5b506102506105a236600461247c565b6001600160a01b03918216600090815260026020908152604080832093909416825291909152205460ff1690565b3480156105dc57600080fd5b506102806105eb366004612462565b611339565b3480156105fc57600080fd5b5061028061060b366004612554565b6113e5565b34801561061c57600080fd5b5061028061062b366004612462565b61146c565b34801561063c57600080fd5b50600b546102509062010000900460ff1681565b60006001600160a01b0383166106c15760405162461bcd60e51b815260206004820152602b60248201527f455243313135353a2062616c616e636520717565727920666f7220746865207a60448201526a65726f206164647265737360a81b60648201526084015b60405180910390fd5b5060009081526001602090815260408083206001600160a01b03949094168352929052205490565b60006001600160e01b03198216636cdb3d1360e11b148061071a57506001600160e01b031982166303a24d0760e21b145b8061073557506301ffc9a760e01b6001600160e01b03198316145b92915050565b6000546001600160a01b031633146107655760405162461bcd60e51b81526004016106b890612ac4565b600654600a546107759083611504565b11156107b85760405162461bcd60e51b815260206004820152601260248201527122bc31b2b2b2399026a0ac2faa27a5a2a71760711b60448201526064016106b8565b6000811180156107ec57506007546001600160a01b0383166000908152600c60205260409020546107e99083611504565b11155b6108305760405162461bcd60e51b815260206004820152601560248201527422bc31b2b2b2399036b0bc1038bab0b73a34ba3c9760591b60448201526064016106b8565b61084c8260018360405180602001604052806000815250611517565b6001600160a01b0382166000908152600c602052604090205461086f9082611504565b6001600160a01b0383166000908152600c6020526040902055600a546108959082611504565b600a819055604080516001600160a01b038516815260208101849052908101919091527f9670c8b300c38cd3db8d3f9429dd902e67f418c4dd193e2497f06d20efc79560906060015b60405180910390a15050565b6060600480546108f990612b54565b80601f016020809104026020016040519081016040528092919081815260200182805461092590612b54565b80156109725780601f1061094757610100808354040283529160200191610972565b820191906000526020600020905b81548152906001019060200180831161095557829003601f168201915b5050505050905090565b60606003805461098b90612b54565b80601f01602080910402602001604051908101604052809291908181526020018280546109b790612b54565b8015610a045780601f106109d957610100808354040283529160200191610a04565b820191906000526020600020905b8154815290600101906020018083116109e757829003601f168201915b50505050509050919050565b6001600160a01b038516331480610a2c5750610a2c85336105a2565b610a935760405162461bcd60e51b815260206004820152603260248201527f455243313135353a207472616e736665722063616c6c6572206973206e6f74206044820152711bdddb995c881b9bdc88185c1c1c9bdd995960721b60648201526084016106b8565b610aa08585858585611623565b5050505050565b6000546001600160a01b03163314610ad15760405162461bcd60e51b81526004016106b890612ac4565b600b80546009939093559015156101000261ff00199315159390931661ffff1990921691909117919091179055565b60608151835114610b655760405162461bcd60e51b815260206004820152602960248201527f455243313135353a206163636f756e747320616e6420696473206c656e677468604482015268040dad2e6dac2e8c6d60bb1b60648201526084016106b8565b6000835167ffffffffffffffff811115610b8f57634e487b7160e01b600052604160045260246000fd5b604051908082528060200260200182016040528015610bb8578160200160208202803683370190505b50905060005b8451811015610c5a57610c1f858281518110610bea57634e487b7160e01b600052603260045260246000fd5b6020026020010151858381518110610c1257634e487b7160e01b600052603260045260246000fd5b6020026020010151610650565b828281518110610c3f57634e487b7160e01b600052603260045260246000fd5b6020908102919091010152610c5381612bbc565b9050610bbe565b509392505050565b6000546001600160a01b03163314610c8c5760405162461bcd60e51b81526004016106b890612ac4565b610c958161181f565b50565b6000546001600160a01b03163314610cc25760405162461bcd60e51b81526004016106b890612ac4565b600855565b6000546001600160a01b03163314610cf15760405162461bcd60e51b81526004016106b890612ac4565b610cfb6000611836565b565b6000546001600160a01b03163314610d275760405162461bcd60e51b81526004016106b890612ac4565b600b546040516001600160a01b03630100000090920491909116904780156108fc02916000818181858888f19350505050610cfb57600080fd5b600080610dd2610dcc7f182854de6a51f3818344a7eb784b9d55c1e6d2d20c9f9aea309f5daaaaddfec1336040805160208101939093526001600160a01b03909116908201526060810187905260800160405160208183030381529060405280519060200120611886565b846118d4565b9050806001600160a01b0316610df06000546001600160a01b031690565b6001600160a01b031614949350505050565b6060600580546108f990612b54565b600b5462010000900460ff161515600114610e655760405162461bcd60e51b8152602060048201526014602482015273213ab937103430b9b713ba1039ba30b93a32b21760611b60448201526064016106b8565b6001600160a01b038216321480610e815750610e8182336105a2565b610ed75760405162461bcd60e51b815260206004820152602160248201527f43616c6c6572206973206e6f74206f776e6572206e6f7220617070726f7665646044820152601760f91b60648201526084016106b8565b610ee3826001836118f0565b604080516001600160a01b0384168152602081018390527fda4e31583a2259fe317cadb7a8df04c4ff0072abd596ee177b39d24894a2ec6b91016108de565b336001600160a01b0383161415610f8d5760405162461bcd60e51b815260206004820152602960248201527f455243313135353a2073657474696e6720617070726f76616c20737461747573604482015268103337b91039b2b63360b91b60648201526084016106b8565b3360008181526002602090815260408083206001600160a01b03871680855290835292819020805460ff191686151590811790915590519081529192917f17307eab39ab6107e8899845ad3d59bd9653f200f220920489ca2b5937696c31910160405180910390a35050565b6000546001600160a01b031633146110235760405162461bcd60e51b81526004016106b890612ac4565b600b8054911515620100000262ff000019909216919091179055565b600b5460ff1615156001146110885760405162461bcd60e51b815260206004820152600f60248201526e53414c455f4e4f545f41435449564560881b60448201526064016106b8565b6009544210156110cd5760405162461bcd60e51b815260206004820152601060248201526f4e4f545f494e5f53414c455f54494d4560801b60448201526064016106b8565b600b5460ff61010090910416151560011415611139576110ed8282610d61565b6111395760405162461bcd60e51b815260206004820152601b60248201527f4e6f7420656c696769626c6520666f722077686974656c6973742e000000000060448201526064016106b8565b600654600a546111499085611504565b111561118c5760405162461bcd60e51b815260206004820152601260248201527122bc31b2b2b2399026a0ac2faa27a5a2a71760711b60448201526064016106b8565b6000831180156111b75750600754336000908152600c60205260409020546111b49085611504565b11155b6111fb5760405162461bcd60e51b815260206004820152601560248201527422bc31b2b2b2399036b0bc1038bab0b73a34ba3c9760591b60448201526064016106b8565b6008546112089084611a6e565b34146112675760405162461bcd60e51b815260206004820152602860248201527f45746865722076616c75652073656e74206973206e6f7420657175616c2074686044820152673290383934b1b29760c11b60648201526084016106b8565b6112833360018560405180602001604052806000815250611517565b336000908152600c602052604090205461129d9084611504565b336000908152600c6020526040902055600a546112ba9084611504565b600a819055604080513381526020810186905280820192909252517f9670c8b300c38cd3db8d3f9429dd902e67f418c4dd193e2497f06d20efc795609181900360600190a1505050565b6000546001600160a01b0316331461132e5760405162461bcd60e51b81526004016106b890612ac4565b600691909155600755565b6000546001600160a01b031633146113635760405162461bcd60e51b81526004016106b890612ac4565b600b54630100000090046001600160a01b03166113b95760405162461bcd60e51b815260206004820152601460248201527353455454494e475f5a45524f5f4144445245535360601b60448201526064016106b8565b600b80546001600160a01b039092166301000000026301000000600160b81b0319909216919091179055565b6001600160a01b038516331480611401575061140185336105a2565b61145f5760405162461bcd60e51b815260206004820152602960248201527f455243313135353a2063616c6c6572206973206e6f74206f776e6572206e6f7260448201526808185c1c1c9bdd995960ba1b60648201526084016106b8565b610aa08585858585611a7a565b6000546001600160a01b031633146114965760405162461bcd60e51b81526004016106b890612ac4565b6001600160a01b0381166114fb5760405162461bcd60e51b815260206004820152602660248201527f4f776e61626c653a206e6577206f776e657220697320746865207a65726f206160448201526564647265737360d01b60648201526084016106b8565b610c9581611836565b60006115108284612b1d565b9392505050565b6001600160a01b0384166115775760405162461bcd60e51b815260206004820152602160248201527f455243313135353a206d696e7420746f20746865207a65726f206164647265736044820152607360f81b60648201526084016106b8565b336115918160008761158888611b9b565b610aa088611b9b565b60008481526001602090815260408083206001600160a01b0389168452909152812080548592906115c3908490612b1d565b909155505060408051858152602081018590526001600160a01b0380881692600092918516917fc3d58168c5ae7397731d063d5bbf3d657854427343f4c083240f7aacaa2d0f62910160405180910390a4610aa081600087878787611bf4565b81518351146116855760405162461bcd60e51b815260206004820152602860248201527f455243313135353a2069647320616e6420616d6f756e7473206c656e677468206044820152670dad2e6dac2e8c6d60c31b60648201526084016106b8565b6001600160a01b0384166116ab5760405162461bcd60e51b81526004016106b890612a35565b3360005b84518110156117b15760008582815181106116da57634e487b7160e01b600052603260045260246000fd5b60200260200101519050600085838151811061170657634e487b7160e01b600052603260045260246000fd5b60209081029190910181015160008481526001835260408082206001600160a01b038e1683529093529190912054909150818110156117575760405162461bcd60e51b81526004016106b890612a7a565b60008381526001602090815260408083206001600160a01b038e8116855292528083208585039055908b16825281208054849290611796908490612b1d565b92505081905550505050806117aa90612bbc565b90506116af565b50846001600160a01b0316866001600160a01b0316826001600160a01b03167f4a39dc06d4c0dbc64b70af90fd698a233a518aa5d07e595d983b8c0526c8f7fb87876040516118019291906129ac565b60405180910390a4611817818787878787611d5f565b505050505050565b80516118329060039060208401906122ac565b5050565b600080546001600160a01b038381166001600160a01b0319831681178455604051919092169283917f8be0079c531659141344cd1fd0a4f28419497f9722a3daafe3b4186f6b6457e09190a35050565b6000610735611893611e29565b8360405161190160f01b6020820152602281018390526042810182905260009060620160405160208183030381529060405280519060200120905092915050565b60008060006118e38585611f1f565b91509150610c5a81611f8f565b6001600160a01b0383166119525760405162461bcd60e51b815260206004820152602360248201527f455243313135353a206275726e2066726f6d20746865207a65726f206164647260448201526265737360e81b60648201526084016106b8565b336119828185600061196387611b9b565b61196c87611b9b565b5050604080516020810190915260009052505050565b60008381526001602090815260408083206001600160a01b038816845290915290205482811015611a015760405162461bcd60e51b8152602060048201526024808201527f455243313135353a206275726e20616d6f756e7420657863656564732062616c604482015263616e636560e01b60648201526084016106b8565b60008481526001602090815260408083206001600160a01b03898116808652918452828520888703905582518981529384018890529092908616917fc3d58168c5ae7397731d063d5bbf3d657854427343f4c083240f7aacaa2d0f62910160405180910390a45050505050565b60006115108284612b35565b6001600160a01b038416611aa05760405162461bcd60e51b81526004016106b890612a35565b33611ab081878761158888611b9b565b60008481526001602090815260408083206001600160a01b038a16845290915290205483811015611af35760405162461bcd60e51b81526004016106b890612a7a565b60008581526001602090815260408083206001600160a01b038b8116855292528083208785039055908816825281208054869290611b32908490612b1d565b909155505060408051868152602081018690526001600160a01b03808916928a821692918616917fc3d58168c5ae7397731d063d5bbf3d657854427343f4c083240f7aacaa2d0f62910160405180910390a4611b92828888888888611bf4565b50505050505050565b60408051600180825281830190925260609160009190602080830190803683370190505090508281600081518110611be357634e487b7160e01b600052603260045260246000fd5b602090810291909101015292915050565b6001600160a01b0384163b156118175760405163f23a6e6160e01b81526001600160a01b0385169063f23a6e6190611c389089908990889088908890600401612954565b602060405180830381600087803b158015611c5257600080fd5b505af1925050508015611c82575060408051601f3d908101601f19168201909252611c7f91810190612745565b60015b611d2f57611c8e612c03565b806308c379a01415611cc85750611ca3612c1a565b80611cae5750611cca565b8060405162461bcd60e51b81526004016106b891906129da565b505b60405162461bcd60e51b815260206004820152603460248201527f455243313135353a207472616e7366657220746f206e6f6e20455243313135356044820152732932b1b2b4bb32b91034b6b83632b6b2b73a32b960611b60648201526084016106b8565b6001600160e01b0319811663f23a6e6160e01b14611b925760405162461bcd60e51b81526004016106b8906129ed565b6001600160a01b0384163b156118175760405163bc197c8160e01b81526001600160a01b0385169063bc197c8190611da390899089908890889088906004016128f6565b602060405180830381600087803b158015611dbd57600080fd5b505af1925050508015611ded575060408051601f3d908101601f19168201909252611dea91810190612745565b60015b611df957611c8e612c03565b6001600160e01b0319811663bc197c8160e01b14611b925760405162461bcd60e51b81526004016106b8906129ed565b60007f0000000000000000000000000000000000000000000000000000000000000000461415611e7857507f000000000000000000000000000000000000000000000000000000000000000090565b50604080517f00000000000000000000000000000000000000000000000000000000000000006020808301919091527f0000000000000000000000000000000000000000000000000000000000000000828401527f000000000000000000000000000000000000000000000000000000000000000060608301524660808301523060a0808401919091528351808403909101815260c0909201909252805191012090565b90565b600080825160411415611f565760208301516040840151606085015160001a611f4a87828585612190565b94509450505050611f88565b825160401415611f805760208301516040840151611f7586838361227d565b935093505050611f88565b506000905060025b9250929050565b6000816004811115611fb157634e487b7160e01b600052602160045260246000fd5b1415611fba5750565b6001816004811115611fdc57634e487b7160e01b600052602160045260246000fd5b141561202a5760405162461bcd60e51b815260206004820152601860248201527f45434453413a20696e76616c6964207369676e6174757265000000000000000060448201526064016106b8565b600281600481111561204c57634e487b7160e01b600052602160045260246000fd5b141561209a5760405162461bcd60e51b815260206004820152601f60248201527f45434453413a20696e76616c6964207369676e6174757265206c656e6774680060448201526064016106b8565b60038160048111156120bc57634e487b7160e01b600052602160045260246000fd5b14156121155760405162461bcd60e51b815260206004820152602260248201527f45434453413a20696e76616c6964207369676e6174757265202773272076616c604482015261756560f01b60648201526084016106b8565b600481600481111561213757634e487b7160e01b600052602160045260246000fd5b1415610c955760405162461bcd60e51b815260206004820152602260248201527f45434453413a20696e76616c6964207369676e6174757265202776272076616c604482015261756560f01b60648201526084016106b8565b6000807f7fffffffffffffffffffffffffffffff5d576e7357a4501ddfe92f46681b20a08311156121c75750600090506003612274565b8460ff16601b141580156121df57508460ff16601c14155b156121f05750600090506004612274565b6040805160008082526020820180845289905260ff881692820192909252606081018690526080810185905260019060a0016020604051602081039080840390855afa158015612244573d6000803e3d6000fd5b5050604051601f1901519150506001600160a01b03811661226d57600060019250925050612274565b9150600090505b94509492505050565b6000806001600160ff1b03831660ff84901c601b0161229e87828885612190565b935093505050935093915050565b8280546122b890612b54565b90600052602060002090601f0160209004810192826122da5760008555612320565b82601f106122f357805160ff1916838001178555612320565b82800160010185558215612320579182015b82811115612320578251825591602001919060010190612305565b5061232c929150612330565b5090565b5b8082111561232c5760008155600101612331565b600067ffffffffffffffff83111561235f5761235f612bed565b604051612376601f8501601f191660200182612b8f565b80915083815284848401111561238b57600080fd5b83836020830137600060208583010152509392505050565b80356001600160a01b03811681146123ba57600080fd5b919050565b600082601f8301126123cf578081fd5b813560206123dc82612af9565b6040516123e98282612b8f565b8381528281019150858301600585901b87018401881015612408578586fd5b855b858110156124265781358452928401929084019060010161240a565b5090979650505050505050565b803580151581146123ba57600080fd5b600082601f830112612453578081fd5b61151083833560208501612345565b600060208284031215612473578081fd5b611510826123a3565b6000806040838503121561248e578081fd5b612497836123a3565b91506124a5602084016123a3565b90509250929050565b600080600080600060a086880312156124c5578081fd5b6124ce866123a3565b94506124dc602087016123a3565b9350604086013567ffffffffffffffff808211156124f8578283fd5b61250489838a016123bf565b94506060880135915080821115612519578283fd5b61252589838a016123bf565b9350608088013591508082111561253a578283fd5b5061254788828901612443565b9150509295509295909350565b600080600080600060a0868803121561256b578081fd5b612574866123a3565b9450612582602087016123a3565b93506040860135925060608601359150608086013567ffffffffffffffff8111156125ab578182fd5b61254788828901612443565b600080604083850312156125c9578182fd5b6125d2836123a3565b91506124a560208401612433565b600080604083850312156125f2578182fd5b6125fb836123a3565b946020939093013593505050565b6000806040838503121561261b578182fd5b823567ffffffffffffffff80821115612632578384fd5b818501915085601f830112612645578384fd5b8135602061265282612af9565b60405161265f8282612b8f565b8381528281019150858301600585901b870184018b101561267e578889fd5b8896505b848710156126a757612693816123a3565b835260019690960195918301918301612682565b50965050860135925050808211156126bd578283fd5b506126ca858286016123bf565b9150509250929050565b6000602082840312156126e5578081fd5b61151082612433565b600080600060608486031215612702578081fd5b61270b84612433565b92506020840135915061272060408501612433565b90509250925092565b60006020828403121561273a578081fd5b813561151081612ca4565b600060208284031215612756578081fd5b815161151081612ca4565b600060208284031215612772578081fd5b813567ffffffffffffffff811115612788578182fd5b8201601f81018413612798578182fd5b6127a784823560208401612345565b949350505050565b6000602082840312156127c0578081fd5b5035919050565b600080604083850312156127d9578182fd5b82359150602083013567ffffffffffffffff8111156127f6578182fd5b6126ca85828601612443565b60008060408385031215612814578182fd5b50508035926020909101359150565b600080600060608486031215612837578081fd5b8335925060208401359150604084013567ffffffffffffffff81111561285b578182fd5b61286786828701612443565b9150509250925092565b6000815180845260208085019450808401835b838110156128a057815187529582019590820190600101612884565b509495945050505050565b60008151808452815b818110156128d0576020818501810151868301820152016128b4565b818111156128e15782602083870101525b50601f01601f19169290920160200192915050565b6001600160a01b0386811682528516602082015260a06040820181905260009061292290830186612871565b82810360608401526129348186612871565b9050828103608084015261294881856128ab565b98975050505050505050565b6001600160a01b03868116825285166020820152604081018490526060810183905260a06080820181905260009061298e908301846128ab565b979650505050505050565b6020815260006115106020830184612871565b6040815260006129bf6040830185612871565b82810360208401526129d18185612871565b95945050505050565b60208152600061151060208301846128ab565b60208082526028908201527f455243313135353a204552433131353552656365697665722072656a656374656040820152676420746f6b656e7360c01b606082015260800190565b60208082526025908201527f455243313135353a207472616e7366657220746f20746865207a65726f206164604082015264647265737360d81b606082015260800190565b6020808252602a908201527f455243313135353a20696e73756666696369656e742062616c616e636520666f60408201526939103a3930b739b332b960b11b606082015260800190565b6020808252818101527f4f776e61626c653a2063616c6c6572206973206e6f7420746865206f776e6572604082015260600190565b600067ffffffffffffffff821115612b1357612b13612bed565b5060051b60200190565b60008219821115612b3057612b30612bd7565b500190565b6000816000190483118215151615612b4f57612b4f612bd7565b500290565b600181811c90821680612b6857607f821691505b60208210811415612b8957634e487b7160e01b600052602260045260246000fd5b50919050565b601f8201601f1916810167ffffffffffffffff81118282101715612bb557612bb5612bed565b6040525050565b6000600019821415612bd057612bd0612bd7565b5060010190565b634e487b7160e01b600052601160045260246000fd5b634e487b7160e01b600052604160045260246000fd5b600060033d1115611f1c57600481823e5160e01c90565b600060443d1015612c285790565b6040516003193d81016004833e81513d67ffffffffffffffff8160248401118184111715612c5857505050505090565b8285019150815181811115612c705750505050505090565b843d8701016020828501011115612c8a5750505050505090565b612c9960208286010187612b8f565b509095945050505050565b6001600160e01b031981168114610c9557600080fdfea2646970667358221220efd8f14b0d2bd26c880bf013a5cd61d93b6cbd6ef36293270c69a35b74c78e0c64736f6c6343000804003368747470733a2f2f676174657761792e70696e6174612e636c6f75642f697066732f516d5043594865414c667676657a434250324666447271794a766d3539744d646d636648547959437a3258644735",
  "devdoc": {
    "kind": "dev",
    "methods": {
      "balanceOf(address,uint256)": {
        "details": "See {IERC1155-balanceOf}. Requirements: - `account` cannot be the zero address."
      },
      "balanceOfBatch(address[],uint256[])": {
        "details": "See {IERC1155-balanceOfBatch}. Requirements: - `accounts` and `ids` must have the same length."
      },
      "isApprovedForAll(address,address)": {
        "details": "See {IERC1155-isApprovedForAll}."
      },
      "owner()": {
        "details": "Returns the address of the current owner."
      },
      "renounceOwnership()": {
        "details": "Leaves the contract without owner. It will not be possible to call `onlyOwner` functions anymore. Can only be called by the current owner. NOTE: Renouncing ownership will leave the contract without an owner, thereby removing any functionality that is only available to the owner."
      },
      "safeBatchTransferFrom(address,address,uint256[],uint256[],bytes)": {
        "details": "See {IERC1155-safeBatchTransferFrom}."
      },
      "safeTransferFrom(address,address,uint256,uint256,bytes)": {
        "details": "See {IERC1155-safeTransferFrom}."
      },
      "setApprovalForAll(address,bool)": {
        "details": "See {IERC1155-setApprovalForAll}."
      },
      "supportsInterface(bytes4)": {
        "details": "See {IERC165-supportsInterface}."
      },
      "transferOwnership(address)": {
        "details": "Transfers ownership of the contract to a new account (`newOwner`). Can only be called by the current owner."
      },
      "uri(uint256)": {
        "details": "See {IERC1155MetadataURI-uri}. This implementation returns the same URI for *all* token types. It relies on the token type ID substitution mechanism https://eips.ethereum.org/EIPS/eip-1155#metadata[defined in the EIP]. Clients calling this function must replace the `\\{id\\}` substring with the actual token type ID."
      }
    },
    "version": 1
  },
  "userdoc": {
    "kind": "user",
    "methods": {},
    "version": 1
  },
  "storageLayout": {
    "storage": [
      {
        "astId": 7,
        "contract": "contracts/BlockBanana.sol:BlockBanana",
        "label": "_owner",
        "offset": 0,
        "slot": "0",
        "type": "t_address"
      },
      {
        "astId": 129,
        "contract": "contracts/BlockBanana.sol:BlockBanana",
        "label": "_balances",
        "offset": 0,
        "slot": "1",
        "type": "t_mapping(t_uint256,t_mapping(t_address,t_uint256))"
      },
      {
        "astId": 135,
        "contract": "contracts/BlockBanana.sol:BlockBanana",
        "label": "_operatorApprovals",
        "offset": 0,
        "slot": "2",
        "type": "t_mapping(t_address,t_mapping(t_address,t_bool))"
      },
      {
        "astId": 137,
        "contract": "contracts/BlockBanana.sol:BlockBanana",
        "label": "_uri",
        "offset": 0,
        "slot": "3",
        "type": "t_string_storage"
      },
      {
        "astId": 2760,
        "contract": "contracts/BlockBanana.sol:BlockBanana",
        "label": "_name",
        "offset": 0,
        "slot": "4",
        "type": "t_string_storage"
      },
      {
        "astId": 2763,
        "contract": "contracts/BlockBanana.sol:BlockBanana",
        "label": "_symbol",
        "offset": 0,
        "slot": "5",
        "type": "t_string_storage"
      },
      {
        "astId": 2766,
        "contract": "contracts/BlockBanana.sol:BlockBanana",
        "label": "MAX_TOKEN",
        "offset": 0,
        "slot": "6",
        "type": "t_uint256"
      },
      {
        "astId": 2769,
        "contract": "contracts/BlockBanana.sol:BlockBanana",
        "label": "HOLDER_MAX",
        "offset": 0,
        "slot": "7",
        "type": "t_uint256"
      },
      {
        "astId": 2772,
        "contract": "contracts/BlockBanana.sol:BlockBanana",
        "label": "PRICE",
        "offset": 0,
        "slot": "8",
        "type": "t_uint256"
      },
      {
        "astId": 2775,
        "contract": "contracts/BlockBanana.sol:BlockBanana",
        "label": "saleTimestamp",
        "offset": 0,
        "slot": "9",
        "type": "t_uint256"
      },
      {
        "astId": 2778,
        "contract": "contracts/BlockBanana.sol:BlockBanana",
        "label": "totalSupply",
        "offset": 0,
        "slot": "10",
        "type": "t_uint256"
      },
      {
        "astId": 2781,
        "contract": "contracts/BlockBanana.sol:BlockBanana",
        "label": "hasSaleStarted",
        "offset": 0,
        "slot": "11",
        "type": "t_bool"
      },
      {
        "astId": 2784,
        "contract": "contracts/BlockBanana.sol:BlockBanana",
        "label": "whitelistSwitch",
        "offset": 1,
        "slot": "11",
        "type": "t_bool"
      },
      {
        "astId": 2787,
        "contract": "contracts/BlockBanana.sol:BlockBanana",
        "label": "burnStarted",
        "offset": 2,
        "slot": "11",
        "type": "t_bool"
      },
      {
        "astId": 2790,
        "contract": "contracts/BlockBanana.sol:BlockBanana",
        "label": "treasury",
        "offset": 3,
        "slot": "11",
        "type": "t_address"
      },
      {
        "astId": 2794,
        "contract": "contracts/BlockBanana.sol:BlockBanana",
        "label": "hasMint",
        "offset": 0,
        "slot": "12",
        "type": "t_mapping(t_address,t_uint256)"
      }
    ],
    "types": {
      "t_address": {
        "encoding": "inplace",
        "label": "address",
        "numberOfBytes": "20"
      },
      "t_bool": {
        "encoding": "inplace",
        "label": "bool",
        "numberOfBytes": "1"
      },
      "t_mapping(t_address,t_bool)": {
        "encoding": "mapping",
        "key": "t_address",
        "label": "mapping(address => bool)",
        "numberOfBytes": "32",
        "value": "t_bool"
      },
      "t_mapping(t_address,t_mapping(t_address,t_bool))": {
        "encoding": "mapping",
        "key": "t_address",
        "label": "mapping(address => mapping(address => bool))",
        "numberOfBytes": "32",
        "value": "t_mapping(t_address,t_bool)"
      },
      "t_mapping(t_address,t_uint256)": {
        "encoding": "mapping",
        "key": "t_address",
        "label": "mapping(address => uint256)",
        "numberOfBytes": "32",
        "value": "t_uint256"
      },
      "t_mapping(t_uint256,t_mapping(t_address,t_uint256))": {
        "encoding": "mapping",
        "key": "t_uint256",
        "label": "mapping(uint256 => mapping(address => uint256))",
        "numberOfBytes": "32",
        "value": "t_mapping(t_address,t_uint256)"
      },
      "t_string_storage": {
        "encoding": "bytes",
        "label": "string",
        "numberOfBytes": "32"
      },
      "t_uint256": {
        "encoding": "inplace",
        "label": "uint256",
        "numberOfBytes": "32"
      }
    }
  }
}